{"abi":[{"type":"constructor","inputs":[{"name":"_reputationMode","type":"uint8","internalType":"enum ReputationMode"}],"stateMutability":"nonpayable"},{"type":"function","name":"challengeCodeHash","inputs":[],"outputs":[{"name":"","type":"bytes32","internalType":"bytes32"}],"stateMutability":"view"},{"type":"function","name":"getChallengeCodeHash","inputs":[],"outputs":[{"name":"","type":"bytes32","internalType":"bytes32"}],"stateMutability":"view"},{"type":"function","name":"getGrsAndTrsBatch","inputs":[{"name":"userAddresses","type":"address[]","internalType":"address[]"},{"name":"taskType","type":"uint8","internalType":"enum TaskType"}],"outputs":[{"name":"result","type":"tuple[]","internalType":"struct OpenFLManager.TaskSpecificUser[]","components":[{"name":"userAddress","type":"address","internalType":"address"},{"name":"taskRep","type":"uint256","internalType":"uint256"},{"name":"globalIntegrityRep","type":"uint256","internalType":"uint256"},{"name":"totalContribScore","type":"uint128","internalType":"uint128"},{"name":"qValue","type":"uint256","internalType":"uint256"},{"name":"balance","type":"uint256","internalType":"uint256"},{"name":"taskCount","type":"uint256","internalType":"uint256"}]}],"stateMutability":"view"},{"type":"function","name":"getTaskCount","inputs":[{"name":"addr","type":"address","internalType":"address"},{"name":"taskType","type":"uint8","internalType":"enum TaskType"}],"outputs":[{"name":"","type":"uint256","internalType":"uint256"}],"stateMutability":"view"},{"type":"function","name":"getTaskRepCalcState","inputs":[{"name":"addr","type":"address","internalType":"address"},{"name":"taskType","type":"uint8","internalType":"enum TaskType"}],"outputs":[{"name":"runningCMean","type":"uint256","internalType":"uint256"},{"name":"m2","type":"uint256","internalType":"uint256"}],"stateMutability":"view"},{"type":"function","name":"getTaskTypeNames","inputs":[],"outputs":[{"name":"names","type":"string[]","internalType":"string[]"}],"stateMutability":"pure"},{"type":"function","name":"getUser","inputs":[{"name":"addr","type":"address","internalType":"address"},{"name":"taskType","type":"uint8","internalType":"enum TaskType"}],"outputs":[{"name":"","type":"tuple","internalType":"struct OpenFLManager.TaskSpecificUser","components":[{"name":"userAddress","type":"address","internalType":"address"},{"name":"taskRep","type":"uint256","internalType":"uint256"},{"name":"globalIntegrityRep","type":"uint256","internalType":"uint256"},{"name":"totalContribScore","type":"uint128","internalType":"uint128"},{"name":"qValue","type":"uint256","internalType":"uint256"},{"name":"balance","type":"uint256","internalType":"uint256"},{"name":"taskCount","type":"uint256","internalType":"uint256"}]}],"stateMutability":"view"},{"type":"function","name":"getUserAllTaskTypes","inputs":[{"name":"addr","type":"address","internalType":"address"}],"outputs":[{"name":"result","type":"tuple[]","internalType":"struct OpenFLManager.TaskSpecificUser[]","components":[{"name":"userAddress","type":"address","internalType":"address"},{"name":"taskRep","type":"uint256","internalType":"uint256"},{"name":"globalIntegrityRep","type":"uint256","internalType":"uint256"},{"name":"totalContribScore","type":"uint128","internalType":"uint128"},{"name":"qValue","type":"uint256","internalType":"uint256"},{"name":"balance","type":"uint256","internalType":"uint256"},{"name":"taskCount","type":"uint256","internalType":"uint256"}]}],"stateMutability":"view"},{"type":"function","name":"getUserRep","inputs":[{"name":"addr","type":"address","internalType":"address"},{"name":"taskType","type":"uint8","internalType":"enum TaskType"}],"outputs":[{"name":"","type":"uint256","internalType":"uint256"},{"name":"","type":"uint256","internalType":"uint256"},{"name":"","type":"uint256","internalType":"uint256"}],"stateMutability":"view"},{"type":"function","name":"getUsersBatch","inputs":[{"name":"addrs","type":"address[]","internalType":"address[]"},{"name":"taskType","type":"uint8","internalType":"enum TaskType"}],"outputs":[{"name":"result","type":"tuple[]","internalType":"struct OpenFLManager.TaskSpecificUser[]","components":[{"name":"userAddress","type":"address","internalType":"address"},{"name":"taskRep","type":"uint256","internalType":"uint256"},{"name":"globalIntegrityRep","type":"uint256","internalType":"uint256"},{"name":"totalContribScore","type":"uint128","internalType":"uint128"},{"name":"qValue","type":"uint256","internalType":"uint256"},{"name":"balance","type":"uint256","internalType":"uint256"},{"name":"taskCount","type":"uint256","internalType":"uint256"}]}],"stateMutability":"view"},{"type":"function","name":"implementation","inputs":[],"outputs":[{"name":"","type":"address","internalType":"address"}],"stateMutability":"view"},{"type":"function","name":"incrementTaskCount","inputs":[{"name":"user","type":"address","internalType":"address"},{"name":"taskType","type":"uint8","internalType":"enum TaskType"}],"outputs":[],"stateMutability":"nonpayable"},{"type":"function","name":"jobListingCodeHash","inputs":[],"outputs":[{"name":"","type":"bytes32","internalType":"bytes32"}],"stateMutability":"view"},{"type":"function","name":"publisher","inputs":[],"outputs":[{"name":"","type":"address","internalType":"address"}],"stateMutability":"view"},{"type":"function","name":"registerJob","inputs":[{"name":"job","type":"address","internalType":"address"}],"outputs":[],"stateMutability":"nonpayable"},{"type":"function","name":"reputationMode","inputs":[],"outputs":[{"name":"","type":"uint8","internalType":"enum ReputationMode"}],"stateMutability":"view"},{"type":"function","name":"setChallengeCodeHash","inputs":[{"name":"_hash","type":"bytes32","internalType":"bytes32"}],"outputs":[],"stateMutability":"nonpayable"},{"type":"function","name":"setJobListingCodeHash","inputs":[{"name":"_hash","type":"bytes32","internalType":"bytes32"}],"outputs":[],"stateMutability":"nonpayable"},{"type":"function","name":"setTaskRepCalcState","inputs":[{"name":"user","type":"address","internalType":"address"},{"name":"taskType","type":"uint8","internalType":"enum TaskType"},{"name":"newRunningCMean","type":"uint256","internalType":"uint256"},{"name":"newM2","type":"uint256","internalType":"uint256"}],"outputs":[],"stateMutability":"nonpayable"},{"type":"function","name":"setUserBalance","inputs":[{"name":"user","type":"address","internalType":"address"},{"name":"value","type":"uint256","internalType":"uint256"}],"outputs":[],"stateMutability":"nonpayable"},{"type":"function","name":"setUserIntegrityRep","inputs":[{"name":"user","type":"address","internalType":"address"},{"name":"newValue","type":"uint256","internalType":"uint256"}],"outputs":[],"stateMutability":"nonpayable"},{"type":"function","name":"setUserTaskRep","inputs":[{"name":"user","type":"address","internalType":"address"},{"name":"taskType","type":"uint8","internalType":"enum TaskType"},{"name":"newValue","type":"uint256","internalType":"uint256"}],"outputs":[],"stateMutability":"nonpayable"},{"type":"function","name":"updateQValuesAfterSelection","inputs":[{"name":"allRegistrants","type":"address[]","internalType":"address[]"},{"name":"selected","type":"address[]","internalType":"address[]"},{"name":"taskType","type":"uint8","internalType":"enum TaskType"}],"outputs":[],"stateMutability":"nonpayable"},{"type":"function","name":"updateReputationsFromChallenge","inputs":[{"name":"challengeAddr","type":"address","internalType":"address"},{"name":"taskType","type":"uint8","internalType":"enum TaskType"}],"outputs":[],"stateMutability":"nonpayable"},{"type":"function","name":"users","inputs":[{"name":"","type":"address","internalType":"address"}],"outputs":[{"name":"GlobalIntegrityRep","type":"uint256","internalType":"uint256"},{"name":"TotalContribScore","type":"uint128","internalType":"uint128"},{"name":"Balance","type":"uint256","internalType":"uint256"}],"stateMutability":"view"},{"type":"function","name":"validJobs","inputs":[{"name":"","type":"address","internalType":"address"}],"outputs":[{"name":"","type":"bool","internalType":"bool"}],"stateMutability":"view"},{"type":"function","name":"validateJob","inputs":[{"name":"job","type":"address","internalType":"address"}],"outputs":[{"name":"","type":"bool","internalType":"bool"}],"stateMutability":"view"},{"type":"event","name":"JobListingValid","inputs":[{"name":"isValid","type":"bool","indexed":false,"internalType":"bool"}],"anonymous":false},{"type":"event","name":"TaskRepCalcStateUpdated","inputs":[{"name":"user","type":"address","indexed":true,"internalType":"address"},{"name":"taskType","type":"uint8","indexed":true,"internalType":"enum TaskType"},{"name":"newRunningCMean","type":"uint256","indexed":false,"internalType":"uint256"},{"name":"newM2","type":"uint256","indexed":false,"internalType":"uint256"}],"anonymous":false},{"type":"event","name":"UserIntegrityRepUpdated","inputs":[{"name":"user","type":"address","indexed":true,"internalType":"address"},{"name":"oldValue","type":"uint256","indexed":false,"internalType":"uint256"},{"name":"newValue","type":"uint256","indexed":false,"internalType":"uint256"}],"anonymous":false},{"type":"event","name":"UserTaskRepUpdated","inputs":[{"name":"user","type":"address","indexed":true,"internalType":"address"},{"name":"taskType","type":"uint8","indexed":true,"internalType":"enum TaskType"},{"name":"oldValue","type":"uint256","indexed":false,"internalType":"uint256"},{"name":"newValue","type":"uint256","indexed":false,"internalType":"uint256"}],"anonymous":false}],"bytecode":{"object":"0x60a06040523480156200001157600080fd5b5060405162001f6338038062001f6383398101604081905262000034916200007d565b600580546001600160a01b031916331790558060018111156200005b576200005b620000a7565b6080816001811115620000725762000072620000a7565b8152505050620000bd565b6000602082840312156200009057600080fd5b815160028110620000a057600080fd5b9392505050565b634e487b7160e01b600052602160045260246000fd5b608051611e83620000e06000396000818161032b01526116b30152611e836000f3fe608060405234801561001057600080fd5b50600436106101a95760003560e01c806365ea6e3c116100f9578063a87430ba11610097578063cfc151ff11610071578063cfc151ff1461044e578063d0b50def14610457578063f989d87a1461046a578063fe1777001461048a57600080fd5b8063a87430ba146103c6578063bbbf150714610424578063c9e3540c1461043757600080fd5b80637047c5f3116100d35780637047c5f31461035a5780638c72c54e1461036d57806395760db5146103805780639cc504a51461039357600080fd5b806365ea6e3c1461030b5780636cc6069f1461031e5780636f69e7301461032657600080fd5b80632c06ca721161016657806349c839e41161014057806349c839e41461028c57806358c67d171461029f5780635a526689146102cd5780635c60da1b146102e057600080fd5b80632c06ca721461023c578063329afc691461026457806337ebf7a91461027957600080fd5b80630ba20ef2146101ae5780631565fb5c146101c35780632422b758146101d657806324d5c669146101e9578063291c734a14610212578063293253ac14610225575b600080fd5b6101c16101bc366004611771565b61049d565b005b6101c16101d13660046117af565b610602565b6101c16101e43660046117e4565b61084a565b6101fc6101f7366004611842565b61086f565b60405161020991906118e9565b60405180910390f35b6101c1610220366004611937565b610939565b61022e60045481565b604051908152602001610209565b61024f61024a3660046117af565b610a8f565b60408051928352602083019190915201610209565b61026c610b58565b604051610209919061197b565b6101fc610287366004611842565b610df8565b6101c161029a3660046117af565b610e9f565b6102b26102ad3660046117af565b610f5a565b60408051938452602084019290925290820152606001610209565b61022e6102db3660046117af565b61101c565b6002546102f3906001600160a01b031681565b6040516001600160a01b039091168152602001610209565b6101c1610319366004611a16565b61107b565b60045461022e565b61034d7f000000000000000000000000000000000000000000000000000000000000000081565b6040516102099190611aad565b6101fc610368366004611ad5565b611346565b6005546102f3906001600160a01b031681565b6101c161038e3660046117e4565b6113e7565b6103b66103a1366004611ad5565b60016020526000908152604090205460ff1681565b6040519015158152602001610209565b6104016103d4366004611ad5565b60006020819052908152604090206003810154600482015460079092015490916001600160801b03169083565b604080519384526001600160801b03909216602084015290820152606001610209565b6101c1610432366004611ad5565b61140c565b6103b6610445366004611ad5565b600354903f1490565b61022e60035481565b6101c1610465366004611af9565b611470565b61047d6104783660046117af565b611514565b6040516102099190611b25565b6101c1610498366004611af9565b61164a565b3360009081526001602052604090205460ff16806104c557506005546001600160a01b031633145b6104ea5760405162461bcd60e51b81526004016104e190611b33565b60405180910390fd5b60006104f5836116ad565b6001600160a01b0385166000908152602081905260408120919250908183600881111561052457610524611a97565b600881111561053557610535611a97565b815260200190815260200160002054905082600080876001600160a01b03166001600160a01b03168152602001908152602001600020600001600084600881111561058257610582611a97565b600881111561059357610593611a97565b81526020810191909152604001600020558160088111156105b6576105b6611a97565b60408051838152602081018690526001600160a01b038816917ffa8bf6a1189a270b9a04af9213542b60e843d5838478ba6a4eec637d3674677d91015b60405180910390a35050505050565b6005546001600160a01b03163314806106235750336001600160a01b038316145b61065e5760405162461bcd60e51b815260206004820152600c60248201526b155b985d5d1a1bdc9a5e995960a21b60448201526064016104e1565b60008290506000816001600160a01b03166346834d006040518163ffffffff1660e01b815260040160006040518083038186803b15801561069e57600080fd5b505afa1580156106b2573d6000803e3d6000fd5b505050506040513d6000823e601f3d908101601f191682016040526106da9190810190611bea565b905060005b81518110156108435760008282815181106106fc576106fc611ce5565b6020026020010151905060006001600160a01b031681600001516001600160a01b0316141561072b5750610831565b80516001600160a01b0316600090815260208181526040822090830151909190828289600881111561075f5761075f611a97565b600881111561077057610770611a97565b8152602001908152602001600020546107899190611d11565b90506000811361079a57600061079c565b805b8260008960088111156107b1576107b1611a97565b60088111156107c2576107c2611a97565b8152602081019190915260409081016000908120929092558401516003840155606084015160048401805460ff9092169290916108099084906001600160801b0316611d52565b92506101000a8154816001600160801b0302191690836001600160801b031602179055505050505b8061083b81611d7d565b9150506106df565b5050505050565b6005546001600160a01b0316331461085f5750565b6003541561086a5750565b600355565b60608267ffffffffffffffff81111561088a5761088a611b7a565b6040519080825280602002602001820160405280156108c357816020015b6108b06116f6565b8152602001906001900390816108a85790505b50905060005b83811015610931576109018585838181106108e6576108e6611ce5565b90506020020160208101906108fb9190611ad5565b84611514565b82828151811061091357610913611ce5565b6020026020010181905250808061092990611d7d565b9150506108c9565b509392505050565b3360009081526001602052604090205460ff168061096157506005546001600160a01b031633145b61097d5760405162461bcd60e51b81526004016104e190611b33565b6000610988846116ad565b6001600160a01b03861660009081526020819052604081209192508491600101908360088111156109bb576109bb611a97565b60088111156109cc576109cc611a97565b81526020019081526020016000208190555081600080876001600160a01b03166001600160a01b031681526020019081526020016000206002016000836008811115610a1a57610a1a611a97565b6008811115610a2b57610a2b611a97565b8152602081019190915260400160002055806008811115610a4e57610a4e611a97565b60408051858152602081018590526001600160a01b038816917f91a2acb60e3df6295524b6f0cb565d7a66ca343b8bc2449e87c1c1c006c03e5991016105f3565b6000806000610a9d846116ad565b6001600160a01b0386166000908152602081905260408120919250600190910190826008811115610ad057610ad0611a97565b6008811115610ae157610ae1611a97565b815260200190815260200160002054600080876001600160a01b03166001600160a01b031681526020019081526020016000206002016000836008811115610b2b57610b2b611a97565b6008811115610b3c57610b3c611a97565b81526020019081526020016000205492509250505b9250929050565b6060610b6660086001611d98565b60ff1667ffffffffffffffff811115610b8157610b81611b7a565b604051908082528060200260200182016040528015610bb457816020015b6060815260200190600190039081610b9f5790505b5090506040518060400160405280600881526020016774656d706c61746560c01b81525081600081518110610beb57610beb611ce5565b602002602001018190525060405180604001604052806006815260200165496d6167657360d01b81525081600181518110610c2857610c28611ce5565b6020026020010181905250604051806040016040528060088152602001674c616e677561676560c01b81525081600281518110610c6757610c67611ce5565b60200260200101819052506040518060400160405280600f81526020016e496d616765735f636c6f7468696e6760881b81525081600381518110610cad57610cad611ce5565b60200260200101819052506040518060400160405280600e81526020016d496d616765735f6f626a6563747360901b81525081600481518110610cf257610cf2611ce5565b60200260200101819052506040518060400160405280600581526020016413539254d560da1b81525081600581518110610d2e57610d2e611ce5565b6020026020010181905250604051806040016040528060078152602001660434946415231360cc1b81525081600681518110610d6c57610d6c611ce5565b60200260200101819052506040518060400160405280600c81526020016b11985cda1a5bdb93539254d560a21b81525081600781518110610daf57610daf611ce5565b60200260200101819052506040518060400160405280600481526020016324a6a22160e11b81525081600881518110610dea57610dea611ce5565b602002602001018190525090565b60608267ffffffffffffffff811115610e1357610e13611b7a565b604051908082528060200260200182016040528015610e4c57816020015b610e396116f6565b815260200190600190039081610e315790505b50905060005b8381101561093157610e6f8585838181106108e6576108e6611ce5565b828281518110610e8157610e81611ce5565b60200260200101819052508080610e9790611d7d565b915050610e52565b3360009081526001602052604090205460ff1680610ec757506005546001600160a01b031633145b610ee35760405162461bcd60e51b81526004016104e190611b33565b6000610eee826116ad565b6001600160a01b038416600090815260208190526040812091925060019160060190836008811115610f2257610f22611a97565b6008811115610f3357610f33611a97565b81526020019081526020016000206000828254610f509190611dbd565b9091555050505050565b600080600080610f69856116ad565b6001600160a01b0387166000908152602081905260408120919250826008811115610f9657610f96611a97565b6008811115610fa757610fa7611a97565b815260208082019290925260409081016000908120546001600160a01b038a16825292819052908120600381015491600590910190846008811115610fee57610fee611a97565b6008811115610fff57610fff611a97565b815260200190815260200160002054935093509350509250925092565b6001600160a01b038216600090815260208190526040812060060181611041846116ad565b600881111561105257611052611a97565b600881111561106357611063611a97565b81526020019081526020016000205490505b92915050565b6005546001600160a01b03163314806110a357503360009081526001602052604090205460ff165b6110de5760405162461bcd60e51b815260206004820152600c60248201526b155b985d5d1a1bdc9a5e995960a21b60448201526064016104e1565b83806110ea5750610843565b82600082611100670de0b6b3a764000084611dd5565b61110a9190611df4565b9050600660005b8381101561117f5760018260008a8a8581811061113057611130611ce5565b90506020020160208101906111459190611ad5565b6001600160a01b031681526020810191909152604001600020805460ff19169115159190911790558061117781611d7d565b915050611111565b5060005b848110156112d15760008a8a8381811061119f5761119f611ce5565b90506020020160208101906111b49190611ad5565b6001600160a01b038116600090815260208190526040812091925090600501818960088111156111e6576111e6611a97565b60088111156111f7576111f7611a97565b8152602001908152602001600020549050600085826112169190611dbd565b6001600160a01b03841660009081526020879052604090205490915060ff161561126657670de0b6b3a7640000811015611251576000611263565b611263670de0b6b3a764000082611e16565b90505b6001600160a01b038316600090815260208190526040812082916005909101908b600881111561129857611298611a97565b60088111156112a9576112a9611a97565b81526020019081526020016000208190555050505080806112c990611d7d565b915050611183565b5060005b8381101561133a578160008989848181106112f2576112f2611ce5565b90506020020160208101906113079190611ad5565b6001600160a01b031681526020810191909152604001600020805460ff191690558061133281611d7d565b9150506112d5565b50505050505050505050565b6040805160088082526101208201909252606091816020015b6113676116f6565b81526020019060019003908161135f57905050905060005b600860ff821610156113e1576113ae8361139a836001611d98565b60ff16600881111561047857610478611a97565b828260ff16815181106113c3576113c3611ce5565b602002602001018190525080806113d990611e2d565b91505061137f565b50919050565b6005546001600160a01b031633146113fc5750565b600454156114075750565b600455565b6003546001600160a01b038216600090815260016020908152604091829020805460ff1916853f9094149384179055815183815291517ff598a72f02ccbeb49afb9272f8d521871b23b8f757ea5ea4209c14b5ac1517dc9281900390910190a15050565b3360009081526001602052604090205460ff168061149857506005546001600160a01b031633145b6114b45760405162461bcd60e51b81526004016104e190611b33565b6001600160a01b03821660008181526020818152604091829020600301805490859055825181815291820185905292917fad2c7829dbe13f346f4cb2c470914c5f24d81da14fcd69296287a1949d8ecf10910160405180910390a2505050565b61151c6116f6565b6000611527836116ad565b6001600160a01b038516600081815260208181526040808320815160e08101909252938152939450919291820190839085600881111561156957611569611a97565b600881111561157a5761157a611a97565b8152602001908152602001600020548152602001826003015481526020018260040160009054906101000a90046001600160801b03166001600160801b031681526020018260050160008560088111156115d6576115d6611a97565b60088111156115e7576115e7611a97565b81526020019081526020016000205481526020018260070154815260200182600601600085600881111561161d5761161d611a97565b600881111561162e5761162e611a97565b8152602001908152602001600020548152509250505092915050565b3360009081526001602052604090205460ff168061167257506005546001600160a01b031633145b61168e5760405162461bcd60e51b81526004016104e190611b33565b6001600160a01b03909116600090815260208190526040902060070155565b600060017f000000000000000000000000000000000000000000000000000000000000000060018111156116e3576116e3611a97565b146116ee5781611075565b600092915050565b6040518060e0016040528060006001600160a01b03168152602001600081526020016000815260200160006001600160801b031681526020016000815260200160008152602001600081525090565b6001600160a01b038116811461175a57600080fd5b50565b80356009811061176c57600080fd5b919050565b60008060006060848603121561178657600080fd5b833561179181611745565b925061179f6020850161175d565b9150604084013590509250925092565b600080604083850312156117c257600080fd5b82356117cd81611745565b91506117db6020840161175d565b90509250929050565b6000602082840312156117f657600080fd5b5035919050565b60008083601f84011261180f57600080fd5b50813567ffffffffffffffff81111561182757600080fd5b6020830191508360208260051b8501011115610b5157600080fd5b60008060006040848603121561185757600080fd5b833567ffffffffffffffff81111561186e57600080fd5b61187a868287016117fd565b909450925061188d90506020850161175d565b90509250925092565b80516001600160a01b0316825260208082015190830152604080820151908301526060808201516001600160801b0316908301526080808201519083015260a0818101519083015260c090810151910152565b6020808252825182820181905260009190848201906040850190845b8181101561192b57611918838551611896565b9284019260e09290920191600101611905565b50909695505050505050565b6000806000806080858703121561194d57600080fd5b843561195881611745565b93506119666020860161175d565b93969395505050506040820135916060013590565b6000602080830181845280855180835260408601915060408160051b87010192508387016000805b83811015611a0857888603603f1901855282518051808852835b818110156119d8578281018a01518982018b015289016119bd565b818111156119e857848a838b0101525b50601f01601f1916969096018701955093860193918601916001016119a3565b509398975050505050505050565b600080600080600060608688031215611a2e57600080fd5b853567ffffffffffffffff80821115611a4657600080fd5b611a5289838a016117fd565b90975095506020880135915080821115611a6b57600080fd5b50611a78888289016117fd565b9094509250611a8b90506040870161175d565b90509295509295909350565b634e487b7160e01b600052602160045260246000fd5b6020810160028310611acf57634e487b7160e01b600052602160045260246000fd5b91905290565b600060208284031215611ae757600080fd5b8135611af281611745565b9392505050565b60008060408385031215611b0c57600080fd5b8235611b1781611745565b946020939093013593505050565b60e081016110758284611896565b60208082526027908201527f4f464c4d3a2063616c6c6572206e6f742076616c6964206a6f62206f72207075604082015266313634b9b432b960c91b606082015260800190565b634e487b7160e01b600052604160045260246000fd5b6040516080810167ffffffffffffffff81118282101715611bb357611bb3611b7a565b60405290565b604051601f8201601f1916810167ffffffffffffffff81118282101715611be257611be2611b7a565b604052919050565b60006020808385031215611bfd57600080fd5b825167ffffffffffffffff80821115611c1557600080fd5b818501915085601f830112611c2957600080fd5b815181811115611c3b57611c3b611b7a565b611c49848260051b01611bb9565b818152848101925060079190911b830184019087821115611c6957600080fd5b928401925b81841015611cda5760808489031215611c875760008081fd5b611c8f611b90565b8451611c9a81611745565b815284860151868201526040808601519082015260608086015160ff81168114611cc45760008081fd5b9082015283526080939093019291840191611c6e565b979650505050505050565b634e487b7160e01b600052603260045260246000fd5b634e487b7160e01b600052601160045260246000fd5b600080821280156001600160ff1b0384900385131615611d3357611d33611cfb565b600160ff1b8390038412811615611d4c57611d4c611cfb565b50500190565b60006001600160801b03808316818516808303821115611d7457611d74611cfb565b01949350505050565b6000600019821415611d9157611d91611cfb565b5060010190565b600060ff821660ff84168060ff03821115611db557611db5611cfb565b019392505050565b60008219821115611dd057611dd0611cfb565b500190565b6000816000190483118215151615611def57611def611cfb565b500290565b600082611e1157634e487b7160e01b600052601260045260246000fd5b500490565b600082821015611e2857611e28611cfb565b500390565b600060ff821660ff811415611e4457611e44611cfb565b6001019291505056fea2646970667358221220647d01224ea3f1885ec7d7e861439d905ae056d06a1d6022f778c7821a40bfd064736f6c63430008090033","linkReferences":{}},"methodIdentifiers":{"challengeCodeHash()":"293253ac","getChallengeCodeHash()":"6cc6069f","getGrsAndTrsBatch(address[],uint8)":"24d5c669","getTaskCount(address,uint8)":"5a526689","getTaskRepCalcState(address,uint8)":"2c06ca72","getTaskTypeNames()":"329afc69","getUser(address,uint8)":"f989d87a","getUserAllTaskTypes(address)":"7047c5f3","getUserRep(address,uint8)":"58c67d17","getUsersBatch(address[],uint8)":"37ebf7a9","implementation()":"5c60da1b","incrementTaskCount(address,uint8)":"49c839e4","jobListingCodeHash()":"cfc151ff","publisher()":"8c72c54e","registerJob(address)":"bbbf1507","reputationMode()":"6f69e730","setChallengeCodeHash(bytes32)":"95760db5","setJobListingCodeHash(bytes32)":"2422b758","setTaskRepCalcState(address,uint8,uint256,uint256)":"291c734a","setUserBalance(address,uint256)":"fe177700","setUserIntegrityRep(address,uint256)":"d0b50def","setUserTaskRep(address,uint8,uint256)":"0ba20ef2","updateQValuesAfterSelection(address[],address[],uint8)":"65ea6e3c","updateReputationsFromChallenge(address,uint8)":"1565fb5c","users(address)":"a87430ba","validJobs(address)":"9cc504a5","validateJob(address)":"c9e3540c"},"id":3}