{"abi":[{"type":"constructor","inputs":[{"name":"_reputationMode","type":"uint8","internalType":"enum ReputationMode"}],"stateMutability":"nonpayable"},{"type":"function","name":"challengeCodeHash","inputs":[],"outputs":[{"name":"","type":"bytes32","internalType":"bytes32"}],"stateMutability":"view"},{"type":"function","name":"getChallengeCodeHash","inputs":[],"outputs":[{"name":"","type":"bytes32","internalType":"bytes32"}],"stateMutability":"view"},{"type":"function","name":"getGrsAndTrsBatch","inputs":[{"name":"userAddresses","type":"address[]","internalType":"address[]"},{"name":"taskType","type":"uint8","internalType":"enum TaskType"}],"outputs":[{"name":"result","type":"tuple[]","internalType":"struct OpenFLManager.TaskSpecificUser[]","components":[{"name":"userAddress","type":"address","internalType":"address"},{"name":"taskRep","type":"uint256","internalType":"uint256"},{"name":"globalIntegrityRep","type":"uint256","internalType":"uint256"},{"name":"totalContribScore","type":"uint128","internalType":"uint128"},{"name":"qValue","type":"uint256","internalType":"uint256"},{"name":"balance","type":"uint256","internalType":"uint256"}]}],"stateMutability":"view"},{"type":"function","name":"getTaskCount","inputs":[{"name":"addr","type":"address","internalType":"address"},{"name":"taskType","type":"uint8","internalType":"enum TaskType"}],"outputs":[{"name":"","type":"uint256","internalType":"uint256"}],"stateMutability":"view"},{"type":"function","name":"getTaskRepCalcState","inputs":[{"name":"addr","type":"address","internalType":"address"},{"name":"taskType","type":"uint8","internalType":"enum TaskType"}],"outputs":[{"name":"runningCMean","type":"uint256","internalType":"uint256"},{"name":"m2","type":"uint256","internalType":"uint256"}],"stateMutability":"view"},{"type":"function","name":"getUserRep","inputs":[{"name":"addr","type":"address","internalType":"address"},{"name":"taskType","type":"uint8","internalType":"enum TaskType"}],"outputs":[{"name":"","type":"uint256","internalType":"uint256"},{"name":"","type":"uint256","internalType":"uint256"},{"name":"","type":"uint256","internalType":"uint256"}],"stateMutability":"view"},{"type":"function","name":"implementation","inputs":[],"outputs":[{"name":"","type":"address","internalType":"address"}],"stateMutability":"view"},{"type":"function","name":"incrementTaskCount","inputs":[{"name":"user","type":"address","internalType":"address"},{"name":"taskType","type":"uint8","internalType":"enum TaskType"}],"outputs":[],"stateMutability":"nonpayable"},{"type":"function","name":"jobListingCodeHash","inputs":[],"outputs":[{"name":"","type":"bytes32","internalType":"bytes32"}],"stateMutability":"view"},{"type":"function","name":"publisher","inputs":[],"outputs":[{"name":"","type":"address","internalType":"address"}],"stateMutability":"view"},{"type":"function","name":"registerJob","inputs":[{"name":"job","type":"address","internalType":"address"}],"outputs":[],"stateMutability":"nonpayable"},{"type":"function","name":"reputationMode","inputs":[],"outputs":[{"name":"","type":"uint8","internalType":"enum ReputationMode"}],"stateMutability":"view"},{"type":"function","name":"setChallengeCodeHash","inputs":[{"name":"_hash","type":"bytes32","internalType":"bytes32"}],"outputs":[],"stateMutability":"nonpayable"},{"type":"function","name":"setJobListingCodeHash","inputs":[{"name":"_hash","type":"bytes32","internalType":"bytes32"}],"outputs":[],"stateMutability":"nonpayable"},{"type":"function","name":"setTaskRepCalcState","inputs":[{"name":"user","type":"address","internalType":"address"},{"name":"taskType","type":"uint8","internalType":"enum TaskType"},{"name":"newRunningCMean","type":"uint256","internalType":"uint256"},{"name":"newM2","type":"uint256","internalType":"uint256"}],"outputs":[],"stateMutability":"nonpayable"},{"type":"function","name":"setUserBalance","inputs":[{"name":"user","type":"address","internalType":"address"},{"name":"value","type":"uint256","internalType":"uint256"}],"outputs":[],"stateMutability":"nonpayable"},{"type":"function","name":"setUserIntegrityRep","inputs":[{"name":"user","type":"address","internalType":"address"},{"name":"newValue","type":"uint256","internalType":"uint256"}],"outputs":[],"stateMutability":"nonpayable"},{"type":"function","name":"setUserTaskRep","inputs":[{"name":"user","type":"address","internalType":"address"},{"name":"taskType","type":"uint8","internalType":"enum TaskType"},{"name":"newValue","type":"uint256","internalType":"uint256"}],"outputs":[],"stateMutability":"nonpayable"},{"type":"function","name":"updateQValuesAfterSelection","inputs":[{"name":"allRegistrants","type":"address[]","internalType":"address[]"},{"name":"selected","type":"address[]","internalType":"address[]"},{"name":"taskType","type":"uint8","internalType":"enum TaskType"}],"outputs":[],"stateMutability":"nonpayable"},{"type":"function","name":"updateReputationsFromChallenge","inputs":[{"name":"challengeAddr","type":"address","internalType":"address"},{"name":"taskType","type":"uint8","internalType":"enum TaskType"}],"outputs":[],"stateMutability":"nonpayable"},{"type":"function","name":"users","inputs":[{"name":"","type":"address","internalType":"address"}],"outputs":[{"name":"GlobalIntegrityRep","type":"uint256","internalType":"uint256"},{"name":"TotalContribScore","type":"uint128","internalType":"uint128"},{"name":"Balance","type":"uint256","internalType":"uint256"}],"stateMutability":"view"},{"type":"function","name":"validJobs","inputs":[{"name":"","type":"address","internalType":"address"}],"outputs":[{"name":"","type":"bool","internalType":"bool"}],"stateMutability":"view"},{"type":"function","name":"validateJob","inputs":[{"name":"job","type":"address","internalType":"address"}],"outputs":[{"name":"","type":"bool","internalType":"bool"}],"stateMutability":"view"},{"type":"event","name":"JobListingValid","inputs":[{"name":"isValid","type":"bool","indexed":false,"internalType":"bool"}],"anonymous":false},{"type":"event","name":"TaskRepCalcStateUpdated","inputs":[{"name":"user","type":"address","indexed":true,"internalType":"address"},{"name":"taskType","type":"uint8","indexed":true,"internalType":"enum TaskType"},{"name":"newRunningCMean","type":"uint256","indexed":false,"internalType":"uint256"},{"name":"newM2","type":"uint256","indexed":false,"internalType":"uint256"}],"anonymous":false},{"type":"event","name":"UserIntegrityRepUpdated","inputs":[{"name":"user","type":"address","indexed":true,"internalType":"address"},{"name":"oldValue","type":"uint256","indexed":false,"internalType":"uint256"},{"name":"newValue","type":"uint256","indexed":false,"internalType":"uint256"}],"anonymous":false},{"type":"event","name":"UserTaskRepUpdated","inputs":[{"name":"user","type":"address","indexed":true,"internalType":"address"},{"name":"taskType","type":"uint8","indexed":true,"internalType":"enum TaskType"},{"name":"oldValue","type":"uint256","indexed":false,"internalType":"uint256"},{"name":"newValue","type":"uint256","indexed":false,"internalType":"uint256"}],"anonymous":false}],"bytecode":{"object":"0x60a06040523480156200001157600080fd5b506040516200198b3803806200198b83398101604081905262000034916200007d565b600580546001600160a01b031916331790558060018111156200005b576200005b620000a7565b6080816001811115620000725762000072620000a7565b8152505050620000bd565b6000602082840312156200009057600080fd5b815160028110620000a057600080fd5b9392505050565b634e487b7160e01b600052602160045260246000fd5b6080516118ab620000e0600039600081816102a7015261122e01526118ab6000f3fe608060405234801561001057600080fd5b506004361061014d5760003560e01c806365ea6e3c116100c3578063a87430ba1161007c578063a87430ba1461032f578063bbbf15071461038d578063c9e3540c146103a0578063cfc151ff146103b7578063d0b50def146103c0578063fe177700146103d357600080fd5b806365ea6e3c146102875780636cc6069f1461029a5780636f69e730146102a25780638c72c54e146102d657806395760db5146102e95780639cc504a5146102fc57600080fd5b8063293253ac11610115578063293253ac146101c95780632c06ca72146101e057806349c839e41461020857806358c67d171461021b5780635a526689146102495780635c60da1b1461025c57600080fd5b80630ba20ef2146101525780631565fb5c146101675780632422b7581461017a57806324d5c6691461018d578063291c734a146101b6575b600080fd5b61016561016036600461129e565b6103e6565b005b6101656101753660046112dc565b61054b565b610165610188366004611311565b610793565b6101a061019b36600461136f565b6107b8565b6040516101ad91906113c3565b60405180910390f35b6101656101c436600461144d565b6109d3565b6101d260045481565b6040519081526020016101ad565b6101f36101ee3660046112dc565b610b29565b604080519283526020830191909152016101ad565b6101656102163660046112dc565b610bf2565b61022e6102293660046112dc565b610cad565b604080519384526020840192909252908201526060016101ad565b6101d26102573660046112dc565b610d6f565b60025461026f906001600160a01b031681565b6040516001600160a01b0390911681526020016101ad565b610165610295366004611491565b610dcd565b6004546101d2565b6102c97f000000000000000000000000000000000000000000000000000000000000000081565b6040516101ad9190611528565b60055461026f906001600160a01b031681565b6101656102f7366004611311565b611098565b61031f61030a366004611550565b60016020526000908152604090205460ff1681565b60405190151581526020016101ad565b61036a61033d366004611550565b60006020819052908152604090206003810154600482015460079092015490916001600160801b03169083565b604080519384526001600160801b039092166020840152908201526060016101ad565b61016561039b366004611550565b6110bd565b61031f6103ae366004611550565b600354903f1490565b6101d260035481565b6101656103ce366004611574565b611121565b6101656103e1366004611574565b6111c5565b3360009081526001602052604090205460ff168061040e57506005546001600160a01b031633145b6104335760405162461bcd60e51b815260040161042a906115a0565b60405180910390fd5b600061043e83611228565b6001600160a01b0385166000908152602081905260408120919250908183600881111561046d5761046d611512565b600881111561047e5761047e611512565b815260200190815260200160002054905082600080876001600160a01b03166001600160a01b0316815260200190815260200160002060000160008460088111156104cb576104cb611512565b60088111156104dc576104dc611512565b81526020810191909152604001600020558160088111156104ff576104ff611512565b60408051838152602081018690526001600160a01b038816917ffa8bf6a1189a270b9a04af9213542b60e843d5838478ba6a4eec637d3674677d91015b60405180910390a35050505050565b6005546001600160a01b031633148061056c5750336001600160a01b038316145b6105a75760405162461bcd60e51b815260206004820152600c60248201526b155b985d5d1a1bdc9a5e995960a21b604482015260640161042a565b60008290506000816001600160a01b03166346834d006040518163ffffffff1660e01b815260040160006040518083038186803b1580156105e757600080fd5b505afa1580156105fb573d6000803e3d6000fd5b505050506040513d6000823e601f3d908101601f191682016040526106239190810190611657565b905060005b815181101561078c57600082828151811061064557610645611752565b6020026020010151905060006001600160a01b031681600001516001600160a01b03161415610674575061077a565b80516001600160a01b031660009081526020818152604082209083015190919082828960088111156106a8576106a8611512565b60088111156106b9576106b9611512565b8152602001908152602001600020546106d2919061177e565b9050600081136106e35760006106e5565b805b8260008960088111156106fa576106fa611512565b600881111561070b5761070b611512565b8152602081019190915260409081016000908120929092558401516003840155606084015160048401805460ff9092169290916107529084906001600160801b03166117bf565b92506101000a8154816001600160801b0302191690836001600160801b031602179055505050505b80610784816117ea565b915050610628565b5050505050565b6005546001600160a01b031633146107a85750565b600354156107b35750565b600355565b60608267ffffffffffffffff8111156107d3576107d36115e7565b60405190808252806020026020018201604052801561084f57816020015b61083c6040518060c0016040528060006001600160a01b03168152602001600081526020016000815260200160006001600160801b0316815260200160008152602001600081525090565b8152602001906001900390816107f15790505b50905060005b838110156109cb57600080600087878581811061087457610874611752565b90506020020160208101906108899190611550565b6001600160a01b03166001600160a01b0316815260200190815260200160002090506040518060c001604052808787858181106108c8576108c8611752565b90506020020160208101906108dd9190611550565b6001600160a01b0316815260200182600087600881111561090057610900611512565b600881111561091157610911611512565b8152602001908152602001600020548152602001826003015481526020018260040160009054906101000a90046001600160801b03166001600160801b0316815260200182600501600087600881111561096d5761096d611512565b600881111561097e5761097e611512565b815260200190815260200160002054815260200182600701548152508383815181106109ac576109ac611752565b60200260200101819052505080806109c3906117ea565b915050610855565b509392505050565b3360009081526001602052604090205460ff16806109fb57506005546001600160a01b031633145b610a175760405162461bcd60e51b815260040161042a906115a0565b6000610a2284611228565b6001600160a01b0386166000908152602081905260408120919250849160010190836008811115610a5557610a55611512565b6008811115610a6657610a66611512565b81526020019081526020016000208190555081600080876001600160a01b03166001600160a01b031681526020019081526020016000206002016000836008811115610ab457610ab4611512565b6008811115610ac557610ac5611512565b8152602081019190915260400160002055806008811115610ae857610ae8611512565b60408051858152602081018590526001600160a01b038816917f91a2acb60e3df6295524b6f0cb565d7a66ca343b8bc2449e87c1c1c006c03e59910161053c565b6000806000610b3784611228565b6001600160a01b0386166000908152602081905260408120919250600190910190826008811115610b6a57610b6a611512565b6008811115610b7b57610b7b611512565b815260200190815260200160002054600080876001600160a01b03166001600160a01b031681526020019081526020016000206002016000836008811115610bc557610bc5611512565b6008811115610bd657610bd6611512565b81526020019081526020016000205492509250505b9250929050565b3360009081526001602052604090205460ff1680610c1a57506005546001600160a01b031633145b610c365760405162461bcd60e51b815260040161042a906115a0565b6000610c4182611228565b6001600160a01b038416600090815260208190526040812091925060019160060190836008811115610c7557610c75611512565b6008811115610c8657610c86611512565b81526020019081526020016000206000828254610ca39190611805565b9091555050505050565b600080600080610cbc85611228565b6001600160a01b0387166000908152602081905260408120919250826008811115610ce957610ce9611512565b6008811115610cfa57610cfa611512565b815260208082019290925260409081016000908120546001600160a01b038a16825292819052908120600381015491600590910190846008811115610d4157610d41611512565b6008811115610d5257610d52611512565b815260200190815260200160002054935093509350509250925092565b6001600160a01b038216600090815260208190526040812060060181610d9484611228565b6008811115610da557610da5611512565b6008811115610db657610db6611512565b815260200190815260200160002054905092915050565b6005546001600160a01b0316331480610df557503360009081526001602052604090205460ff165b610e305760405162461bcd60e51b815260206004820152600c60248201526b155b985d5d1a1bdc9a5e995960a21b604482015260640161042a565b8380610e3c575061078c565b82600082610e52670de0b6b3a76400008461181d565b610e5c919061183c565b9050600660005b83811015610ed15760018260008a8a85818110610e8257610e82611752565b9050602002016020810190610e979190611550565b6001600160a01b031681526020810191909152604001600020805460ff191691151591909117905580610ec9816117ea565b915050610e63565b5060005b848110156110235760008a8a83818110610ef157610ef1611752565b9050602002016020810190610f069190611550565b6001600160a01b03811660009081526020819052604081209192509060050181896008811115610f3857610f38611512565b6008811115610f4957610f49611512565b815260200190815260200160002054905060008582610f689190611805565b6001600160a01b03841660009081526020879052604090205490915060ff1615610fb857670de0b6b3a7640000811015610fa3576000610fb5565b610fb5670de0b6b3a76400008261185e565b90505b6001600160a01b038316600090815260208190526040812082916005909101908b6008811115610fea57610fea611512565b6008811115610ffb57610ffb611512565b815260200190815260200160002081905550505050808061101b906117ea565b915050610ed5565b5060005b8381101561108c5781600089898481811061104457611044611752565b90506020020160208101906110599190611550565b6001600160a01b031681526020810191909152604001600020805460ff1916905580611084816117ea565b915050611027565b50505050505050505050565b6005546001600160a01b031633146110ad5750565b600454156110b85750565b600455565b6003546001600160a01b038216600090815260016020908152604091829020805460ff1916853f9094149384179055815183815291517ff598a72f02ccbeb49afb9272f8d521871b23b8f757ea5ea4209c14b5ac1517dc9281900390910190a15050565b3360009081526001602052604090205460ff168061114957506005546001600160a01b031633145b6111655760405162461bcd60e51b815260040161042a906115a0565b6001600160a01b03821660008181526020818152604091829020600301805490859055825181815291820185905292917fad2c7829dbe13f346f4cb2c470914c5f24d81da14fcd69296287a1949d8ecf10910160405180910390a2505050565b3360009081526001602052604090205460ff16806111ed57506005546001600160a01b031633145b6112095760405162461bcd60e51b815260040161042a906115a0565b6001600160a01b03909116600090815260208190526040902060070155565b600060017f0000000000000000000000000000000000000000000000000000000000000000600181111561125e5761125e611512565b14611269578161126c565b60005b92915050565b6001600160a01b038116811461128757600080fd5b50565b80356009811061129957600080fd5b919050565b6000806000606084860312156112b357600080fd5b83356112be81611272565b92506112cc6020850161128a565b9150604084013590509250925092565b600080604083850312156112ef57600080fd5b82356112fa81611272565b91506113086020840161128a565b90509250929050565b60006020828403121561132357600080fd5b5035919050565b60008083601f84011261133c57600080fd5b50813567ffffffffffffffff81111561135457600080fd5b6020830191508360208260051b8501011115610beb57600080fd5b60008060006040848603121561138457600080fd5b833567ffffffffffffffff81111561139b57600080fd5b6113a78682870161132a565b90945092506113ba90506020850161128a565b90509250925092565b602080825282518282018190526000919060409081850190868401855b8281101561144057815180516001600160a01b03168552868101518786015285810151868601526060808201516001600160801b0316908601526080808201519086015260a0908101519085015260c090930192908501906001016113e0565b5091979650505050505050565b6000806000806080858703121561146357600080fd5b843561146e81611272565b935061147c6020860161128a565b93969395505050506040820135916060013590565b6000806000806000606086880312156114a957600080fd5b853567ffffffffffffffff808211156114c157600080fd5b6114cd89838a0161132a565b909750955060208801359150808211156114e657600080fd5b506114f38882890161132a565b909450925061150690506040870161128a565b90509295509295909350565b634e487b7160e01b600052602160045260246000fd5b602081016002831061154a57634e487b7160e01b600052602160045260246000fd5b91905290565b60006020828403121561156257600080fd5b813561156d81611272565b9392505050565b6000806040838503121561158757600080fd5b823561159281611272565b946020939093013593505050565b60208082526027908201527f4f464c4d3a2063616c6c6572206e6f742076616c6964206a6f62206f72207075604082015266313634b9b432b960c91b606082015260800190565b634e487b7160e01b600052604160045260246000fd5b6040516080810167ffffffffffffffff81118282101715611620576116206115e7565b60405290565b604051601f8201601f1916810167ffffffffffffffff8111828210171561164f5761164f6115e7565b604052919050565b6000602080838503121561166a57600080fd5b825167ffffffffffffffff8082111561168257600080fd5b818501915085601f83011261169657600080fd5b8151818111156116a8576116a86115e7565b6116b6848260051b01611626565b818152848101925060079190911b8301840190878211156116d657600080fd5b928401925b8184101561174757608084890312156116f45760008081fd5b6116fc6115fd565b845161170781611272565b815284860151868201526040808601519082015260608086015160ff811681146117315760008081fd5b90820152835260809390930192918401916116db565b979650505050505050565b634e487b7160e01b600052603260045260246000fd5b634e487b7160e01b600052601160045260246000fd5b600080821280156001600160ff1b03849003851316156117a0576117a0611768565b600160ff1b83900384128116156117b9576117b9611768565b50500190565b60006001600160801b038083168185168083038211156117e1576117e1611768565b01949350505050565b60006000198214156117fe576117fe611768565b5060010190565b6000821982111561181857611818611768565b500190565b600081600019048311821515161561183757611837611768565b500290565b60008261185957634e487b7160e01b600052601260045260246000fd5b500490565b60008282101561187057611870611768565b50039056fea2646970667358221220566462adb79b152cfcee460fa0da98d422e4d2402171a3e8cf0929a2e025492f64736f6c63430008090033","linkReferences":{}},"methodIdentifiers":{"challengeCodeHash()":"293253ac","getChallengeCodeHash()":"6cc6069f","getGrsAndTrsBatch(address[],uint8)":"24d5c669","getTaskCount(address,uint8)":"5a526689","getTaskRepCalcState(address,uint8)":"2c06ca72","getUserRep(address,uint8)":"58c67d17","implementation()":"5c60da1b","incrementTaskCount(address,uint8)":"49c839e4","jobListingCodeHash()":"cfc151ff","publisher()":"8c72c54e","registerJob(address)":"bbbf1507","reputationMode()":"6f69e730","setChallengeCodeHash(bytes32)":"95760db5","setJobListingCodeHash(bytes32)":"2422b758","setTaskRepCalcState(address,uint8,uint256,uint256)":"291c734a","setUserBalance(address,uint256)":"fe177700","setUserIntegrityRep(address,uint256)":"d0b50def","setUserTaskRep(address,uint8,uint256)":"0ba20ef2","updateQValuesAfterSelection(address[],address[],uint8)":"65ea6e3c","updateReputationsFromChallenge(address,uint8)":"1565fb5c","users(address)":"a87430ba","validJobs(address)":"9cc504a5","validateJob(address)":"c9e3540c"},"id":3}