{"abi":[{"type":"constructor","inputs":[{"name":"_reputationMode","type":"uint8","internalType":"enum ReputationMode"}],"stateMutability":"nonpayable"},{"type":"function","name":"applyPrecomputedTaskReps","inputs":[{"name":"records","type":"tuple[]","internalType":"struct TaskRepRecord[]","components":[{"name":"user","type":"address","internalType":"address"},{"name":"newTaskRep","type":"uint256","internalType":"uint256"},{"name":"newRunningCMean","type":"uint256","internalType":"uint256"},{"name":"newM2","type":"uint256","internalType":"uint256"},{"name":"newIntegrityRep","type":"uint256","internalType":"uint256"},{"name":"applyGIR","type":"bool","internalType":"bool"}]},{"name":"taskType","type":"uint8","internalType":"enum TaskType"}],"outputs":[],"stateMutability":"nonpayable"},{"type":"function","name":"challengeCodeHash","inputs":[],"outputs":[{"name":"","type":"bytes32","internalType":"bytes32"}],"stateMutability":"view"},{"type":"function","name":"getChallengeCodeHash","inputs":[],"outputs":[{"name":"","type":"bytes32","internalType":"bytes32"}],"stateMutability":"view"},{"type":"function","name":"getGrsAndTrsBatch","inputs":[{"name":"userAddresses","type":"address[]","internalType":"address[]"},{"name":"taskType","type":"uint8","internalType":"enum TaskType"}],"outputs":[{"name":"result","type":"tuple[]","internalType":"struct OpenFLManager.TaskSpecificUser[]","components":[{"name":"userAddress","type":"address","internalType":"address"},{"name":"taskRep","type":"uint256","internalType":"uint256"},{"name":"globalIntegrityRep","type":"uint256","internalType":"uint256"},{"name":"totalContribScore","type":"uint128","internalType":"uint128"},{"name":"qValue","type":"uint256","internalType":"uint256"},{"name":"balance","type":"uint256","internalType":"uint256"},{"name":"taskCount","type":"uint256","internalType":"uint256"}]}],"stateMutability":"view"},{"type":"function","name":"getTaskCount","inputs":[{"name":"addr","type":"address","internalType":"address"},{"name":"taskType","type":"uint8","internalType":"enum TaskType"}],"outputs":[{"name":"","type":"uint256","internalType":"uint256"}],"stateMutability":"view"},{"type":"function","name":"getTaskRepCalcState","inputs":[{"name":"addr","type":"address","internalType":"address"},{"name":"taskType","type":"uint8","internalType":"enum TaskType"}],"outputs":[{"name":"runningCMean","type":"uint256","internalType":"uint256"},{"name":"m2","type":"uint256","internalType":"uint256"}],"stateMutability":"view"},{"type":"function","name":"getTaskTypeNames","inputs":[],"outputs":[{"name":"names","type":"string[]","internalType":"string[]"}],"stateMutability":"pure"},{"type":"function","name":"getUser","inputs":[{"name":"addr","type":"address","internalType":"address"},{"name":"taskType","type":"uint8","internalType":"enum TaskType"}],"outputs":[{"name":"","type":"tuple","internalType":"struct OpenFLManager.TaskSpecificUser","components":[{"name":"userAddress","type":"address","internalType":"address"},{"name":"taskRep","type":"uint256","internalType":"uint256"},{"name":"globalIntegrityRep","type":"uint256","internalType":"uint256"},{"name":"totalContribScore","type":"uint128","internalType":"uint128"},{"name":"qValue","type":"uint256","internalType":"uint256"},{"name":"balance","type":"uint256","internalType":"uint256"},{"name":"taskCount","type":"uint256","internalType":"uint256"}]}],"stateMutability":"view"},{"type":"function","name":"getUserAllTaskTypes","inputs":[{"name":"addr","type":"address","internalType":"address"}],"outputs":[{"name":"result","type":"tuple[]","internalType":"struct OpenFLManager.TaskSpecificUser[]","components":[{"name":"userAddress","type":"address","internalType":"address"},{"name":"taskRep","type":"uint256","internalType":"uint256"},{"name":"globalIntegrityRep","type":"uint256","internalType":"uint256"},{"name":"totalContribScore","type":"uint128","internalType":"uint128"},{"name":"qValue","type":"uint256","internalType":"uint256"},{"name":"balance","type":"uint256","internalType":"uint256"},{"name":"taskCount","type":"uint256","internalType":"uint256"}]}],"stateMutability":"view"},{"type":"function","name":"getUserRep","inputs":[{"name":"addr","type":"address","internalType":"address"},{"name":"taskType","type":"uint8","internalType":"enum TaskType"}],"outputs":[{"name":"","type":"uint256","internalType":"uint256"},{"name":"","type":"uint256","internalType":"uint256"},{"name":"","type":"uint256","internalType":"uint256"}],"stateMutability":"view"},{"type":"function","name":"getUsersBatch","inputs":[{"name":"addrs","type":"address[]","internalType":"address[]"},{"name":"taskType","type":"uint8","internalType":"enum TaskType"}],"outputs":[{"name":"result","type":"tuple[]","internalType":"struct OpenFLManager.TaskSpecificUser[]","components":[{"name":"userAddress","type":"address","internalType":"address"},{"name":"taskRep","type":"uint256","internalType":"uint256"},{"name":"globalIntegrityRep","type":"uint256","internalType":"uint256"},{"name":"totalContribScore","type":"uint128","internalType":"uint128"},{"name":"qValue","type":"uint256","internalType":"uint256"},{"name":"balance","type":"uint256","internalType":"uint256"},{"name":"taskCount","type":"uint256","internalType":"uint256"}]}],"stateMutability":"view"},{"type":"function","name":"implementation","inputs":[],"outputs":[{"name":"","type":"address","internalType":"address"}],"stateMutability":"view"},{"type":"function","name":"incrementTaskCount","inputs":[{"name":"user","type":"address","internalType":"address"},{"name":"taskType","type":"uint8","internalType":"enum TaskType"}],"outputs":[],"stateMutability":"nonpayable"},{"type":"function","name":"jobListingCodeHash","inputs":[],"outputs":[{"name":"","type":"bytes32","internalType":"bytes32"}],"stateMutability":"view"},{"type":"function","name":"publisher","inputs":[],"outputs":[{"name":"","type":"address","internalType":"address"}],"stateMutability":"view"},{"type":"function","name":"registerJob","inputs":[{"name":"job","type":"address","internalType":"address"}],"outputs":[],"stateMutability":"nonpayable"},{"type":"function","name":"reputationMode","inputs":[],"outputs":[{"name":"","type":"uint8","internalType":"enum ReputationMode"}],"stateMutability":"view"},{"type":"function","name":"setChallengeCodeHash","inputs":[{"name":"_hash","type":"bytes32","internalType":"bytes32"}],"outputs":[],"stateMutability":"nonpayable"},{"type":"function","name":"setJobListingCodeHash","inputs":[{"name":"_hash","type":"bytes32","internalType":"bytes32"}],"outputs":[],"stateMutability":"nonpayable"},{"type":"function","name":"setTaskRepCalcState","inputs":[{"name":"user","type":"address","internalType":"address"},{"name":"taskType","type":"uint8","internalType":"enum TaskType"},{"name":"newRunningCMean","type":"uint256","internalType":"uint256"},{"name":"newM2","type":"uint256","internalType":"uint256"}],"outputs":[],"stateMutability":"nonpayable"},{"type":"function","name":"setUserBalance","inputs":[{"name":"user","type":"address","internalType":"address"},{"name":"value","type":"uint256","internalType":"uint256"}],"outputs":[],"stateMutability":"nonpayable"},{"type":"function","name":"setUserIntegrityRep","inputs":[{"name":"user","type":"address","internalType":"address"},{"name":"newValue","type":"uint256","internalType":"uint256"}],"outputs":[],"stateMutability":"nonpayable"},{"type":"function","name":"setUserTaskRep","inputs":[{"name":"user","type":"address","internalType":"address"},{"name":"taskType","type":"uint8","internalType":"enum TaskType"},{"name":"newValue","type":"uint256","internalType":"uint256"}],"outputs":[],"stateMutability":"nonpayable"},{"type":"function","name":"updateQValuesAfterSelection","inputs":[{"name":"allRegistrants","type":"address[]","internalType":"address[]"},{"name":"selected","type":"address[]","internalType":"address[]"},{"name":"taskType","type":"uint8","internalType":"enum TaskType"}],"outputs":[],"stateMutability":"nonpayable"},{"type":"function","name":"updateReputationsFromChallenge","inputs":[{"name":"challengeAddr","type":"address","internalType":"address"},{"name":"taskType","type":"uint8","internalType":"enum TaskType"}],"outputs":[],"stateMutability":"nonpayable"},{"type":"function","name":"users","inputs":[{"name":"","type":"address","internalType":"address"}],"outputs":[{"name":"GlobalIntegrityRep","type":"uint256","internalType":"uint256"},{"name":"TotalContribScore","type":"uint128","internalType":"uint128"},{"name":"Balance","type":"uint256","internalType":"uint256"}],"stateMutability":"view"},{"type":"function","name":"validJobs","inputs":[{"name":"","type":"address","internalType":"address"}],"outputs":[{"name":"","type":"bool","internalType":"bool"}],"stateMutability":"view"},{"type":"function","name":"validateJob","inputs":[{"name":"job","type":"address","internalType":"address"}],"outputs":[{"name":"","type":"bool","internalType":"bool"}],"stateMutability":"view"},{"type":"event","name":"JobListingValid","inputs":[{"name":"isValid","type":"bool","indexed":false,"internalType":"bool"}],"anonymous":false},{"type":"event","name":"TaskRepCalcStateUpdated","inputs":[{"name":"user","type":"address","indexed":true,"internalType":"address"},{"name":"taskType","type":"uint8","indexed":true,"internalType":"enum TaskType"},{"name":"newRunningCMean","type":"uint256","indexed":false,"internalType":"uint256"},{"name":"newM2","type":"uint256","indexed":false,"internalType":"uint256"}],"anonymous":false},{"type":"event","name":"UserIntegrityRepUpdated","inputs":[{"name":"user","type":"address","indexed":true,"internalType":"address"},{"name":"oldValue","type":"uint256","indexed":false,"internalType":"uint256"},{"name":"newValue","type":"uint256","indexed":false,"internalType":"uint256"}],"anonymous":false},{"type":"event","name":"UserTaskRepUpdated","inputs":[{"name":"user","type":"address","indexed":true,"internalType":"address"},{"name":"taskType","type":"uint8","indexed":true,"internalType":"enum TaskType"},{"name":"oldValue","type":"uint256","indexed":false,"internalType":"uint256"},{"name":"newValue","type":"uint256","indexed":false,"internalType":"uint256"}],"anonymous":false}],"bytecode":{"object":"0x60a06040523480156200001157600080fd5b50604051620023e9380380620023e983398101604081905262000034916200007d565b600580546001600160a01b031916331790558060018111156200005b576200005b620000a7565b6080816001811115620000725762000072620000a7565b8152505050620000bd565b6000602082840312156200009057600080fd5b815160028110620000a057600080fd5b9392505050565b634e487b7160e01b600052602160045260246000fd5b608051612309620000e0600039600081816103590152611a8001526123096000f3fe608060405234801561001057600080fd5b50600436106101c45760003560e01c806365ea6e3c116100f9578063a87430ba11610097578063cfc151ff11610071578063cfc151ff1461047c578063d0b50def14610485578063f989d87a14610498578063fe177700146104b857600080fd5b8063a87430ba146103f4578063bbbf150714610452578063c9e3540c1461046557600080fd5b80637047c5f3116100d35780637047c5f3146103885780638c72c54e1461039b57806395760db5146103ae5780639cc504a5146103c157600080fd5b806365ea6e3c146103395780636cc6069f1461034c5780636f69e7301461035457600080fd5b80632c06ca721161016657806349c839e41161014057806349c839e4146102ba57806358c67d17146102cd5780635a526689146102fb5780635c60da1b1461030e57600080fd5b80632c06ca721461026a578063329afc691461029257806337ebf7a9146102a757600080fd5b806324d5c669116101a257806324d5c669146102045780632681f6af1461022d578063291c734a14610240578063293253ac1461025357600080fd5b80630ba20ef2146101c95780631565fb5c146101de5780632422b758146101f1575b600080fd5b6101dc6101d7366004611b5a565b6104cb565b005b6101dc6101ec366004611b98565b610630565b6101dc6101ff366004611bcd565b610878565b610217610212366004611c2b565b61089d565b6040516102249190611cd2565b60405180910390f35b6101dc61023b366004611d20565b610967565b6101dc61024e366004611d9b565b610d06565b61025c60045481565b604051908152602001610224565b61027d610278366004611b98565b610e5c565b60408051928352602083019190915201610224565b61029a610f25565b6040516102249190611ddf565b6102176102b5366004611c2b565b6111c5565b6101dc6102c8366004611b98565b61126c565b6102e06102db366004611b98565b611327565b60408051938452602084019290925290820152606001610224565b61025c610309366004611b98565b6113e9565b600254610321906001600160a01b031681565b6040516001600160a01b039091168152602001610224565b6101dc610347366004611e7a565b611448565b60045461025c565b61037b7f000000000000000000000000000000000000000000000000000000000000000081565b6040516102249190611f11565b610217610396366004611f39565b611713565b600554610321906001600160a01b031681565b6101dc6103bc366004611bcd565b6117b4565b6103e46103cf366004611f39565b60016020526000908152604090205460ff1681565b6040519015158152602001610224565b61042f610402366004611f39565b60006020819052908152604090206003810154600482015460079092015490916001600160801b03169083565b604080519384526001600160801b03909216602084015290820152606001610224565b6101dc610460366004611f39565b6117d9565b6103e4610473366004611f39565b600354903f1490565b61025c60035481565b6101dc610493366004611f5d565b61183d565b6104ab6104a6366004611b98565b6118e1565b6040516102249190611f89565b6101dc6104c6366004611f5d565b611a17565b3360009081526001602052604090205460ff16806104f357506005546001600160a01b031633145b6105185760405162461bcd60e51b815260040161050f90611f97565b60405180910390fd5b600061052383611a7a565b6001600160a01b0385166000908152602081905260408120919250908183600881111561055257610552611efb565b600881111561056357610563611efb565b815260200190815260200160002054905082600080876001600160a01b03166001600160a01b0316815260200190815260200160002060000160008460088111156105b0576105b0611efb565b60088111156105c1576105c1611efb565b81526020810191909152604001600020558160088111156105e4576105e4611efb565b60408051838152602081018690526001600160a01b038816917ffa8bf6a1189a270b9a04af9213542b60e843d5838478ba6a4eec637d3674677d91015b60405180910390a35050505050565b6005546001600160a01b03163314806106515750336001600160a01b038316145b61068c5760405162461bcd60e51b815260206004820152600c60248201526b155b985d5d1a1bdc9a5e995960a21b604482015260640161050f565b60008290506000816001600160a01b03166346834d006040518163ffffffff1660e01b815260040160006040518083038186803b1580156106cc57600080fd5b505afa1580156106e0573d6000803e3d6000fd5b505050506040513d6000823e601f3d908101601f19168201604052610708919081019061204e565b905060005b815181101561087157600082828151811061072a5761072a612149565b6020026020010151905060006001600160a01b031681600001516001600160a01b03161415610759575061085f565b80516001600160a01b0316600090815260208181526040822090830151909190828289600881111561078d5761078d611efb565b600881111561079e5761079e611efb565b8152602001908152602001600020546107b79190612175565b9050600081136107c85760006107ca565b805b8260008960088111156107df576107df611efb565b60088111156107f0576107f0611efb565b8152602081019190915260409081016000908120929092558401516003840155606084015160048401805460ff9092169290916108379084906001600160801b03166121b6565b92506101000a8154816001600160801b0302191690836001600160801b031602179055505050505b80610869816121e1565b91505061070d565b5050505050565b6005546001600160a01b0316331461088d5750565b600354156108985750565b600355565b60608267ffffffffffffffff8111156108b8576108b8611fde565b6040519080825280602002602001820160405280156108f157816020015b6108de611adf565b8152602001906001900390816108d65790505b50905060005b8381101561095f5761092f85858381811061091457610914612149565b90506020020160208101906109299190611f39565b846118e1565b82828151811061094157610941612149565b60200260200101819052508080610957906121e1565b9150506108f7565b509392505050565b6005546001600160a01b0316331480610984575061098433611ac3565b6109c55760405162461bcd60e51b815260206004820152601260248201527113d193134e881d5b985d5d1a1bdc9a5e995960721b604482015260640161050f565b60006109d082611a7a565b905060005b8381101561087157368585838181106109f0576109f0612149565b60c00291909101915060009050610a0a6020830183611f39565b6001600160a01b03161415610a1f5750610cf4565b60008080610a306020850185611f39565b6001600160a01b031681526020810191909152604001600090812091508181866008811115610a6157610a61611efb565b6008811115610a7257610a72611efb565b81526020019081526020016000205490508260200135826000016000876008811115610aa057610aa0611efb565b6008811115610ab157610ab1611efb565b8152602081019190915260400160002055846008811115610ad457610ad4611efb565b610ae16020850185611f39565b6001600160a01b03167ffa8bf6a1189a270b9a04af9213542b60e843d5838478ba6a4eec637d3674677d838660200135604051610b28929190918252602082015260400190565b60405180910390a38260400135826001016000876008811115610b4d57610b4d611efb565b6008811115610b5e57610b5e611efb565b8152602001908152602001600020819055508260600135826002016000876008811115610b8d57610b8d611efb565b6008811115610b9e57610b9e611efb565b8152602081019190915260400160002055846008811115610bc157610bc1611efb565b610bce6020850185611f39565b6001600160a01b03167f91a2acb60e3df6295524b6f0cb565d7a66ca343b8bc2449e87c1c1c006c03e5985604001358660600135604051610c19929190918252602082015260400190565b60405180910390a36001826006016000876008811115610c3b57610c3b611efb565b6008811115610c4c57610c4c611efb565b81526020019081526020016000206000828254610c6991906121fc565b90915550610c7f905060c0840160a08501612214565b15610cf0576003820180546080850135909155610c9f6020850185611f39565b6001600160a01b03167fad2c7829dbe13f346f4cb2c470914c5f24d81da14fcd69296287a1949d8ecf10828660800135604051610ce6929190918252602082015260400190565b60405180910390a2505b5050505b80610cfe816121e1565b9150506109d5565b3360009081526001602052604090205460ff1680610d2e57506005546001600160a01b031633145b610d4a5760405162461bcd60e51b815260040161050f90611f97565b6000610d5584611a7a565b6001600160a01b0386166000908152602081905260408120919250849160010190836008811115610d8857610d88611efb565b6008811115610d9957610d99611efb565b81526020019081526020016000208190555081600080876001600160a01b03166001600160a01b031681526020019081526020016000206002016000836008811115610de757610de7611efb565b6008811115610df857610df8611efb565b8152602081019190915260400160002055806008811115610e1b57610e1b611efb565b60408051858152602081018590526001600160a01b038816917f91a2acb60e3df6295524b6f0cb565d7a66ca343b8bc2449e87c1c1c006c03e599101610621565b6000806000610e6a84611a7a565b6001600160a01b0386166000908152602081905260408120919250600190910190826008811115610e9d57610e9d611efb565b6008811115610eae57610eae611efb565b815260200190815260200160002054600080876001600160a01b03166001600160a01b031681526020019081526020016000206002016000836008811115610ef857610ef8611efb565b6008811115610f0957610f09611efb565b81526020019081526020016000205492509250505b9250929050565b6060610f3360086001612236565b60ff1667ffffffffffffffff811115610f4e57610f4e611fde565b604051908082528060200260200182016040528015610f8157816020015b6060815260200190600190039081610f6c5790505b5090506040518060400160405280600881526020016774656d706c61746560c01b81525081600081518110610fb857610fb8612149565b602002602001018190525060405180604001604052806006815260200165496d6167657360d01b81525081600181518110610ff557610ff5612149565b6020026020010181905250604051806040016040528060088152602001674c616e677561676560c01b8152508160028151811061103457611034612149565b60200260200101819052506040518060400160405280600f81526020016e496d616765735f636c6f7468696e6760881b8152508160038151811061107a5761107a612149565b60200260200101819052506040518060400160405280600e81526020016d496d616765735f6f626a6563747360901b815250816004815181106110bf576110bf612149565b60200260200101819052506040518060400160405280600581526020016413539254d560da1b815250816005815181106110fb576110fb612149565b6020026020010181905250604051806040016040528060078152602001660434946415231360cc1b8152508160068151811061113957611139612149565b60200260200101819052506040518060400160405280600c81526020016b11985cda1a5bdb93539254d560a21b8152508160078151811061117c5761117c612149565b60200260200101819052506040518060400160405280600481526020016324a6a22160e11b815250816008815181106111b7576111b7612149565b602002602001018190525090565b60608267ffffffffffffffff8111156111e0576111e0611fde565b60405190808252806020026020018201604052801561121957816020015b611206611adf565b8152602001906001900390816111fe5790505b50905060005b8381101561095f5761123c85858381811061091457610914612149565b82828151811061124e5761124e612149565b60200260200101819052508080611264906121e1565b91505061121f565b3360009081526001602052604090205460ff168061129457506005546001600160a01b031633145b6112b05760405162461bcd60e51b815260040161050f90611f97565b60006112bb82611a7a565b6001600160a01b0384166000908152602081905260408120919250600191600601908360088111156112ef576112ef611efb565b600881111561130057611300611efb565b8152602001908152602001600020600082825461131d91906121fc565b9091555050505050565b60008060008061133685611a7a565b6001600160a01b038716600090815260208190526040812091925082600881111561136357611363611efb565b600881111561137457611374611efb565b815260208082019290925260409081016000908120546001600160a01b038a168252928190529081206003810154916005909101908460088111156113bb576113bb611efb565b60088111156113cc576113cc611efb565b815260200190815260200160002054935093509350509250925092565b6001600160a01b03821660009081526020819052604081206006018161140e84611a7a565b600881111561141f5761141f611efb565b600881111561143057611430611efb565b81526020019081526020016000205490505b92915050565b6005546001600160a01b031633148061147057503360009081526001602052604090205460ff165b6114ab5760405162461bcd60e51b815260206004820152600c60248201526b155b985d5d1a1bdc9a5e995960a21b604482015260640161050f565b83806114b75750610871565b826000826114cd670de0b6b3a76400008461225b565b6114d7919061227a565b9050600660005b8381101561154c5760018260008a8a858181106114fd576114fd612149565b90506020020160208101906115129190611f39565b6001600160a01b031681526020810191909152604001600020805460ff191691151591909117905580611544816121e1565b9150506114de565b5060005b8481101561169e5760008a8a8381811061156c5761156c612149565b90506020020160208101906115819190611f39565b6001600160a01b038116600090815260208190526040812091925090600501818960088111156115b3576115b3611efb565b60088111156115c4576115c4611efb565b8152602001908152602001600020549050600085826115e391906121fc565b6001600160a01b03841660009081526020879052604090205490915060ff161561163357670de0b6b3a764000081101561161e576000611630565b611630670de0b6b3a76400008261229c565b90505b6001600160a01b038316600090815260208190526040812082916005909101908b600881111561166557611665611efb565b600881111561167657611676611efb565b8152602001908152602001600020819055505050508080611696906121e1565b915050611550565b5060005b83811015611707578160008989848181106116bf576116bf612149565b90506020020160208101906116d49190611f39565b6001600160a01b031681526020810191909152604001600020805460ff19169055806116ff816121e1565b9150506116a2565b50505050505050505050565b6040805160088082526101208201909252606091816020015b611734611adf565b81526020019060019003908161172c57905050905060005b600860ff821610156117ae5761177b83611767836001612236565b60ff1660088111156104a6576104a6611efb565b828260ff168151811061179057611790612149565b602002602001018190525080806117a6906122b3565b91505061174c565b50919050565b6005546001600160a01b031633146117c95750565b600454156117d45750565b600455565b6003546001600160a01b038216600090815260016020908152604091829020805460ff1916853f9094149384179055815183815291517ff598a72f02ccbeb49afb9272f8d521871b23b8f757ea5ea4209c14b5ac1517dc9281900390910190a15050565b3360009081526001602052604090205460ff168061186557506005546001600160a01b031633145b6118815760405162461bcd60e51b815260040161050f90611f97565b6001600160a01b03821660008181526020818152604091829020600301805490859055825181815291820185905292917fad2c7829dbe13f346f4cb2c470914c5f24d81da14fcd69296287a1949d8ecf10910160405180910390a2505050565b6118e9611adf565b60006118f483611a7a565b6001600160a01b038516600081815260208181526040808320815160e08101909252938152939450919291820190839085600881111561193657611936611efb565b600881111561194757611947611efb565b8152602001908152602001600020548152602001826003015481526020018260040160009054906101000a90046001600160801b03166001600160801b031681526020018260050160008560088111156119a3576119a3611efb565b60088111156119b4576119b4611efb565b8152602001908152602001600020548152602001826007015481526020018260060160008560088111156119ea576119ea611efb565b60088111156119fb576119fb611efb565b8152602001908152602001600020548152509250505092915050565b3360009081526001602052604090205460ff1680611a3f57506005546001600160a01b031633145b611a5b5760405162461bcd60e51b815260040161050f90611f97565b6001600160a01b03909116600090815260208190526040902060070155565b600060017f00000000000000000000000000000000000000000000000000000000000000006001811115611ab057611ab0611efb565b14611abb5781611442565b600092915050565b600454600090611ad557506000919050565b50600454903f1490565b6040518060e0016040528060006001600160a01b03168152602001600081526020016000815260200160006001600160801b031681526020016000815260200160008152602001600081525090565b6001600160a01b0381168114611b4357600080fd5b50565b803560098110611b5557600080fd5b919050565b600080600060608486031215611b6f57600080fd5b8335611b7a81611b2e565b9250611b8860208501611b46565b9150604084013590509250925092565b60008060408385031215611bab57600080fd5b8235611bb681611b2e565b9150611bc460208401611b46565b90509250929050565b600060208284031215611bdf57600080fd5b5035919050565b60008083601f840112611bf857600080fd5b50813567ffffffffffffffff811115611c1057600080fd5b6020830191508360208260051b8501011115610f1e57600080fd5b600080600060408486031215611c4057600080fd5b833567ffffffffffffffff811115611c5757600080fd5b611c6386828701611be6565b9094509250611c76905060208501611b46565b90509250925092565b80516001600160a01b0316825260208082015190830152604080820151908301526060808201516001600160801b0316908301526080808201519083015260a0818101519083015260c090810151910152565b6020808252825182820181905260009190848201906040850190845b81811015611d1457611d01838551611c7f565b9284019260e09290920191600101611cee565b50909695505050505050565b600080600060408486031215611d3557600080fd5b833567ffffffffffffffff80821115611d4d57600080fd5b818601915086601f830112611d6157600080fd5b813581811115611d7057600080fd5b87602060c083028501011115611d8557600080fd5b602092830195509350611c769186019050611b46565b60008060008060808587031215611db157600080fd5b8435611dbc81611b2e565b9350611dca60208601611b46565b93969395505050506040820135916060013590565b6000602080830181845280855180835260408601915060408160051b87010192508387016000805b83811015611e6c57888603603f1901855282518051808852835b81811015611e3c578281018a01518982018b01528901611e21565b81811115611e4c57848a838b0101525b50601f01601f191696909601870195509386019391860191600101611e07565b509398975050505050505050565b600080600080600060608688031215611e9257600080fd5b853567ffffffffffffffff80821115611eaa57600080fd5b611eb689838a01611be6565b90975095506020880135915080821115611ecf57600080fd5b50611edc88828901611be6565b9094509250611eef905060408701611b46565b90509295509295909350565b634e487b7160e01b600052602160045260246000fd5b6020810160028310611f3357634e487b7160e01b600052602160045260246000fd5b91905290565b600060208284031215611f4b57600080fd5b8135611f5681611b2e565b9392505050565b60008060408385031215611f7057600080fd5b8235611f7b81611b2e565b946020939093013593505050565b60e081016114428284611c7f565b60208082526027908201527f4f464c4d3a2063616c6c6572206e6f742076616c6964206a6f62206f72207075604082015266313634b9b432b960c91b606082015260800190565b634e487b7160e01b600052604160045260246000fd5b6040516080810167ffffffffffffffff8111828210171561201757612017611fde565b60405290565b604051601f8201601f1916810167ffffffffffffffff8111828210171561204657612046611fde565b604052919050565b6000602080838503121561206157600080fd5b825167ffffffffffffffff8082111561207957600080fd5b818501915085601f83011261208d57600080fd5b81518181111561209f5761209f611fde565b6120ad848260051b0161201d565b818152848101925060079190911b8301840190878211156120cd57600080fd5b928401925b8184101561213e57608084890312156120eb5760008081fd5b6120f3611ff4565b84516120fe81611b2e565b815284860151868201526040808601519082015260608086015160ff811681146121285760008081fd5b90820152835260809390930192918401916120d2565b979650505050505050565b634e487b7160e01b600052603260045260246000fd5b634e487b7160e01b600052601160045260246000fd5b600080821280156001600160ff1b03849003851316156121975761219761215f565b600160ff1b83900384128116156121b0576121b061215f565b50500190565b60006001600160801b038083168185168083038211156121d8576121d861215f565b01949350505050565b60006000198214156121f5576121f561215f565b5060010190565b6000821982111561220f5761220f61215f565b500190565b60006020828403121561222657600080fd5b81358015158114611f5657600080fd5b600060ff821660ff84168060ff038211156122535761225361215f565b019392505050565b60008160001904831182151516156122755761227561215f565b500290565b60008261229757634e487b7160e01b600052601260045260246000fd5b500490565b6000828210156122ae576122ae61215f565b500390565b600060ff821660ff8114156122ca576122ca61215f565b6001019291505056fea26469706673582212200b74a4fe7eaad94f6dc5bdb17b8b17a39de785d421396be80cbfe1cae548cb1d64736f6c63430008090033","linkReferences":{}},"methodIdentifiers":{"applyPrecomputedTaskReps((address,uint256,uint256,uint256,uint256,bool)[],uint8)":"2681f6af","challengeCodeHash()":"293253ac","getChallengeCodeHash()":"6cc6069f","getGrsAndTrsBatch(address[],uint8)":"24d5c669","getTaskCount(address,uint8)":"5a526689","getTaskRepCalcState(address,uint8)":"2c06ca72","getTaskTypeNames()":"329afc69","getUser(address,uint8)":"f989d87a","getUserAllTaskTypes(address)":"7047c5f3","getUserRep(address,uint8)":"58c67d17","getUsersBatch(address[],uint8)":"37ebf7a9","implementation()":"5c60da1b","incrementTaskCount(address,uint8)":"49c839e4","jobListingCodeHash()":"cfc151ff","publisher()":"8c72c54e","registerJob(address)":"bbbf1507","reputationMode()":"6f69e730","setChallengeCodeHash(bytes32)":"95760db5","setJobListingCodeHash(bytes32)":"2422b758","setTaskRepCalcState(address,uint8,uint256,uint256)":"291c734a","setUserBalance(address,uint256)":"fe177700","setUserIntegrityRep(address,uint256)":"d0b50def","setUserTaskRep(address,uint8,uint256)":"0ba20ef2","updateQValuesAfterSelection(address[],address[],uint8)":"65ea6e3c","updateReputationsFromChallenge(address,uint8)":"1565fb5c","users(address)":"a87430ba","validJobs(address)":"9cc504a5","validateJob(address)":"c9e3540c"},"id":3}