{"abi":[{"type":"constructor","inputs":[{"name":"_min_collateral","type":"uint256","internalType":"uint256"},{"name":"_max_collateral","type":"uint256","internalType":"uint256"},{"name":"_reward","type":"uint256","internalType":"uint256"},{"name":"_min_rounds","type":"uint8","internalType":"uint8"},{"name":"_punishfactor","type":"uint8","internalType":"uint8"},{"name":"_punishfactorContrib","type":"uint8","internalType":"uint8"},{"name":"_freeriderPenalty","type":"uint8","internalType":"uint8"},{"name":"_managerAddress","type":"address","internalType":"address"},{"name":"_taskType","type":"uint8","internalType":"enum TaskType"},{"name":"_qWeight","type":"uint256","internalType":"uint256"},{"name":"_trWeight","type":"uint256","internalType":"uint256"},{"name":"_girWeight","type":"uint256","internalType":"uint256"}],"stateMutability":"payable"},{"type":"function","name":"applicants","inputs":[{"name":"","type":"address","internalType":"address"}],"outputs":[{"name":"globalTaskRep","type":"uint256","internalType":"uint256"},{"name":"globalIntegrity","type":"uint256","internalType":"uint256"},{"name":"qValue","type":"uint256","internalType":"uint256"},{"name":"tiebreaker","type":"bytes32","internalType":"bytes32"},{"name":"addr","type":"address","internalType":"address"},{"name":"isSelected","type":"bool","internalType":"bool"}],"stateMutability":"view"},{"type":"function","name":"applicationWindowCloseTime","inputs":[],"outputs":[{"name":"","type":"uint256","internalType":"uint256"}],"stateMutability":"view"},{"type":"function","name":"challengeAddress","inputs":[],"outputs":[{"name":"","type":"address","internalType":"address"}],"stateMutability":"view"},{"type":"function","name":"configHash","inputs":[],"outputs":[{"name":"","type":"bytes32","internalType":"bytes32"}],"stateMutability":"view"},{"type":"function","name":"debugTimes","inputs":[],"outputs":[{"name":"nowTs","type":"uint256","internalType":"uint256"},{"name":"closeTs","type":"uint256","internalType":"uint256"}],"stateMutability":"view"},{"type":"function","name":"decideOnParticpants","inputs":[{"name":"amount","type":"uint8","internalType":"uint8"}],"outputs":[],"stateMutability":"payable"},{"type":"function","name":"getSelectedParticipants","inputs":[],"outputs":[{"name":"","type":"address[]","internalType":"address[]"}],"stateMutability":"view"},{"type":"function","name":"getTaskType","inputs":[],"outputs":[{"name":"","type":"uint8","internalType":"enum TaskType"}],"stateMutability":"view"},{"type":"function","name":"getTopN","inputs":[{"name":"N","type":"uint256","internalType":"uint256"}],"outputs":[{"name":"","type":"address[]","internalType":"address[]"}],"stateMutability":"view"},{"type":"function","name":"publisher","inputs":[],"outputs":[{"name":"","type":"address","internalType":"address"}],"stateMutability":"view"},{"type":"function","name":"register","inputs":[{"name":"_tiebreaker","type":"bytes32","internalType":"bytes32"}],"outputs":[],"stateMutability":"payable"},{"type":"function","name":"registerChallenge","inputs":[{"name":"challengeContractAddr","type":"address","internalType":"address"}],"outputs":[],"stateMutability":"nonpayable"},{"type":"event","name":"ChallengeRegistered","inputs":[{"name":"challengeAddress","type":"address","indexed":false,"internalType":"address"},{"name":"success","type":"bool","indexed":false,"internalType":"bool"}],"anonymous":false},{"type":"event","name":"SelectionComplete","inputs":[{"name":"participants","type":"address[]","indexed":false,"internalType":"address[]"}],"anonymous":false}],"bytecode":{"object":"0x6080604052604051620017543803806200175483398101604081905262000026916200025e565b60006200003482846200032b565b11620000925760405162461bcd60e51b8152602060048201526024808201527f4a4c3a207472576569676874202b20676972576569676874206d7573742062656044820152630203e20360e41b606482015260840160405180910390fd5b600480546001600160a01b03871662010000810262010000600160b01b031990921691909117909155600280546001600160a01b031990811690921790556007805490911633179055620000e84260006200032b565b600155600c8054600a80546001600160a01b0319166001600160a01b03891617905560098d905560088e815560ff8c811663ff00ffff1990931663010000008b83160261ffff191617929092176101008c8416021762ff000019811662010000938c16939093029283178455600b8e905587939264ff00ff00001990911660ff60201b1990911617906401000000009084908111156200018c576200018c62000352565b0217905550600d839055600e829055600f81905560025460408051636cc6069f60e01b815290516001600160a01b0390921691636cc6069f91600480820192602092909190829003018186803b158015620001e657600080fd5b505afa158015620001fb573d6000803e3d6000fd5b505050506040513d601f19601f8201168201806040525081019062000221919062000368565b60055550620003829a5050505050505050505050565b805160ff811681146200024957600080fd5b919050565b8051600981106200024957600080fd5b6000806000806000806000806000806000806101808d8f0312156200028257600080fd5b8c519b5060208d01519a5060408d01519950620002a260608e0162000237565b9850620002b260808e0162000237565b9750620002c260a08e0162000237565b9650620002d260c08e0162000237565b60e08e01519096506001600160a01b0381168114620002f057600080fd5b9450620003016101008e016200024e565b93506101208d015192506101408d015191506101608d015190509295989b509295989b509295989b565b600082198211156200034d57634e487b7160e01b600052601160045260246000fd5b500190565b634e487b7160e01b600052602160045260246000fd5b6000602082840312156200037b57600080fd5b5051919050565b6113c280620003926000396000f3fe6080604052600436106100a75760003560e01c8063abb30a8511610064578063abb30a8514610193578063b4d7b465146101b7578063bf6aff7f146101e3578063ccd66863146101f8578063e1f1176d1461028f578063e1fa8e84146102a457600080fd5b806329d18879146100ac578063654f4575146100e957806374b4a510146101165780637528f5651461012b5780638c72c54e14610153578063a8ad152714610173575b600080fd5b3480156100b857600080fd5b506006546100cc906001600160a01b031681565b6040516001600160a01b0390911681526020015b60405180910390f35b3480156100f557600080fd5b50610109610104366004611056565b6102b7565b6040516100e091906110b3565b6101296101243660046110cd565b6109b6565b005b34801561013757600080fd5b50600c54640100000000900460ff166040516100e09190611112565b34801561015f57600080fd5b506007546100cc906001600160a01b031681565b34801561017f57600080fd5b5061012961018e366004611126565b610b40565b34801561019f57600080fd5b506101a960015481565b6040519081526020016100e0565b3480156101c357600080fd5b506101ce6001544291565b604080519283526020830191909152016100e0565b3480156101ef57600080fd5b50610109610c27565b34801561020457600080fd5b50610257610213366004611126565b60006020819052908152604090208054600182015460028301546003840154600490940154929391929091906001600160a01b03811690600160a01b900460ff1686565b6040805196875260208701959095529385019290925260608401526001600160a01b03166080830152151560a082015260c0016100e0565b34801561029b57600080fd5b506101a9610c89565b6101296102b2366004611056565b610d15565b606060008267ffffffffffffffff8111156102d4576102d461114f565b6040519080825280602002602001820160405280156102fd578160200160208202803683370190505b50905060008367ffffffffffffffff81111561031b5761031b61114f565b604051908082528060200260200182016040528015610344578160200160208202803683370190505b50905060008467ffffffffffffffff8111156103625761036261114f565b60405190808252806020026020018201604052801561038b578160200160208202803683370190505b5090506000805b6003548110156109ab576000600382815481106103b1576103b1611165565b60009182526020808320909101546001600160a01b031680835290829052604082209092506103df90610db7565b6001600160a01b03831660009081526020819052604090206003015490915089851015610687578288868151811061041957610419611165565b60200260200101906001600160a01b031690816001600160a01b0316815250508187868151811061044c5761044c611165565b6020026020010181815250508086868151811061046b5761046b611165565b6020908102919091010152845b8015610674576000600261048d600184611191565b61049791906111a8565b90506105098982815181106104ae576104ae611165565b60200260200101518983815181106104c8576104c8611165565b60200260200101518b85815181106104e2576104e2611165565b60200260200101518b86815181106104fc576104fc611165565b6020026020010151610e4a565b156105145750610674565b88828151811061052657610526611165565b602002602001015189828151811061054057610540611165565b60200260200101518a838151811061055a5761055a611165565b602002602001018b858151811061057357610573611165565b602002602001018281525082815250505087828151811061059657610596611165565b60200260200101518882815181106105b0576105b0611165565b60200260200101518983815181106105ca576105ca611165565b602002602001018a85815181106105e3576105e3611165565b602002602001018281525082815250505089828151811061060657610606611165565b60200260200101518a828151811061062057610620611165565b60200260200101518b838151811061063a5761063a611165565b602002602001018c858151811061065357610653611165565b6001600160a01b039384166020918202929092010152911690529050610478565b8561067e816111ca565b96505050610995565b6106ba82828960008151811061069f5761069f611165565b6020026020010151896000815181106104fc576104fc611165565b6109955782886000815181106106d2576106d2611165565b60200260200101906001600160a01b031690816001600160a01b031681525050818760008151811061070657610706611165565b602002602001018181525050808660008151811061072657610726611165565b60200260200101818152505060005b60006107428260026111e5565b61074d906001611204565b9050600061075c8360026111e5565b610767906002611204565b9050828d831080156107d757506107d78b848151811061078957610789611165565b60200260200101518b85815181106107a3576107a3611165565b60200260200101518d84815181106107bd576107bd611165565b60200260200101518d85815181106104fc576104fc611165565b156107df5750815b8d8210801561081857506108188b83815181106107fe576107fe611165565b60200260200101518b84815181106107a3576107a3611165565b156108205750805b8381141561083057505050610993565b8a818151811061084257610842611165565b60200260200101518b858151811061085c5761085c611165565b60200260200101518c868151811061087657610876611165565b602002602001018d848151811061088f5761088f611165565b60200260200101828152508281525050508981815181106108b2576108b2611165565b60200260200101518a85815181106108cc576108cc611165565b60200260200101518b86815181106108e6576108e6611165565b602002602001018c84815181106108ff576108ff611165565b60200260200101828152508281525050508b818151811061092257610922611165565b60200260200101518c858151811061093c5761093c611165565b60200260200101518d868151811061095657610956611165565b602002602001018e848151811061096f5761096f611165565b6001600160a01b039384166020918202929092010152911690529250610735915050565b505b50505080806109a3906111ca565b915050610392565b509295945050505050565b6001544210156109f35760405162461bcd60e51b815260206004820152600360248201526241574f60e81b60448201526064015b60405180910390fd5b6000610a018260ff166102b7565b905060005b8151811015610a7b576001600080848481518110610a2657610a26611165565b60200260200101516001600160a01b03166001600160a01b0316815260200190815260200160002060040160146101000a81548160ff0219169083151502179055508080610a73906111ca565b915050610a06565b508051610a8f906010906020840190610fdc565b50600254600c5460405163197a9b8f60e21b81526001600160a01b03909216916365ea6e3c91610ad391600391869164010000000090910460ff169060040161125a565b600060405180830381600087803b158015610aed57600080fd5b505af1158015610b01573d6000803e3d6000fd5b505050507f8fd951facf65575c3c2c7d346f6445858f0563ebd61b130161a4113e484eabba81604051610b3491906110b3565b60405180910390a15050565b6006546001600160a01b031615610b7f5760405162461bcd60e51b815260206004820152600360248201526249414560e81b60448201526064016109ea565b600554813f90811415610be457600680546001600160a01b0319166001600160a01b03841690811790915560408051918252600160208301527fc8ff1b5595f04e0abedf2cec166505f22481927d01386cf56ebabc4e92495c67910160405180910390a15b600654604080516001600160a01b039092168252600060208301527fc8ff1b5595f04e0abedf2cec166505f22481927d01386cf56ebabc4e92495c679101610b34565b60606010805480602002602001604051908101604052809291908181526020018280548015610c7f57602002820191906000526020600020905b81546001600160a01b03168152600190910190602001808311610c61575b5050505050905090565b600454600154600c54600a54600954600854600b54604051600097610cfa976001600160a01b036201000092839004811698919760ff63010000008404811698919092169690959094828416946101008504841694908104841693640100000000909104169060109060200161128f565b60405160208183030381529060405280519060200120905090565b336000908152602081905260409020600401546001600160a01b031615610d645760405162461bcd60e51b815260206004820152600360248201526229a0a960e91b60448201526064016109ea565b6008543410801590610d7857506009543411155b610daa5760405162461bcd60e51b8152602060048201526003602482015262272ba960e91b60448201526064016109ea565b610db43382610e69565b50565b600f54600e546000918291610dcc9190611204565b90506000816008600701548560010154610de691906111e5565b600e548654610df591906111e5565b610dff9190611204565b610e0991906111a8565b90506000670de0b6b3a76400008560020154600860050154610e2b91906111e5565b610e3591906111a8565b9050610e418183611204565b95945050505050565b6000828514610e5c5750818410610e61565b508083115b949350505050565b6001600160a01b03828116600090815260208190526040808220600254600c5492516358c67d1760e01b815291948493849392909116916358c67d1791610ec0918a91640100000000900460ff169060040161131b565b60606040518083038186803b158015610ed857600080fd5b505afa158015610eec573d6000803e3d6000fd5b505050506040513d601f19601f82011682018060405250810190610f109190611338565b82875560018088018390556002880182905560038801899055600480890180546001600160a81b0319166001600160a01b038d16179055805494975092955090935091600090610f6590849061ffff16611366565b825461ffff9182166101009390930a92830291909202199091161790555050600380546001810182556000919091527fc2575a0e9e593c00f959f8c92f12db2869c3395a3b0502d05e2516446f71f85b0180546001600160a01b039096166001600160a01b03199096169590951790945550505050565b828054828255906000526020600020908101928215611031579160200282015b8281111561103157825182546001600160a01b0319166001600160a01b03909116178255602090920191600190910190610ffc565b5061103d929150611041565b5090565b5b8082111561103d5760008155600101611042565b60006020828403121561106857600080fd5b5035919050565b600081518084526020808501945080840160005b838110156110a85781516001600160a01b031687529582019590820190600101611083565b509495945050505050565b6020815260006110c6602083018461106f565b9392505050565b6000602082840312156110df57600080fd5b813560ff811681146110c657600080fd5b6009811061110e57634e487b7160e01b600052602160045260246000fd5b9052565b6020810161112082846110f0565b92915050565b60006020828403121561113857600080fd5b81356001600160a01b03811681146110c657600080fd5b634e487b7160e01b600052604160045260246000fd5b634e487b7160e01b600052603260045260246000fd5b634e487b7160e01b600052601160045260246000fd5b6000828210156111a3576111a361117b565b500390565b6000826111c557634e487b7160e01b600052601260045260246000fd5b500490565b60006000198214156111de576111de61117b565b5060010190565b60008160001904831182151516156111ff576111ff61117b565b500290565b600082198211156112175761121761117b565b500190565b6000815480845260208085019450836000528060002060005b838110156110a85781546001600160a01b031687529582019560019182019101611235565b60608152600061126d606083018661121c565b828103602084015261127f818661106f565b915050610e6160408301846110f0565b6001600160a01b038d81168252602082018d905260ff8c81166040840152908b166060830152608082018a905260a0820189905287811660c083015286811660e083015285166101008201526000846101208301526112f26101408301856110f0565b61018061016083015261130961018083018461121c565b9e9d5050505050505050505050505050565b6001600160a01b0383168152604081016110c660208301846110f0565b60008060006060848603121561134d57600080fd5b8351925060208401519150604084015190509250925092565b600061ffff8083168185168083038211156113835761138361117b565b0194935050505056fea2646970667358221220b2499ccd8711953316403dc232b2a3510fcd7a4ba4e584bb4ed8fb3eff6bf6c664736f6c63430008090033","linkReferences":{}},"methodIdentifiers":{"applicants(address)":"ccd66863","applicationWindowCloseTime()":"abb30a85","challengeAddress()":"29d18879","configHash()":"e1f1176d","debugTimes()":"b4d7b465","decideOnParticpants(uint8)":"74b4a510","getSelectedParticipants()":"bf6aff7f","getTaskType()":"7528f565","getTopN(uint256)":"654f4575","publisher()":"8c72c54e","register(bytes32)":"e1fa8e84","registerChallenge(address)":"a8ad1527"},"id":1}