{"abi":[{"type":"constructor","inputs":[{"name":"_min_collateral","type":"uint256","internalType":"uint256"},{"name":"_max_collateral","type":"uint256","internalType":"uint256"},{"name":"_reward","type":"uint256","internalType":"uint256"},{"name":"_min_rounds","type":"uint8","internalType":"uint8"},{"name":"_punishfactor","type":"uint8","internalType":"uint8"},{"name":"_punishfactorContrib","type":"uint8","internalType":"uint8"},{"name":"_freeriderPenalty","type":"uint8","internalType":"uint8"},{"name":"_managerAddress","type":"address","internalType":"address"},{"name":"_taskType","type":"uint8","internalType":"enum TaskType"},{"name":"_qWeight","type":"uint256","internalType":"uint256"},{"name":"_trWeight","type":"uint256","internalType":"uint256"},{"name":"_girWeight","type":"uint256","internalType":"uint256"}],"stateMutability":"payable"},{"type":"function","name":"applicants","inputs":[{"name":"","type":"address","internalType":"address"}],"outputs":[{"name":"globalTaskRep","type":"uint256","internalType":"uint256"},{"name":"globalIntegrity","type":"uint256","internalType":"uint256"},{"name":"qValue","type":"uint256","internalType":"uint256"},{"name":"tiebreaker","type":"bytes32","internalType":"bytes32"},{"name":"addr","type":"address","internalType":"address"},{"name":"isSelected","type":"bool","internalType":"bool"}],"stateMutability":"view"},{"type":"function","name":"applicationWindowCloseTime","inputs":[],"outputs":[{"name":"","type":"uint256","internalType":"uint256"}],"stateMutability":"view"},{"type":"function","name":"challengeAddress","inputs":[],"outputs":[{"name":"","type":"address","internalType":"address"}],"stateMutability":"view"},{"type":"function","name":"configHash","inputs":[],"outputs":[{"name":"","type":"bytes32","internalType":"bytes32"}],"stateMutability":"view"},{"type":"function","name":"debugTimes","inputs":[],"outputs":[{"name":"nowTs","type":"uint256","internalType":"uint256"},{"name":"closeTs","type":"uint256","internalType":"uint256"}],"stateMutability":"view"},{"type":"function","name":"decideOnParticpants","inputs":[{"name":"amount","type":"uint8","internalType":"uint8"}],"outputs":[],"stateMutability":"payable"},{"type":"function","name":"getChallengeTaskReps","inputs":[],"outputs":[{"name":"","type":"tuple[]","internalType":"struct IOpenFLChallengeTaskRep.TaskRep[]","components":[{"name":"user","type":"address","internalType":"address"},{"name":"taskRepDelta","type":"int256","internalType":"int256"},{"name":"globalReputationScore","type":"uint256","internalType":"uint256"},{"name":"positiveVotes","type":"uint256","internalType":"uint256"},{"name":"totalVotes","type":"uint256","internalType":"uint256"}]}],"stateMutability":"view"},{"type":"function","name":"getSelectedParticipants","inputs":[],"outputs":[{"name":"","type":"address[]","internalType":"address[]"}],"stateMutability":"view"},{"type":"function","name":"getTaskType","inputs":[],"outputs":[{"name":"","type":"uint8","internalType":"enum TaskType"}],"stateMutability":"view"},{"type":"function","name":"getTopN","inputs":[{"name":"N","type":"uint256","internalType":"uint256"}],"outputs":[{"name":"","type":"address[]","internalType":"address[]"}],"stateMutability":"view"},{"type":"function","name":"publisher","inputs":[],"outputs":[{"name":"","type":"address","internalType":"address"}],"stateMutability":"view"},{"type":"function","name":"register","inputs":[{"name":"_tiebreaker","type":"bytes32","internalType":"bytes32"}],"outputs":[],"stateMutability":"payable"},{"type":"function","name":"registerChallenge","inputs":[{"name":"challengeContractAddr","type":"address","internalType":"address"}],"outputs":[],"stateMutability":"nonpayable"},{"type":"function","name":"taskRepsApplied","inputs":[],"outputs":[{"name":"","type":"bool","internalType":"bool"}],"stateMutability":"view"},{"type":"function","name":"updateUserTaskReps","inputs":[],"outputs":[],"stateMutability":"nonpayable"},{"type":"event","name":"ChallengeRegistered","inputs":[{"name":"challengeAddress","type":"address","indexed":false,"internalType":"address"},{"name":"success","type":"bool","indexed":false,"internalType":"bool"}],"anonymous":false},{"type":"event","name":"SelectionComplete","inputs":[{"name":"participants","type":"address[]","indexed":false,"internalType":"address[]"}],"anonymous":false},{"type":"event","name":"TaskRepsApplied","inputs":[{"name":"challengeAddress","type":"address","indexed":true,"internalType":"address"},{"name":"taskType","type":"uint8","indexed":true,"internalType":"enum TaskType"},{"name":"participantCount","type":"uint256","indexed":false,"internalType":"uint256"}],"anonymous":false}],"bytecode":{"object":"0x60806040526040516200275b3803806200275b83398101604081905262000026916200025e565b60006200003482846200032b565b11620000925760405162461bcd60e51b8152602060048201526024808201527f4a4c3a207472576569676874202b20676972576569676874206d7573742062656044820152630203e20360e41b606482015260840160405180910390fd5b600480546001600160a01b03871662010000810262010000600160b01b031990921691909117909155600280546001600160a01b031990811690921790556007805490911633179055620000e84260006200032b565b600155600c8054600a80546001600160a01b0319166001600160a01b03891617905560098d905560088e815560ff8c811663ff00ffff1990931663010000008b83160261ffff191617929092176101008c8416021762ff000019811662010000938c16939093029283178455600b8e905587939264ff00ff00001990911660ff60201b1990911617906401000000009084908111156200018c576200018c62000352565b0217905550600d839055600e829055600f81905560025460408051636cc6069f60e01b815290516001600160a01b0390921691636cc6069f91600480820192602092909190829003018186803b158015620001e657600080fd5b505afa158015620001fb573d6000803e3d6000fd5b505050506040513d601f19601f8201168201806040525081019062000221919062000368565b60055550620003829a5050505050505050505050565b805160ff811681146200024957600080fd5b919050565b8051600981106200024957600080fd5b6000806000806000806000806000806000806101808d8f0312156200028257600080fd5b8c519b5060208d01519a5060408d01519950620002a260608e0162000237565b9850620002b260808e0162000237565b9750620002c260a08e0162000237565b9650620002d260c08e0162000237565b60e08e01519096506001600160a01b0381168114620002f057600080fd5b9450620003016101008e016200024e565b93506101208d015192506101408d015191506101608d015190509295989b509295989b509295989b565b600082198211156200034d57634e487b7160e01b600052601160045260246000fd5b500190565b634e487b7160e01b600052602160045260246000fd5b6000602082840312156200037b57600080fd5b5051919050565b6123c980620003926000396000f3fe6080604052600436106100e85760003560e01c8063a8ad15271161008a578063ccd6686311610059578063ccd6686314610270578063ce03cded14610307578063e1f1176d14610338578063e1fa8e841461034d57600080fd5b8063a8ad1527146101eb578063abb30a851461020b578063b4d7b4651461022f578063bf6aff7f1461025b57600080fd5b8063654f4575116100c6578063654f45751461016357806374b4a510146101905780637528f565146101a35780638c72c54e146101cb57600080fd5b806324f43993146100ed57806329d18879146101045780635c0d857f14610141575b600080fd5b3480156100f957600080fd5b50610102610360565b005b34801561011057600080fd5b50600654610124906001600160a01b031681565b6040516001600160a01b0390911681526020015b60405180910390f35b34801561014d57600080fd5b50610156610704565b6040516101389190611d8f565b34801561016f57600080fd5b5061018361017e366004611e06565b6107ee565b6040516101389190611e63565b61010261019e366004611e76565b610eed565b3480156101af57600080fd5b50600c54640100000000900460ff166040516101389190611ed1565b3480156101d757600080fd5b50600754610124906001600160a01b031681565b3480156101f757600080fd5b50610102610206366004611ef4565b611072565b34801561021757600080fd5b5061022160015481565b604051908152602001610138565b34801561023b57600080fd5b506102466001544291565b60408051928352602083019190915201610138565b34801561026757600080fd5b50610183611159565b34801561027c57600080fd5b506102cf61028b366004611ef4565b60006020819052908152604090208054600182015460028301546003840154600490940154929391929091906001600160a01b03811690600160a01b900460ff1686565b6040805196875260208701959095529385019290925260608401526001600160a01b03166080830152151560a082015260c001610138565b34801561031357600080fd5b5060075461032890600160a01b900460ff1681565b6040519015158152602001610138565b34801561034457600080fd5b506102216111bb565b61010261035b366004611e06565b611247565b6006546001600160a01b031633148061038357506007546001600160a01b031633145b6103e35760405162461bcd60e51b815260206004820152602660248201527f4a4c3a206e6f7420617574686f72697a656420666f72207461736b207265702060448201526575706461746560d01b60648201526084015b60405180910390fd5b600754600160a01b900460ff161561043d5760405162461bcd60e51b815260206004820152601d60248201527f4a4c3a207461736b207265707320616c7265616479206170706c69656400000060448201526064016103da565b6006546001600160a01b03166104955760405162461bcd60e51b815260206004820152601c60248201527f4a4c3a206368616c6c656e6765206e6f7420726567697374657265640000000060448201526064016103da565b600654604080516246834d60e81b815290516001600160a01b039092169160009183916346834d00916004808201928692909190829003018186803b1580156104dd57600080fd5b505afa1580156104f1573d6000803e3d6000fd5b505050506040513d6000823e601f3d908101601f191682016040526105199190810190611f81565b90506000600860040160049054906101000a900460ff169050600060086003015490506000846001600160a01b031663f25648d26040518163ffffffff1660e01b815260040160206040518083038186803b15801561057757600080fd5b505afa15801561058b573d6000803e3d6000fd5b505050506040513d601f19601f820116820180604052508101906105af9190612072565b9050600080600260009054906101000a90046001600160a01b03166001600160a01b0316636f69e7306040518163ffffffff1660e01b815260040160206040518083038186803b15801561060257600080fd5b505afa158015610616573d6000803e3d6000fd5b505050506040513d601f19601f8201168201806040525081019061063a919061208b565b600181111561064b5761064b611e99565b14905060005b85518110156106925761068086828151811061066f5761066f6120ac565b6020026020010151868686866112e9565b8061068a816120d8565b915050610651565b506007805460ff60a01b1916600160a01b1790558360088111156106b8576106b8611e99565b60065486516040519081526001600160a01b03909116907fb33e47ae4a8acfbaed50103d583875f7e3419fde108f6a63cc52990c67b9daf99060200160405180910390a3505050505050565b6006546060906001600160a01b031661075f5760405162461bcd60e51b815260206004820152601c60248201527f4a4c3a206368616c6c656e6765206e6f7420726567697374657265640000000060448201526064016103da565b600660009054906101000a90046001600160a01b03166001600160a01b03166346834d006040518163ffffffff1660e01b815260040160006040518083038186803b1580156107ad57600080fd5b505afa1580156107c1573d6000803e3d6000fd5b505050506040513d6000823e601f3d908101601f191682016040526107e99190810190611f81565b905090565b606060008267ffffffffffffffff81111561080b5761080b611f11565b604051908082528060200260200182016040528015610834578160200160208202803683370190505b50905060008367ffffffffffffffff81111561085257610852611f11565b60405190808252806020026020018201604052801561087b578160200160208202803683370190505b50905060008467ffffffffffffffff81111561089957610899611f11565b6040519080825280602002602001820160405280156108c2578160200160208202803683370190505b5090506000805b600354811015610ee2576000600382815481106108e8576108e86120ac565b60009182526020808320909101546001600160a01b0316808352908290526040822090925061091690611323565b6001600160a01b03831660009081526020819052604090206003015490915089851015610bbe5782888681518110610950576109506120ac565b60200260200101906001600160a01b031690816001600160a01b03168152505081878681518110610983576109836120ac565b602002602001018181525050808686815181106109a2576109a26120ac565b6020908102919091010152845b8015610bab57600060026109c46001846120f3565b6109ce919061210a565b9050610a408982815181106109e5576109e56120ac565b60200260200101518983815181106109ff576109ff6120ac565b60200260200101518b8581518110610a1957610a196120ac565b60200260200101518b8681518110610a3357610a336120ac565b60200260200101516113b6565b15610a4b5750610bab565b888281518110610a5d57610a5d6120ac565b6020026020010151898281518110610a7757610a776120ac565b60200260200101518a8381518110610a9157610a916120ac565b602002602001018b8581518110610aaa57610aaa6120ac565b6020026020010182815250828152505050878281518110610acd57610acd6120ac565b6020026020010151888281518110610ae757610ae76120ac565b6020026020010151898381518110610b0157610b016120ac565b602002602001018a8581518110610b1a57610b1a6120ac565b6020026020010182815250828152505050898281518110610b3d57610b3d6120ac565b60200260200101518a8281518110610b5757610b576120ac565b60200260200101518b8381518110610b7157610b716120ac565b602002602001018c8581518110610b8a57610b8a6120ac565b6001600160a01b0393841660209182029290920101529116905290506109af565b85610bb5816120d8565b96505050610ecc565b610bf1828289600081518110610bd657610bd66120ac565b602002602001015189600081518110610a3357610a336120ac565b610ecc578288600081518110610c0957610c096120ac565b60200260200101906001600160a01b031690816001600160a01b0316815250508187600081518110610c3d57610c3d6120ac565b6020026020010181815250508086600081518110610c5d57610c5d6120ac565b60200260200101818152505060005b6000610c7982600261212c565b610c8490600161214b565b90506000610c9383600261212c565b610c9e90600261214b565b9050828d83108015610d0e5750610d0e8b8481518110610cc057610cc06120ac565b60200260200101518b8581518110610cda57610cda6120ac565b60200260200101518d8481518110610cf457610cf46120ac565b60200260200101518d8581518110610a3357610a336120ac565b15610d165750815b8d82108015610d4f5750610d4f8b8381518110610d3557610d356120ac565b60200260200101518b8481518110610cda57610cda6120ac565b15610d575750805b83811415610d6757505050610eca565b8a8181518110610d7957610d796120ac565b60200260200101518b8581518110610d9357610d936120ac565b60200260200101518c8681518110610dad57610dad6120ac565b602002602001018d8481518110610dc657610dc66120ac565b6020026020010182815250828152505050898181518110610de957610de96120ac565b60200260200101518a8581518110610e0357610e036120ac565b60200260200101518b8681518110610e1d57610e1d6120ac565b602002602001018c8481518110610e3657610e366120ac565b60200260200101828152508281525050508b8181518110610e5957610e596120ac565b60200260200101518c8581518110610e7357610e736120ac565b60200260200101518d8681518110610e8d57610e8d6120ac565b602002602001018e8481518110610ea657610ea66120ac565b6001600160a01b039384166020918202929092010152911690529250610c6c915050565b505b5050508080610eda906120d8565b9150506108c9565b509295945050505050565b600154421015610f255760405162461bcd60e51b815260206004820152600360248201526241574f60e81b60448201526064016103da565b6000610f338260ff166107ee565b905060005b8151811015610fad576001600080848481518110610f5857610f586120ac565b60200260200101516001600160a01b03166001600160a01b0316815260200190815260200160002060040160146101000a81548160ff0219169083151502179055508080610fa5906120d8565b915050610f38565b508051610fc1906010906020840190611d15565b50600254600c5460405163197a9b8f60e21b81526001600160a01b03909216916365ea6e3c9161100591600391869164010000000090910460ff16906004016121a1565b600060405180830381600087803b15801561101f57600080fd5b505af1158015611033573d6000803e3d6000fd5b505050507f8fd951facf65575c3c2c7d346f6445858f0563ebd61b130161a4113e484eabba816040516110669190611e63565b60405180910390a15050565b6006546001600160a01b0316156110b15760405162461bcd60e51b815260206004820152600360248201526249414560e81b60448201526064016103da565b600554813f9081141561111657600680546001600160a01b0319166001600160a01b03841690811790915560408051918252600160208301527fc8ff1b5595f04e0abedf2cec166505f22481927d01386cf56ebabc4e92495c67910160405180910390a15b600654604080516001600160a01b039092168252600060208301527fc8ff1b5595f04e0abedf2cec166505f22481927d01386cf56ebabc4e92495c679101611066565b606060108054806020026020016040519081016040528092919081815260200182805480156111b157602002820191906000526020600020905b81546001600160a01b03168152600190910190602001808311611193575b5050505050905090565b600454600154600c54600a54600954600854600b5460405160009761122c976001600160a01b036201000092839004811698919760ff6301000000840481169891909216969095909482841694610100850484169490810484169364010000000090910416906010906020016121d6565b60405160208183030381529060405280519060200120905090565b336000908152602081905260409020600401546001600160a01b0316156112965760405162461bcd60e51b815260206004820152600360248201526229a0a960e91b60448201526064016103da565b60085434108015906112aa57506009543411155b6112dc5760405162461bcd60e51b8152602060048201526003602482015262272ba960e91b60448201526064016103da565b6112e633826113d5565b50565b6112fe85600001518587602001518686611548565b801561131c5761131c856000015185876060015188608001516118a3565b5050505050565b600f54600e546000918291611338919061214b565b90506000816008600701548560010154611352919061212c565b600e548654611361919061212c565b61136b919061214b565b611375919061210a565b90506000670de0b6b3a76400008560020154600860050154611397919061212c565b6113a1919061210a565b90506113ad818361214b565b95945050505050565b60008285146113c857508184106113cd565b508083115b949350505050565b6001600160a01b03828116600090815260208190526040808220600254600c5492516358c67d1760e01b815291948493849392909116916358c67d179161142c918a91640100000000900460ff1690600401612263565b60606040518083038186803b15801561144457600080fd5b505afa158015611458573d6000803e3d6000fd5b505050506040513d601f19601f8201168201806040525081019061147c9190612280565b82875560018088018390556002880182905560038801899055600480890180546001600160a81b0319166001600160a01b038d161790558054949750929550909350916000906114d190849061ffff166122ae565b825461ffff9182166101009390930a92830291909202199091161790555050600380546001810182556000919091527fc2575a0e9e593c00f959f8c92f12db2869c3395a3b0502d05e2516446f71f85b0180546001600160a01b039096166001600160a01b03199096169590951790945550505050565b6002546040516358c67d1760e01b81526000916001600160a01b0316906358c67d179061157b9089908990600401612263565b60606040518083038186803b15801561159357600080fd5b505afa1580156115a7573d6000803e3d6000fd5b505050506040513d601f19601f820116820180604052508101906115cb9190612280565b5050600254604051631603653960e11b815291925060009182916001600160a01b031690632c06ca7290611605908b908b90600401612263565b604080518083038186803b15801561161c57600080fd5b505afa158015611630573d6000803e3d6000fd5b505050506040513d601f19601f8201168201806040525081019061165491906122d4565b600254604051635a52668960e01b81529294509092506000916001600160a01b0390911690635a5266899061168f908c908c90600401612263565b60206040518083038186803b1580156116a757600080fd5b505afa1580156116bb573d6000803e3d6000fd5b505050506040513d601f19601f820116820180604052508101906116df9190612072565b6116ea90600161214b565b9050600061170288670de0b6b3a764000089896119a7565b905060008061171383878787611a56565b91509150600061172d886117278785611b88565b86611c27565b9050600260009054906101000a90046001600160a01b03166001600160a01b031663291c734a8e8e86866040518563ffffffff1660e01b815260040161177694939291906122f8565b600060405180830381600087803b15801561179057600080fd5b505af11580156117a4573d6000803e3d6000fd5b50505050600260009054906101000a90046001600160a01b03166001600160a01b0316630ba20ef28e8e846040518463ffffffff1660e01b81526004016117ed93929190612327565b600060405180830381600087803b15801561180757600080fd5b505af115801561181b573d6000803e3d6000fd5b50505050600260009054906101000a90046001600160a01b03166001600160a01b03166349c839e48e8e6040518363ffffffff1660e01b8152600401611862929190612263565b600060405180830381600087803b15801561187c57600080fd5b505af1158015611890573d6000803e3d6000fd5b5050505050505050505050505050505050565b6002546040516358c67d1760e01b81526000916001600160a01b0316906358c67d17906118d69088908890600401612263565b60606040518083038186803b1580156118ee57600080fd5b505afa158015611902573d6000803e3d6000fd5b505050506040513d601f19601f820116820180604052508101906119269190612280565b509150506000611937828585611ca8565b60025460405163d0b50def60e01b81526001600160a01b0389811660048301526024820184905292935091169063d0b50def90604401600060405180830381600087803b15801561198757600080fd5b505af115801561199b573d6000803e3d6000fd5b50505050505050505050565b60008082156119cb57826119bc85600161212c565b6119c6919061210a565b6119ce565b60005b905060006119dc828761214b565b9050806119ee576000925050506113cd565b60006119fa8789612352565b905060008113611a1057600093505050506113cd565b80828110611a2c57670de0b6b3a76400009450505050506113cd565b82611a3f670de0b6b3a76400008361212c565b611a49919061210a565b9998505050505050505050565b60008060018311611a6957859150611ac0565b670de0b6b3a7640000611a84876702c68af0bb14000061212c565b86611a9f6702c68af0bb140000670de0b6b3a76400006120f3565b611aa9919061212c565b611ab3919061214b565b611abd919061210a565b91505b6000858711611ad857611ad387876120f3565b611ae2565b611ae286886120f3565b90506000838811611afc57611af788856120f3565b611b06565b611b0684896120f3565b9050611b1a670de0b6b3a76400008061212c565b81611b2d846702c68af0bb14000061212c565b611b37919061212c565b611b41919061210a565b670de0b6b3a764000087611b5d6702c68af0bb140000836120f3565b611b67919061212c565b611b71919061210a565b611b7b919061214b565b9250505094509492505050565b600082611b9757506000611c21565b6000611ba460028561214b565b611bb6670de0b6b3a76400008661212c565b611bc0919061210a565b90506000611bcf84601461212c565b611be190670de0b6b3a764000061214b565b611bf3670de0b6b3a76400008061212c565b611bfd919061210a565b9050670de0b6b3a7640000611c12828461212c565b611c1c919061210a565b925050505b92915050565b600080670de0b6b3a7640000611c3d848661212c565b611c47919061210a565b9050670de0b6b3a7640000611c64826702c68af0bb14000061212c565b86611c7f6702c68af0bb140000670de0b6b3a76400006120f3565b611c89919061212c565b611c93919061214b565b611c9d919061210a565b9150505b9392505050565b60008082611cb857506000611cfa565b600083611ccd670de0b6b3a76400008761212c565b611cd7919061210a565b9050670de0b6b3a7640000611cec828061212c565b611cf6919061210a565b9150505b670de0b6b3a7640000611c64826702c68af0bb14000061212c565b828054828255906000526020600020908101928215611d6a579160200282015b82811115611d6a57825182546001600160a01b0319166001600160a01b03909116178255602090920191600190910190611d35565b50611d76929150611d7a565b5090565b5b80821115611d765760008155600101611d7b565b602080825282518282018190526000919060409081850190868401855b82811015611df957815180516001600160a01b0316855286810151878601528581015186860152606080820151908601526080908101519085015260a09093019290850190600101611dac565b5091979650505050505050565b600060208284031215611e1857600080fd5b5035919050565b600081518084526020808501945080840160005b83811015611e585781516001600160a01b031687529582019590820190600101611e33565b509495945050505050565b602081526000611ca16020830184611e1f565b600060208284031215611e8857600080fd5b813560ff81168114611ca157600080fd5b634e487b7160e01b600052602160045260246000fd5b60098110611ecd57634e487b7160e01b600052602160045260246000fd5b9052565b60208101611c218284611eaf565b6001600160a01b03811681146112e657600080fd5b600060208284031215611f0657600080fd5b8135611ca181611edf565b634e487b7160e01b600052604160045260246000fd5b60405160a0810167ffffffffffffffff81118282101715611f4a57611f4a611f11565b60405290565b604051601f8201601f1916810167ffffffffffffffff81118282101715611f7957611f79611f11565b604052919050565b60006020808385031215611f9457600080fd5b825167ffffffffffffffff80821115611fac57600080fd5b818501915085601f830112611fc057600080fd5b815181811115611fd257611fd2611f11565b611fe0848260051b01611f50565b818152848101925060a0918202840185019188831115611fff57600080fd5b938501935b828510156120665780858a03121561201c5760008081fd5b612024611f27565b855161202f81611edf565b8152858701518782015260408087015190820152606080870151908201526080808701519082015284529384019392850192612004565b50979650505050505050565b60006020828403121561208457600080fd5b5051919050565b60006020828403121561209d57600080fd5b815160028110611ca157600080fd5b634e487b7160e01b600052603260045260246000fd5b634e487b7160e01b600052601160045260246000fd5b60006000198214156120ec576120ec6120c2565b5060010190565b600082821015612105576121056120c2565b500390565b60008261212757634e487b7160e01b600052601260045260246000fd5b500490565b6000816000190483118215151615612146576121466120c2565b500290565b6000821982111561215e5761215e6120c2565b500190565b6000815480845260208085019450836000528060002060005b83811015611e585781546001600160a01b03168752958201956001918201910161217c565b6060815260006121b46060830186612163565b82810360208401526121c68186611e1f565b9150506113cd6040830184611eaf565b6001600160a01b038d81168252602082018d905260ff8c81166040840152908b166060830152608082018a905260a0820189905287811660c083015286811660e083015285166101008201526101208101849052600061223a610140830185611eaf565b610180610160830152612251610180830184612163565b9e9d5050505050505050505050505050565b6001600160a01b038316815260408101611ca16020830184611eaf565b60008060006060848603121561229557600080fd5b8351925060208401519150604084015190509250925092565b600061ffff8083168185168083038211156122cb576122cb6120c2565b01949350505050565b600080604083850312156122e757600080fd5b505080516020909101519092909150565b6001600160a01b0385168152608081016123156020830186611eaf565b60408201939093526060015292915050565b6001600160a01b0384168152606081016123446020830185611eaf565b826040830152949350505050565b600080821280156001600160ff1b0384900385131615612374576123746120c2565b600160ff1b839003841281161561238d5761238d6120c2565b5050019056fea26469706673582212209b709e7b030f7882b9fa6bc6ce9c889bab8b55783c4267c0ad9e4675285c25c264736f6c63430008090033","linkReferences":{}},"methodIdentifiers":{"applicants(address)":"ccd66863","applicationWindowCloseTime()":"abb30a85","challengeAddress()":"29d18879","configHash()":"e1f1176d","debugTimes()":"b4d7b465","decideOnParticpants(uint8)":"74b4a510","getChallengeTaskReps()":"5c0d857f","getSelectedParticipants()":"bf6aff7f","getTaskType()":"7528f565","getTopN(uint256)":"654f4575","publisher()":"8c72c54e","register(bytes32)":"e1fa8e84","registerChallenge(address)":"a8ad1527","taskRepsApplied()":"ce03cded","updateUserTaskReps()":"24f43993"},"id":1}