{"abi":[{"type":"constructor","inputs":[{"name":"taskSpecs","type":"tuple","internalType":"struct ChallengeSpecifications","components":[{"name":"modelHash","type":"bytes32","internalType":"bytes32"},{"name":"min_collateral","type":"uint256","internalType":"uint256"},{"name":"max_collateral","type":"uint256","internalType":"uint256"},{"name":"managerAddress","type":"address","internalType":"address"},{"name":"reward","type":"uint256","internalType":"uint256"},{"name":"min_rounds","type":"uint8","internalType":"uint8"},{"name":"punishfactor","type":"uint8","internalType":"uint8"},{"name":"punishfactorContrib","type":"uint8","internalType":"uint8"},{"name":"freeriderPenalty","type":"uint8","internalType":"uint8"},{"name":"taskType","type":"uint8","internalType":"enum TaskType"},{"name":"jobListingAddress","type":"address","internalType":"address"}]}],"stateMutability":"payable"},{"type":"fallback","stateMutability":"nonpayable"},{"type":"function","name":"absUint","inputs":[{"name":"x","type":"int256","internalType":"int256"}],"outputs":[{"name":"","type":"uint256","internalType":"uint256"}],"stateMutability":"pure"},{"type":"function","name":"computeAndRecordTaskReps","inputs":[],"outputs":[],"stateMutability":"nonpayable"},{"type":"function","name":"contributionScore","inputs":[{"name":"","type":"uint8","internalType":"uint8"},{"name":"","type":"address","internalType":"address"}],"outputs":[{"name":"","type":"int256","internalType":"int256"}],"stateMutability":"view"},{"type":"function","name":"contributionStart","inputs":[],"outputs":[{"name":"","type":"uint256","internalType":"uint256"}],"stateMutability":"view"},{"type":"function","name":"exitModel","inputs":[],"outputs":[],"stateMutability":"nonpayable"},{"type":"function","name":"feedback","inputs":[{"name":"target","type":"address","internalType":"address"},{"name":"score","type":"int256","internalType":"int256"}],"outputs":[],"stateMutability":"nonpayable"},{"type":"function","name":"finalizeReputations","inputs":[],"outputs":[],"stateMutability":"nonpayable"},{"type":"function","name":"freeriderPenalty","inputs":[],"outputs":[{"name":"","type":"uint256","internalType":"uint256"}],"stateMutability":"view"},{"type":"function","name":"getAllAccuraciesAbout","inputs":[{"name":"target","type":"address","internalType":"address"}],"outputs":[{"name":"voters","type":"address[]","internalType":"address[]"},{"name":"accuracies","type":"uint16[]","internalType":"uint16[]"}],"stateMutability":"view"},{"type":"function","name":"getAllAccuraciesLossesAbout","inputs":[{"name":"target","type":"address","internalType":"address"}],"outputs":[{"name":"voters","type":"address[]","internalType":"address[]"},{"name":"accuracies","type":"uint16[]","internalType":"uint16[]"},{"name":"losses","type":"uint16[]","internalType":"uint16[]"}],"stateMutability":"view"},{"type":"function","name":"getAllLossesAbout","inputs":[{"name":"target","type":"address","internalType":"address"}],"outputs":[{"name":"voters","type":"address[]","internalType":"address[]"},{"name":"losses","type":"uint16[]","internalType":"uint16[]"}],"stateMutability":"view"},{"type":"function","name":"getAllPreviousAccuraciesAndLosses","inputs":[],"outputs":[{"name":"previous_accuracies","type":"uint16[]","internalType":"uint16[]"},{"name":"previous_losses","type":"uint16[]","internalType":"uint16[]"}],"stateMutability":"view"},{"type":"function","name":"getTaskRepDeltaAndGRS","inputs":[],"outputs":[{"name":"","type":"tuple[]","internalType":"struct OpenFLChallenge.TaskRep[]","components":[{"name":"user","type":"address","internalType":"address"},{"name":"delta","type":"int256","internalType":"int256"},{"name":"globalReputationScore","type":"uint256","internalType":"uint256"},{"name":"positiveVotes","type":"uint256","internalType":"uint256"},{"name":"totalVotes","type":"uint256","internalType":"uint256"}]}],"stateMutability":"view"},{"type":"function","name":"getTaskRepRecords","inputs":[],"outputs":[{"name":"","type":"tuple[]","internalType":"struct TaskRepRecord[]","components":[{"name":"user","type":"address","internalType":"address"},{"name":"newTaskRep","type":"uint256","internalType":"uint256"},{"name":"newRunningCMean","type":"uint256","internalType":"uint256"},{"name":"newM2","type":"uint256","internalType":"uint256"},{"name":"newIntegrityRep","type":"uint256","internalType":"uint256"},{"name":"applyGIR","type":"bool","internalType":"bool"}]}],"stateMutability":"view"},{"type":"function","name":"hasVoted","inputs":[{"name":"","type":"address","internalType":"address"},{"name":"","type":"address","internalType":"address"}],"outputs":[{"name":"","type":"bool","internalType":"bool"}],"stateMutability":"view"},{"type":"function","name":"initTS","inputs":[],"outputs":[{"name":"","type":"uint256","internalType":"uint256"}],"stateMutability":"view"},{"type":"function","name":"isContributionRoundDone","inputs":[],"outputs":[{"name":"roundClosed","type":"bool","internalType":"bool"}],"stateMutability":"view"},{"type":"function","name":"isFeedBackRoundDone","inputs":[],"outputs":[{"name":"roundClosed","type":"bool","internalType":"bool"}],"stateMutability":"view"},{"type":"function","name":"managerAddress","inputs":[],"outputs":[{"name":"","type":"address","internalType":"address"}],"stateMutability":"view"},{"type":"function","name":"max_collateral","inputs":[],"outputs":[{"name":"","type":"uint256","internalType":"uint256"}],"stateMutability":"view"},{"type":"function","name":"min_collateral","inputs":[],"outputs":[{"name":"","type":"uint256","internalType":"uint256"}],"stateMutability":"view"},{"type":"function","name":"min_rounds","inputs":[],"outputs":[{"name":"","type":"uint8","internalType":"uint8"}],"stateMutability":"view"},{"type":"function","name":"modelHash","inputs":[],"outputs":[{"name":"","type":"bytes32","internalType":"bytes32"}],"stateMutability":"view"},{"type":"function","name":"nrOfActiveParticipants","inputs":[],"outputs":[{"name":"","type":"uint256","internalType":"uint256"}],"stateMutability":"view"},{"type":"function","name":"nrOfContributionScores","inputs":[{"name":"","type":"uint8","internalType":"uint8"}],"outputs":[{"name":"","type":"uint256","internalType":"uint256"}],"stateMutability":"view"},{"type":"function","name":"nrOfProvidedHashedWeights","inputs":[],"outputs":[{"name":"","type":"uint256","internalType":"uint256"}],"stateMutability":"view"},{"type":"function","name":"participants","inputs":[{"name":"","type":"uint256","internalType":"uint256"}],"outputs":[{"name":"","type":"address","internalType":"address"}],"stateMutability":"view"},{"type":"function","name":"positiveVotesGivenByTo","inputs":[{"name":"","type":"address","internalType":"address"},{"name":"","type":"address","internalType":"address"}],"outputs":[{"name":"","type":"uint256","internalType":"uint256"}],"stateMutability":"view"},{"type":"function","name":"positiveVotesReceived","inputs":[{"name":"","type":"address","internalType":"address"}],"outputs":[{"name":"","type":"uint256","internalType":"uint256"}],"stateMutability":"view"},{"type":"function","name":"prev_accs","inputs":[{"name":"","type":"uint8","internalType":"uint8"},{"name":"","type":"address","internalType":"address"}],"outputs":[{"name":"","type":"uint16","internalType":"uint16"}],"stateMutability":"view"},{"type":"function","name":"prev_losses","inputs":[{"name":"","type":"uint8","internalType":"uint8"},{"name":"","type":"address","internalType":"address"}],"outputs":[{"name":"","type":"uint16","internalType":"uint16"}],"stateMutability":"view"},{"type":"function","name":"provideHashedWeights","inputs":[{"name":"hashedWeights","type":"bytes32","internalType":"bytes32"},{"name":"salt","type":"uint256","internalType":"uint256"}],"outputs":[],"stateMutability":"nonpayable"},{"type":"function","name":"punishfactor","inputs":[],"outputs":[{"name":"","type":"uint8","internalType":"uint8"}],"stateMutability":"view"},{"type":"function","name":"punishfactorContrib","inputs":[],"outputs":[{"name":"","type":"uint8","internalType":"uint8"}],"stateMutability":"view"},{"type":"function","name":"registerSlot","inputs":[{"name":"_secret","type":"bytes32","internalType":"bytes32"}],"outputs":[],"stateMutability":"nonpayable"},{"type":"function","name":"registrationProcess","inputs":[],"outputs":[],"stateMutability":"payable"},{"type":"function","name":"rewardLeft","inputs":[],"outputs":[{"name":"","type":"uint256","internalType":"uint256"}],"stateMutability":"view"},{"type":"function","name":"rewardPerRound","inputs":[],"outputs":[{"name":"","type":"uint256","internalType":"uint256"}],"stateMutability":"view"},{"type":"function","name":"round","inputs":[],"outputs":[{"name":"","type":"uint8","internalType":"uint8"}],"stateMutability":"view"},{"type":"function","name":"roundStart","inputs":[],"outputs":[{"name":"","type":"uint256","internalType":"uint256"}],"stateMutability":"view"},{"type":"function","name":"secretOf","inputs":[{"name":"","type":"address","internalType":"address"},{"name":"","type":"uint8","internalType":"uint8"}],"outputs":[{"name":"","type":"bytes32","internalType":"bytes32"}],"stateMutability":"view"},{"type":"function","name":"setTesting","inputs":[{"name":"_testing","type":"bool","internalType":"bool"}],"outputs":[],"stateMutability":"nonpayable"},{"type":"function","name":"settle","inputs":[],"outputs":[],"stateMutability":"nonpayable"},{"type":"function","name":"submitContributionScore","inputs":[{"name":"score","type":"int256","internalType":"int256"}],"outputs":[],"stateMutability":"nonpayable"},{"type":"function","name":"submitFeedbackBytes","inputs":[{"name":"raw","type":"bytes","internalType":"bytes"}],"outputs":[],"stateMutability":"nonpayable"},{"type":"function","name":"submitFeedbackBytesAndAccuracies","inputs":[{"name":"raw","type":"bytes","internalType":"bytes"},{"name":"accuracies","type":"uint16[]","internalType":"uint16[]"},{"name":"prev_acc","type":"uint16","internalType":"uint16"}],"outputs":[],"stateMutability":"nonpayable"},{"type":"function","name":"submitFeedbackBytesAndAccuraciesLosses","inputs":[{"name":"raw","type":"bytes","internalType":"bytes"},{"name":"accuracies","type":"uint16[]","internalType":"uint16[]"},{"name":"losses","type":"uint16[]","internalType":"uint16[]"},{"name":"prev_acc","type":"uint16","internalType":"uint16"},{"name":"prev_loss","type":"uint16","internalType":"uint16"}],"outputs":[],"stateMutability":"nonpayable"},{"type":"function","name":"submitFeedbackBytesAndLosses","inputs":[{"name":"raw","type":"bytes","internalType":"bytes"},{"name":"losses","type":"uint16[]","internalType":"uint16[]"},{"name":"prev_loss","type":"uint16","internalType":"uint16"}],"outputs":[],"stateMutability":"nonpayable"},{"type":"function","name":"taskRepRecordsWritten","inputs":[],"outputs":[{"name":"","type":"bool","internalType":"bool"}],"stateMutability":"view"},{"type":"function","name":"taskType","inputs":[],"outputs":[{"name":"","type":"uint8","internalType":"enum TaskType"}],"stateMutability":"view"},{"type":"function","name":"testing","inputs":[],"outputs":[{"name":"","type":"bool","internalType":"bool"}],"stateMutability":"view"},{"type":"function","name":"totalReward","inputs":[],"outputs":[{"name":"","type":"uint256","internalType":"uint256"}],"stateMutability":"view"},{"type":"function","name":"totalVotesGivenByTo","inputs":[{"name":"","type":"address","internalType":"address"},{"name":"","type":"address","internalType":"address"}],"outputs":[{"name":"","type":"uint256","internalType":"uint256"}],"stateMutability":"view"},{"type":"function","name":"totalVotesReceived","inputs":[{"name":"","type":"address","internalType":"address"}],"outputs":[{"name":"","type":"uint256","internalType":"uint256"}],"stateMutability":"view"},{"type":"function","name":"users","inputs":[{"name":"","type":"address","internalType":"address"}],"outputs":[{"name":"weightedContribScore","type":"int256","internalType":"int256"},{"name":"globalReputationScore","type":"uint256","internalType":"uint256"},{"name":"taskRepDelta","type":"int256","internalType":"int256"},{"name":"roundReputation","type":"int256","internalType":"int256"},{"name":"addr","type":"address","internalType":"address"},{"name":"nrOfRoundsParticipated","type":"uint8","internalType":"uint8"},{"name":"nrOfVotesFromUser","type":"uint8","internalType":"uint8"},{"name":"isPunished","type":"bool","internalType":"bool"},{"name":"isRegistered","type":"bool","internalType":"bool"},{"name":"isSelected","type":"bool","internalType":"bool"},{"name":"whitelistedForRewards","type":"bool","internalType":"bool"},{"name":"isDisqualified","type":"bool","internalType":"bool"}],"stateMutability":"view"},{"type":"function","name":"votedPositiveFor","inputs":[{"name":"","type":"address","internalType":"address"},{"name":"","type":"address","internalType":"address"}],"outputs":[{"name":"","type":"bool","internalType":"bool"}],"stateMutability":"view"},{"type":"function","name":"votesPerRound","inputs":[],"outputs":[{"name":"","type":"uint8","internalType":"uint8"}],"stateMutability":"view"},{"type":"function","name":"weightsOf","inputs":[{"name":"","type":"address","internalType":"address"},{"name":"","type":"uint8","internalType":"uint8"}],"outputs":[{"name":"","type":"bytes32","internalType":"bytes32"}],"stateMutability":"view"},{"type":"event","name":"ContributionScoreSubmitted","inputs":[{"name":"user","type":"address","indexed":true,"internalType":"address"},{"name":"contributionScore","type":"int256","indexed":false,"internalType":"int256"}],"anonymous":false},{"type":"event","name":"Disqualification","inputs":[{"name":"victim","type":"address","indexed":false,"internalType":"address"},{"name":"roundScore","type":"int256","indexed":false,"internalType":"int256"},{"name":"loss","type":"uint256","indexed":false,"internalType":"uint256"},{"name":"newReputation","type":"uint256","indexed":false,"internalType":"uint256"}],"anonymous":false},{"type":"event","name":"EndRound","inputs":[{"name":"round","type":"uint8","indexed":false,"internalType":"uint8"},{"name":"validVotes","type":"uint8","indexed":false,"internalType":"uint8"},{"name":"sumOfWeightedContribScore","type":"uint256","indexed":false,"internalType":"uint256"},{"name":"totalPunishment","type":"uint256","indexed":false,"internalType":"uint256"}],"anonymous":false},{"type":"event","name":"FederatedLearningModelDeployed","inputs":[{"name":"initTS","type":"uint256","indexed":false,"internalType":"uint256"},{"name":"max_collateral","type":"uint256","indexed":false,"internalType":"uint256"},{"name":"min_collateral","type":"uint256","indexed":false,"internalType":"uint256"},{"name":"total_reward","type":"uint256","indexed":false,"internalType":"uint256"},{"name":"min_rounds","type":"uint8","indexed":false,"internalType":"uint8"},{"name":"freerider_fee","type":"uint256","indexed":false,"internalType":"uint256"},{"name":"isTemplate","type":"bool","indexed":false,"internalType":"bool"}],"anonymous":false},{"type":"event","name":"Feedback","inputs":[{"name":"target","type":"address","indexed":false,"internalType":"address"},{"name":"user","type":"address","indexed":false,"internalType":"address"},{"name":"globalReputation","type":"uint256","indexed":false,"internalType":"uint256"},{"name":"newRoundReputation","type":"int256","indexed":false,"internalType":"int256"}],"anonymous":false},{"type":"event","name":"PassivPunishment","inputs":[{"name":"victim","type":"address","indexed":false,"internalType":"address"},{"name":"roundScore","type":"int256","indexed":false,"internalType":"int256"},{"name":"loss","type":"uint256","indexed":false,"internalType":"uint256"},{"name":"newReputation","type":"uint256","indexed":false,"internalType":"uint256"}],"anonymous":false},{"type":"event","name":"Punishment","inputs":[{"name":"victim","type":"address","indexed":false,"internalType":"address"},{"name":"roundScore","type":"int256","indexed":false,"internalType":"int256"},{"name":"loss","type":"uint256","indexed":false,"internalType":"uint256"},{"name":"newReputation","type":"uint256","indexed":false,"internalType":"uint256"}],"anonymous":false},{"type":"event","name":"Registered","inputs":[{"name":"user","type":"address","indexed":false,"internalType":"address"},{"name":"reputationValue","type":"uint256","indexed":false,"internalType":"uint256"},{"name":"totalCollateral","type":"uint256","indexed":false,"internalType":"uint256"},{"name":"numberOfContributers","type":"uint256","indexed":false,"internalType":"uint256"}],"anonymous":false},{"type":"event","name":"Reward","inputs":[{"name":"user","type":"address","indexed":false,"internalType":"address"},{"name":"roundScore","type":"int256","indexed":false,"internalType":"int256"},{"name":"win","type":"uint256","indexed":false,"internalType":"uint256"},{"name":"newReputation","type":"uint256","indexed":false,"internalType":"uint256"},{"name":"is_reward","type":"bool","indexed":false,"internalType":"bool"}],"anonymous":false},{"type":"event","name":"SelectedUsers","inputs":[{"name":"users","type":"address[]","indexed":false,"internalType":"address[]"}],"anonymous":false}],"bytecode":{"object":"0x608060408190526001805460ff19908116909155601080549091169055620065b0388190039081908339810160408190526200003b9162000445565b426004819055600a55805160005560208101516005556040810151600655608081015160075560a08101516001805460c084015160e085015163ffff000019909216630100000060ff9586160262ff000019161762010000918516919091021760ff60201b19166401000000009390911692909202919091178155610120820151600d80549192909160ff191690836008811115620000de57620000de62000514565b02179055508060600151600d60016101000a8154816001600160a01b0302191690836001600160a01b03160217905550606481610100015160ff1660055462000128919062000540565b62000134919062000562565b600c5560015460075462000153916301000000900460ff169062000562565b600855600754600955600080826101200151600881111562000179576200017962000514565b1490508062000313576101408201516001600160a01b0316620001cf5760405162461bcd60e51b815260206004820152600a6024820152692727afa527a120a2222960b11b604482015260640160405180910390fd5b600082610140015190506000816001600160a01b031663bf6aff7f6040518163ffffffff1660e01b815260040160006040518083038186803b1580156200021557600080fd5b505afa1580156200022a573d6000803e3d6000fd5b505050506040513d6000823e601f3d908101601f1916820160405262000254919081019062000585565b90507fe3a485c29a588bf0adc0ff3e96a425340451287060e5b2abeb4146e23f731bd4816040516200028791906200063e565b60405180910390a160005b81518110156200030f57600160116000848481518110620002b757620002b76200068d565b60200260200101516001600160a01b03166001600160a01b0316815260200190815260200160002060040160186101000a81548160ff02191690831515021790555080806200030690620006a3565b91505062000292565b5050505b600454600554600654600754600154600c546040805196875260208701959095529385019290925260608401526301000000900460ff16608083015260a082015281151560c08201527f45efb12b2e98a3aa6d72220bc82942d21fd0ed1dd5f0f23379712ad813e779bc9060e00160405180910390a15050620006c1565b634e487b7160e01b600052604160045260246000fd5b60405161016081016001600160401b0381118282101715620003cd57620003cd62000391565b60405290565b604051601f8201601f191681016001600160401b0381118282101715620003fe57620003fe62000391565b604052919050565b80516001600160a01b03811681146200041e57600080fd5b919050565b805160ff811681146200041e57600080fd5b8051600981106200041e57600080fd5b600061016082840312156200045957600080fd5b62000463620003a7565b825181526020830151602082015260408301516040820152620004896060840162000406565b606082015260808301516080820152620004a660a0840162000423565b60a0820152620004b960c0840162000423565b60c0820152620004cc60e0840162000423565b60e0820152610100620004e181850162000423565b90820152610120620004f584820162000435565b908201526101406200050984820162000406565b908201529392505050565b634e487b7160e01b600052602160045260246000fd5b634e487b7160e01b600052601160045260246000fd5b60008160001904831182151516156200055d576200055d6200052a565b500290565b6000826200058057634e487b7160e01b600052601260045260246000fd5b500490565b600060208083850312156200059957600080fd5b82516001600160401b0380821115620005b157600080fd5b818501915085601f830112620005c657600080fd5b815181811115620005db57620005db62000391565b8060051b9150620005ee848301620003d3565b81815291830184019184810190888411156200060957600080fd5b938501935b838510156200063257620006228562000406565b825293850193908501906200060e565b98975050505050505050565b6020808252825182820181905260009190848201906040850190845b81811015620006815783516001600160a01b0316835292840192918401916001016200065a565b50909695505050505050565b634e487b7160e01b600052603260045260246000fd5b6000600019821415620006ba57620006ba6200052a565b5060010190565b615edf80620006d16000396000f3fe6080604052600436106103805760003560e01c80635cf1bc1a116101d1578063a87430ba11610102578063dcc1484a116100a0578063f6020f011161006f578063f6020f0114610cf2578063fa569fa214610d12578063fcbace5d14610d4a578063fd5201be14610d6a57610380565b8063dcc1484a14610c87578063f25648d214610c9c578063f283865f14610cb2578063f5b2722814610cd257610380565b8063ca6e0385116100dc578063ca6e038514610bf3578063cc500ec914610c2e578063cf73a1bc14610c4d578063d6aad1b914610c7257610380565b8063a87430ba14610abd578063b986695b14610bc8578063c5f3de5a14610bde57610380565b80638cf6f32c1161016f57806393808c021161014957806393808c0214610a455780639699fee614610a725780639c00b9ea14610a92578063a41dacd614610aa757610380565b80638cf6f32c146109ee5780638d03b10214610a15578063904a9d1714610a2f57610380565b8063667ba0f6116101ab578063667ba0f61461092a578063701341ed14610979578063750142e61461099c5780638b2f56fb146109b257610380565b80635cf1bc1a146108bc57806363fa2823146108ea57806364a3e2211461090a57610380565b8063299a0c00116102b65780633f4f2d62116102545780634d4d2b1c116102235780634d4d2b1c1461080f5780634ebf31da1461084a578063508be15e1461087957806359ac0c461461088f57610380565b80633f4f2d621461077e578063403658521461079f57806345e4c379146107b557806346834d00146107ed57610380565b80633717ef09116102905780633717ef09146107085780633aa8f2ed146107285780633b1c5aed146107485780633eee04261461076857610380565b8063299a0c001461068257806333f93bcd146106ba57806335c1d349146106d057610380565b8063146ca531116103235780631b2ccc09116102fd5780631b2ccc09146105f557806328624ce61461060b578063287e0c8e1461062b578063298a0c881461065857610380565b8063146ca5311461059f578063168d0ccb146105cb578063186beae3146105d357610380565b80630899604c1161035f5780630899604c1461050d57806308ed8d1614610524578063095083af1461055257806311da60b41461058a57610380565b80625c43a51461048a57806302dc06d3146104b357806307684181146104eb575b34801561038c57600080fd5b50606080600080600060343604604051955060208102602001860160405280865260005b818110156103d857823560601c602082810289010181905294506014909201916001016103b0565b506040519450602081026020018501604052808552600093505b8084101561041a578135925082602085026020870101526020820191506001840193506103f2565b5050505060005b82518110156104855760105460ff166104735761047383828151811061044957610449615578565b602002602001015183838151811061046357610463615578565b602002602001015160010b610d80565b8061047d816155a4565b915050610421565b505050005b34801561049657600080fd5b506104a0600c5481565b6040519081526020015b60405180910390f35b3480156104bf57600080fd5b506104a06104ce3660046155db565b601860209081526000928352604080842090915290825290205481565b3480156104f757600080fd5b506105006111d5565b6040516104aa919061560e565b34801561051957600080fd5b50610522611278565b005b34801561053057600080fd5b5061052261053f366004615691565b6010805460ff1916911515919091179055565b34801561055e57600080fd5b506104a061056d3660046156c4565b601460209081526000928352604080842090915290825290205481565b34801561059657600080fd5b50610522611552565b3480156105ab57600080fd5b506001546105b99060ff1681565b60405160ff90911681526020016104aa565b610522612832565b3480156105df57600080fd5b506001546105b990640100000000900460ff1681565b34801561060157600080fd5b506104a060005481565b34801561061757600080fd5b5061052261062636600461578c565b6129b2565b34801561063757600080fd5b506104a0610646366004615846565b601b6020526000908152604090205481565b34801561066457600080fd5b506021546106729060ff1681565b60405190151581526020016104aa565b34801561068e57600080fd5b506104a061069d3660046155db565b601960209081526000928352604080842090915290825290205481565b3480156106c657600080fd5b506104a060085481565b3480156106dc57600080fd5b506106f06106eb366004615861565b6129f7565b6040516001600160a01b0390911681526020016104aa565b34801561071457600080fd5b5061052261072336600461587a565b612a21565b34801561073457600080fd5b506105226107433660046158fa565b610d80565b34801561075457600080fd5b5061052261076336600461587a565b612c30565b34801561077457600080fd5b506104a060095481565b34801561078a57600080fd5b506001546105b9906301000000900460ff1681565b3480156107ab57600080fd5b506104a0600a5481565b3480156107c157600080fd5b506104a06107d03660046156c4565b601560209081526000928352604080842090915290825290205481565b3480156107f957600080fd5b50610802612e2f565b6040516104aa9190615924565b34801561081b57600080fd5b5061067261082a3660046155db565b601260209081526000928352604080842090915290825290205460ff1681565b34801561085657600080fd5b5061086a610865366004615846565b612f7c565b6040516104aa93929190615a06565b34801561088557600080fd5b506104a060055481565b34801561089b57600080fd5b506104a06108aa366004615a49565b60176020526000908152604090205481565b3480156108c857600080fd5b506108dc6108d7366004615846565b613432565b6040516104aa929190615a64565b3480156108f657600080fd5b506104a0610905366004615861565b613839565b34801561091657600080fd5b50610522610925366004615a89565b613859565b34801561093657600080fd5b50610966610945366004615aab565b601d60209081526000928352604080842090915290825290205461ffff1681565b60405161ffff90911681526020016104aa565b34801561098557600080fd5b5061098e6139b6565b6040516104aa929190615ac7565b3480156109a857600080fd5b506104a060075481565b3480156109be57600080fd5b506109666109cd366004615aab565b601c60209081526000928352604080842090915290825290205461ffff1681565b3480156109fa57600080fd5b50600d54610a089060ff1681565b6040516104aa9190615b12565b348015610a2157600080fd5b506010546106729060ff1681565b348015610a3b57600080fd5b506104a060065481565b348015610a5157600080fd5b506104a0610a60366004615846565b601a6020526000908152604090205481565b348015610a7e57600080fd5b50610522610a8d366004615b20565b613caa565b348015610a9e57600080fd5b50610522613d00565b348015610ab357600080fd5b506104a0600b5481565b348015610ac957600080fd5b50610b59610ad8366004615846565b60116020526000908152604090208054600182015460028301546003840154600490940154929391929091906001600160a01b0381169060ff600160a01b8204811691600160a81b8104821691600160b01b8204811691600160b81b8104821691600160c01b8204811691600160c81b8104821691600160d01b909104168c565b604080519c8d5260208d019b909b52998b019890985260608a01969096526001600160a01b03909416608089015260ff92831660a0890152911660c0870152151560e08601521515610100850152151561012084015215156101408301521515610160820152610180016104aa565b348015610bd457600080fd5b506104a060035481565b348015610bea57600080fd5b50610522614081565b348015610bff57600080fd5b50610672610c0e3660046155db565b601360209081526000928352604080842090915290825290205460ff1681565b348015610c3a57600080fd5b506001546105b990610100900460ff1681565b348015610c5957600080fd5b50600d546106f09061010090046001600160a01b031681565b348015610c7e57600080fd5b5061067261408b565b348015610c9357600080fd5b50610672614166565b348015610ca857600080fd5b506104a060025481565b348015610cbe57600080fd5b50610522610ccd366004615861565b61423b565b348015610cde57600080fd5b50610522610ced366004615861565b614387565b348015610cfe57600080fd5b506108dc610d0d366004615846565b614435565b348015610d1e57600080fd5b506104a0610d2d366004615aab565b601660209081526000928352604080842090915290825290205481565b348015610d5657600080fd5b506001546105b99062010000900460ff1681565b348015610d7657600080fd5b506104a060045481565b33600090815260116020526040902060040154600160b81b900460ff16610dc25760405162461bcd60e51b8152600401610db990615b61565b60405180910390fd5b816001600160a01b038116331415610e025760405162461bcd60e51b815260206004820152600360248201526214d15560ea1b6044820152606401610db9565b3360009081526012602090815260408083206001600160a01b038516845290915290205460ff1615610e5c5760405162461bcd60e51b815260206004820152600360248201526256414360e81b6044820152606401610db9565b6002546003541480610e7d57504262015180600a54610e7b9190615b7e565b105b610eaf5760405162461bcd60e51b815260206004820152600360248201526246524360e81b6044820152606401610db9565b3360008181526012602090815260408083206001600160a01b03881684528252808320805460ff19166001908117909155938352601190915290206004018054601590610f07908490600160a81b900460ff16615b96565b92506101000a81548160ff021916908360ff16021790555060018060018282829054906101000a900460ff16610f3d9190615b96565b825460ff9182166101009390930a9283029190920219909116179055503360009081526019602090815260408083206001600160a01b03871684529091528120805460019290610f8e908490615b7e565b90915550506001600160a01b0383166000908152601b60205260408120805460019290610fbc908490615b7e565b90915550506001821415611032573360009081526018602090815260408083206001600160a01b03871684529091528120805460019290610ffe908490615b7e565b90915550506001600160a01b0383166000908152601a6020526040812080546001929061102c908490615b7e565b90915550505b81600114156110b3573360008181526013602090815260408083206001600160a01b03881684528252808320805460ff191660019081179091559383526011909152902081015461108291615bbb565b6001600160a01b038416600090815260116020526040812060030180549091906110ad908490615c40565b90915550505b816000191415611130573360008181526013602090815260408083206001600160a01b03881684528252808320805460ff1916905592825260119052206001908101546110ff91615bbb565b6001600160a01b0384166000908152601160205260408120600301805490919061112a908490615c81565b90915550505b81611161573360009081526013602090815260408083206001600160a01b03871684529091529020805460ff191690555b336000818152601160209081526040808320600101546001600160a01b038816808552938290206003015482519485529284019490945282810193909352606082015290517fd69fe95841f16237d39b30bbb2ed7633b307fb0addc4bb890b6a3a77e04f5f7f9181900360800190a1505050565b60606022805480602002602001604051908101604052809291908181526020016000905b8282101561126f5760008481526020908190206040805160c0810182526006860290920180546001600160a01b031683526001808201548486015260028201549284019290925260038101546060840152600481015460808401526005015460ff16151560a083015290835290920191016111f9565b50505050905090565b33600090815260116020526040902060040154600160b81b900460ff166112b15760405162461bcd60e51b8152600401610db990615b61565b600254600354141580156112d457504262015180600a546112d29190615b7e565b115b6113055760405162461bcd60e51b81526020600482015260026024820152614e4160f01b6044820152606401610db9565b33600090815260156020908152604080832060015460ff168452909152902054156113585760405162461bcd60e51b815260206004820152600360248201526257464560e81b6044820152606401610db9565b33600090815260116020526040902060018101548061139f5760405162461bcd60e51b81526020600482015260036024820152622722a360e91b6044820152606401610db9565b60006001830181905560048301805460ff60b81b191690555b600e548110156114be57336001600160a01b0316600e82815481106113df576113df615578565b6000918252602090912001546001600160a01b031614156114ac57600e805461140a90600190615cc0565b8154811061141a5761141a615578565b600091825260209091200154600e80546001600160a01b03909216918390811061144657611446615578565b9060005260206000200160006101000a8154816001600160a01b0302191690836001600160a01b03160217905550600e80548061148557611485615cd7565b600082815260209020810160001990810180546001600160a01b03191690550190556114be565b806114b6816155a4565b9150506113b8565b50604051600090339083908381818185875af1925050503d8060008114611501576040519150601f19603f3d011682016040523d82523d6000602084013e611506565b606091505b505090508061154d5760405162461bcd60e51b8152602060048201526013602482015272115512081d1c985b9cd9995c8819985a5b1959606a1b6044820152606401610db9565b505050565b60008060005b600e5481101561161457600060116000600e848154811061157b5761157b615578565b60009182526020808320909101546001600160a01b031683528201929092526040019020600481015490915060ff600160a01b909104166001141561160157600c548160010160008282546115d09190615cc0565b9091555050600c546002820180546000906115ec908490615c81565b9091555050600c546115fe9084615b7e565b92505b508061160c816155a4565b915050611558565b5060005b600e54811015611a1857600060116000600e848154811061163b5761163b615578565b60009182526020808320909101546001600160a01b031683528201929092526040019020600481015490915060ff600160b81b90910416801561168a57506004810154600160d01b900460ff16155b15611a05576000816003015412156119ef5760048101546001805460ff600160a81b90930483169282916116c5918591610100900416615ced565b92506101000a81548160ff021916908360ff1602179055506000600160029054906101000a900460ff1660ff1682600101546117019190615d26565b90506000600160029054906101000a900460ff1660ff16600554846002015461172a9190615c40565b6117349190615d3a565b90506000808213611746576000611748565b815b600154600554919250611765916201000090910460ff1690615d26565b846001015411156118a85760048401805460ff60b01b1916600160b01b179055600e8054600f91908790811061179d5761179d615578565b6000918252602080832090910154835460018181018655948452919092200180546001600160a01b0319166001600160a01b0390921691909117905560048501805460ff60c81b191690558401546117f6908490615cc0565b8460010181905550808460020160008282546118129190615c81565b90915550506003840154611827908490615c81565b60038501556118368388615b7e565b96507f641368b934d33e657fe49c6af1c0e5b618d4dc123f53fc3f8d5f15fee5f4fb86600e868154811061186c5761186c615578565b6000918252602090912001546003860154600187015460405161189b936001600160a01b031692918891615d68565b60405180910390a16119e7565b60048401805461ffff60b01b1916600160b01b179055600e8054600f9190879081106118d6576118d6615578565b6000918252602080832090910154835460018181018655948452919092200180546001600160a01b0319166001600160a01b0390921691909117905560048501805460ff60c81b1916905584015461192e9088615b7e565b9650611941670de0b6b3a7640000615d8e565b60028501556004840154600385015460018601546040517f6a461179a109ac5a4f65774b04343a475dd7d089ffa5a31552a4d71e0a1e7b4f93611994936001600160a01b03909116929091600090615d68565b60405180910390a1600084600101819055506001600260008282546119b99190615cc0565b909155505060048401805460ff60d01b198116600160d01b179091556119e7906001600160a01b031661483a565b505050611a05565b60048101805460ff60c81b1916600160c81b1790555b5080611a10816155a4565b915050611618565b5060005b600e54811015611cba57600060116000600e8481548110611a3f57611a3f615578565b60009182526020808320909101546001600160a01b031683528201929092526040019020600481015490915060ff600160b81b909104161580611a8d57506004810154600160d01b900460ff165b80611aa357506004810154600160b01b900460ff165b15611aae5750611ca8565b6000805b600f54811015611c485760136000600e8681548110611ad357611ad3615578565b60009182526020808320909101546001600160a01b031683528201929092526040018120600f805491929184908110611b0e57611b0e615578565b60009182526020808320909101546001600160a01b0316835282019290925260400190205460ff1615611c3657600060136000600e8781548110611b5457611b54615578565b60009182526020808320909101546001600160a01b031683528201929092526040018120600f805491929185908110611b8f57611b8f615578565b6000918252602080832091909101546001600160a01b031683528201929092526040019020805460ff1916911515919091179055600e8054600193507f1774dd77faaf323cd25b2f963ff975744949b339a6d103b4e3959263f6c2f977919086908110611bfe57611bfe615578565b600091825260208220015460038601546001870154604051611c2d946001600160a01b03909416939190615d68565b60405180910390a15b80611c40816155a4565b915050611ab2565b508015611ca55760048201546001805460ff600160a81b9093048316928291611c78918591610100900416615ced565b825460ff9182166101009390930a92830291909202199091161790555060048201805460ff60c81b191690555b50505b80611cb2816155a4565b915050611a1c565b5060005b600e54811015611deb57600060116000600e8481548110611ce157611ce1615578565b60009182526020808320909101546001600160a01b031683528201929092526040019020600481015490915060ff600160b81b90910416611d225750611dd9565b6004810154600160d01b900460ff1615611d3c5750611dd9565b6004810154600160a01b900460ff16600114611d585750611dd9565b6004810154600160c81b900460ff1615611db857600c54816001016000828254611d829190615b7e565b9091555050600c54600282018054600090611d9e908490615c40565b9091555050600c54611db09084615cc0565b925050611dd9565b600c54611dc59085615b7e565b9350600c5483611dd59190615cc0565b9250505b80611de3816155a4565b915050611cbe565b506001546000908190610100900460ff1615801590611e0e575060085460095410155b156126185760085460096000828254611e279190615cc0565b9091555050600854600090611e3d908690615b7e565b905060005b600e54811015611f3857600060116000600e8481548110611e6557611e65615578565b60009182526020808320909101546001600160a01b0316835282019290925260400190209050611e9481614965565b8015611eca575060015460ff16600090815260166020908152604080832060048501546001600160a01b03168452909152812054135b15611f255760015460ff908116600090815260166020908152604080832060048601546001600160a01b038116855292528220549192611f129291600160a81b900416615bbb565b8083559050611f218187615c40565b9550505b5080611f30816155a4565b915050611e42565b5060008313611f605760085460096000828254611f559190615b7e565b909155506126169050565b82915060005b600e5481101561248757600060116000600e8481548110611f8957611f89615578565b60009182526020808320909101546001600160a01b0316835282019290925260400190209050611fb881614965565b8015611fee575060015460ff16600090815260166020908152604080832060048501546001600160a01b03168452909152812054125b1561247457600154640100000000900460ff1661204d5760405162461bcd60e51b815260206004820152601860248201527f70756e697368666163746f72636f6e74726962203c3d203000000000000000006044820152606401610db9565b60008160010154116120a15760405162461bcd60e51b815260206004820152601a60248201527f757365722e676c6f62616c72657075746174696f6e203c3d20300000000000006044820152606401610db9565b60015460ff16600090815260166020908152604080832060048501546001600160a01b031684529091528120541261210a5760405162461bcd60e51b815260206004820152600c60248201526b0636f6e74726962203e3d20360a41b6044820152606401610db9565b60015460ff16600090815260166020908152604080832060048501546001600160a01b0316845290915281205461214090613839565b600180549084015461215d91640100000000900460ff1690615d26565b6121679190615dab565b60015460ff16600090815260166020908152604080832060048701546001600160a01b0316845290915281205491925090670de0b6b3a7640000906121ab90613839565b600154600554600287015464010000000090920460ff16916121cd9190615c40565b6121d79190615d3a565b6121e19190615bbb565b6121eb9190615d3a565b90506000821161223d5760405162461bcd60e51b815260206004820152601f60248201527f70756e6973686d656e74206973203c3d203020696e20736574746c65212031006044820152606401610db9565b61224f670de0b6b3a764000083615d26565b9150600082116122a15760405162461bcd60e51b815260206004820152601f60248201527f70756e6973686d656e74206973203c3d203020696e20736574746c65212032006044820152606401610db9565b6001546005546122bc91640100000000900460ff1690615d26565b83600101541115806122d2575081836001015411155b156123b45760018301546122e69086615b7e565b9450670de0b6b3a763ffff1983600201819055507f6a461179a109ac5a4f65774b04343a475dd7d089ffa5a31552a4d71e0a1e7b4f600e858154811061232e5761232e615578565b60009182526020822001546003860154600187015460405161235c946001600160a01b039094169390615d68565b60405180910390a1600083600101819055506001600260008282546123819190615cc0565b909155505060048301805460ff60d01b198116600160d01b179091556123af906001600160a01b031661483a565b612471565b818360010160008282546123c89190615cc0565b92505081905550808360020160008282546123e39190615c81565b909155506123f390508286615b7e565b600484015460038501546001860154604080516001600160a01b03909416845260208401929092529082018590526060820152600060808201529095507f8158d29a03513e7972f6b5bda3569b47e4e874fb6f992b071894b3ea87c3041e9060a00160405180910390a160048301805460ff60c81b19169055600083555b50505b508061247f816155a4565b915050611f66565b5060005b600e5481101561261457600060116000600e84815481106124ae576124ae615578565b60009182526020808320909101546001600160a01b03168352820192909252604001902090506124dd81614965565b8015612514575060015460ff16600090815260166020908152604080832060048501546001600160a01b0316845290915281205412155b156125ef578054600090859061252a9086615dab565b6125349190615d26565b90508082600101600082825461254a9190615b7e565b9091555050815460085460009187916125639190615dab565b61256d9190615d26565b9050808360020160008282546125839190615c40565b909155505060048301546003840154600180860154604080516001600160a01b039095168552602085019390935283830186905260608401526080830152517f8158d29a03513e7972f6b5bda3569b47e4e874fb6f992b071894b3ea87c3041e9181900360a00190a150505b60048101805460ff60c81b19169055600090558061260c816155a4565b91505061248b565b505b505b6001546040805160ff808416825261010090930490921660208301528101829052606081018590527f0fb9071657a7d7c77d4413e1c8487bb219c39de920f3297977dd60bf0e00d33d9060800160405180910390a160005b600e548110156127d957600060116000600e848154811061269357612693615578565b60009182526020808320909101546001600160a01b031683528201929092526040019020600481015490915060ff600160b81b9091041680156126e257506004810154600160d01b900460ff16155b156127c65760048101805460ff60a81b1916808255600060038401556001919060149061271a908490600160a01b900460ff16615b96565b825460ff9182166101009390930a92830291909202199091161790555060048101805460ff60b01b1916905560005b600e548110156127c45760048201546001600160a01b03166000908152601260205260408120600e80549192918490811061278657612786615578565b60009182526020808320909101546001600160a01b031683528201929092526040019020805460ff19169055806127bc816155a4565b915050612749565b505b50806127d1816155a4565b915050612670565b506001805481906000906127f190839060ff16615b96565b825460ff9182166101009390930a9283029190920219909116179055506001805461ff00191690556000600381905561282c90600f906153f8565b50505050565b33600081815260116020526040902060040154600160b81b900460ff16156128825760405162461bcd60e51b815260206004820152600360248201526229a0a960e91b6044820152606401610db9565b33600081815260116020526040902060040154600160c01b900460ff166128d15760405162461bcd60e51b815260206004820152600360248201526253554f60e81b6044820152606401610db9565b60055434101580156128e557506006543411155b6129175760405162461bcd60e51b8152602060048201526003602482015262272ba960e91b6044820152606401610db9565b33600081815260116020526040812060048101805434600180850191909155600162ff000160a81b0319909116909417630100000160a01b179055600280549193929091612966908490615b7e565b9091555050600e80546001810182556000919091527fbb7b4a454dc3493923482f07822329ed19e8244eff582cc204f8554c3620c3fd0180546001600160a01b03191633179055505050565b6000806129bf8a8a6149c0565b815191935091506129d39088878787614a57565b6129e133838a8a8a8a614b9d565b6129eb8282614cae565b50505050505050505050565b600e8181548110612a0757600080fd5b6000918252602090912001546001600160a01b0316905081565b606080612a2e87876149c0565b815191935091508414612a835760405162461bcd60e51b815260206004820181905260248201527f494e56414c49445f4c454e475448204f462041434355524143592041525241596044820152606401610db9565b60015460ff166000908152601f6020908152604080832033845282529182902082518084018452858152835188840281810185019095528881529193909283810192918a918a9182918501908490808284376000920182905250939094525050835460018101855593815260209081902083518051949560020290910193612b12935084929190910190615419565b506020828101518051612b2b926001850192019061547e565b50505061271061ffff84161115612bbd5760405162461bcd60e51b815260206004820152604a60248201527f50524556494f5553204143435552414359204e4f54204245545745454e20302060448201527f414e44203130303030207375626d6974466565646261636b4279746573416e646064820152694163637572616369657360b01b608482015260a401610db9565b60015460ff166000908152601c602090815260408083203384529091528120805461ffff191661ffff86161790555b8251811015612c265760105460ff16612c1457612c1483828151811061044957610449615578565b80612c1e816155a4565b915050612bec565b5050505050505050565b606080612c3d87876149c0565b815191935091508414612c925760405162461bcd60e51b815260206004820152601c60248201527f494e56414c49445f4c454e475448204f46204c4f5353204152524159000000006044820152606401610db9565b60015460ff1660009081526020808052604080832033845282529182902082518084018452858152835188840281810185019095528881529193909283810192918a918a9182918501908490808284376000920182905250939094525050835460018101855593815260209081902083518051949560020290910193612d1f935084929190910190615419565b506020828101518051612d38926001850192019061547e565b505060015460ff166000908152601d602090815260408083203384529091529020805461ffff191661ffff861690811790915561271010159050612df25760405162461bcd60e51b815260206004820152604560248201527f50524556494f5553204c4f5353204e4f54204245545745454e203020414e442060448201527f313030303020696e207375626d6974466565646261636b4279746573416e644c6064820152646f7373657360d81b608482015260a401610db9565b60005b8251811015612c265760105460ff16612e1d57612e1d83828151811061044957610449615578565b80612e27816155a4565b915050612df5565b600e546060906000816001600160401b03811115612e4f57612e4f615dca565b604051908082528060200260200182016040528015612ebb57816020015b612ea86040518060a0016040528060006001600160a01b03168152602001600081526020016000815260200160008152602001600081525090565b815260200190600190039081612e6d5790505b50905060005b82811015612f75576000600e8281548110612ede57612ede615578565b60009182526020808320909101546001600160a01b0316808352601182526040808420815160a081018352838152600282015481860152600182015481840152838652601a8552828620546060820152838652601b90945293205460808301528551909350859085908110612f5557612f55615578565b602002602001018190525050508080612f6d906155a4565b915050612ec1565b5092915050565b60608060606000805b600e548110156130ec57600060116000600e8481548110612fa857612fa8615578565b60009182526020808320909101546001600160a01b039081168452838201949094526040928301822060015460ff168352601e825283832060048201549095168352939052908120549192505b818110156130d65760015460ff166000908152601e6020908152604080832060048701546001600160a01b03168452909152812080548390811061303b5761303b615578565b9060005260206000209060030201905060005b81548110156130c1578a6001600160a01b031682600001828154811061307657613076615578565b6000918252602090912001546001600160a01b031614801561309c575061309c85614ceb565b156130af57866130ab816155a4565b9750505b806130b9816155a4565b91505061304e565b505080806130ce906155a4565b915050612ff5565b50505080806130e4906155a4565b915050612f85565b50806001600160401b0381111561310557613105615dca565b60405190808252806020026020018201604052801561312e578160200160208202803683370190505b509350806001600160401b0381111561314957613149615dca565b604051908082528060200260200182016040528015613172578160200160208202803683370190505b509250806001600160401b0381111561318d5761318d615dca565b6040519080825280602002602001820160405280156131b6578160200160208202803683370190505b5091506000805b600e5481101561342857600060116000600e84815481106131e0576131e0615578565b60009182526020808320909101546001600160a01b039081168452838201949094526040928301822060015460ff168352601e825283832060048201549095168352939052908120549192505b818110156134125760015460ff166000908152601e6020908152604080832060048701546001600160a01b03168452909152812080548390811061327357613273615578565b9060005260206000209060030201905060005b81548110156133fd578b6001600160a01b03168260000182815481106132ae576132ae615578565b6000918252602090912001546001600160a01b03161480156132d457506132d485614ceb565b156133eb5760048501548b516001600160a01b03909116908c90899081106132fe576132fe615578565b60200260200101906001600160a01b031690816001600160a01b03168152505081600101818154811061333357613333615578565b90600052602060002090601091828204019190066002029054906101000a900461ffff168a888151811061336957613369615578565b602002602001019061ffff16908161ffff168152505081600201818154811061339457613394615578565b90600052602060002090601091828204019190066002029054906101000a900461ffff168988815181106133ca576133ca615578565b61ffff90921660209283029190910190910152866133e7816155a4565b9750505b806133f5816155a4565b915050613286565b5050808061340a906155a4565b91505061322d565b5050508080613420906155a4565b9150506131bd565b5050509193909250565b6060806000805b600e5481101561359d57600060116000600e848154811061345c5761345c615578565b60009182526020808320909101546001600160a01b039081168452838201949094526040928301822060015460ff16835281805283832060048201549095168352939052908120549192505b818110156135875760015460ff1660009081526020808052604080832060048701546001600160a01b0316845290915281208054839081106134ec576134ec615578565b9060005260206000209060020201905060005b815481101561357257896001600160a01b031682600001828154811061352757613527615578565b6000918252602090912001546001600160a01b031614801561354d575061354d85614ceb565b15613560578661355c816155a4565b9750505b8061356a816155a4565b9150506134ff565b5050808061357f906155a4565b9150506134a8565b5050508080613595906155a4565b915050613439565b50806001600160401b038111156135b6576135b6615dca565b6040519080825280602002602001820160405280156135df578160200160208202803683370190505b509250806001600160401b038111156135fa576135fa615dca565b604051908082528060200260200182016040528015613623578160200160208202803683370190505b5091506000805b600e5481101561383157600060116000600e848154811061364d5761364d615578565b60009182526020808320909101546001600160a01b039081168452838201949094526040928301822060015460ff16835281805283832060048201549095168352939052908120549192505b8181101561381b5760015460ff1660009081526020808052604080832060048701546001600160a01b0316845290915281208054839081106136dd576136dd615578565b9060005260206000209060020201905060005b8154811015613806578a6001600160a01b031682600001828154811061371857613718615578565b6000918252602090912001546001600160a01b031614801561373e575061373e85614ceb565b156137f45760048501548a516001600160a01b03909116908b908990811061376857613768615578565b60200260200101906001600160a01b031690816001600160a01b03168152505081600101818154811061379d5761379d615578565b90600052602060002090601091828204019190066002029054906101000a900461ffff168988815181106137d3576137d3615578565b61ffff90921660209283029190910190910152866137f0816155a4565b9750505b806137fe816155a4565b9150506136f0565b50508080613813906155a4565b915050613699565b5050508080613829906155a4565b91505061362a565b505050915091565b6000808212156138515761384c82615d8e565b613853565b815b92915050565b33600090815260116020526040902060040154600160b81b900460ff166138925760405162461bcd60e51b8152600401610db990615b61565b33600090815260156020908152604080832060015460ff168452909152902054156138e55760405162461bcd60e51b815260206004820152600360248201526205341560ec1b6044820152606401610db9565b604080516020810184905290810182905233606090811b6bffffffffffffffffffffffff19169082015260740160408051601f1981840301815291815281516020928301203360009081526014845282812060015460ff168252909352912054146139785760405162461bcd60e51b81526020600482015260036024820152624e4b5360e81b6044820152606401610db9565b3360009081526015602090815260408083206001805460ff1685529252822084905560038054919290916139ad908490615b7e565b90915550505050565b6060806000805b600e54811015613a6657600060116000600e84815481106139e0576139e0615578565b60009182526020808320909101546001600160a01b031683528201929092526040019020600481015490915060ff600160b81b909104168015613a2f57506004810154600160d01b900460ff16155b8015613a4057506000816003015412155b15613a5357613a50600184615b96565b92505b5080613a5e816155a4565b9150506139bd565b508060ff166001600160401b03811115613a8257613a82615dca565b604051908082528060200260200182016040528015613aab578160200160208202803683370190505b5092508060ff166001600160401b03811115613ac957613ac9615dca565b604051908082528060200260200182016040528015613af2578160200160208202803683370190505b5091506000805b600e54811015613ca357600060116000600e8481548110613b1c57613b1c615578565b60009182526020808320909101546001600160a01b031683528201929092526040019020600481015490915060ff600160b81b909104168015613b6b57506004810154600160d01b900460ff16155b8015613b7c57506000816003015412155b15613c905760015460ff166000908152601c60205260408120600e805491929185908110613bac57613bac615578565b60009182526020808320909101546001600160a01b03168352820192909252604001902054865161ffff90911690879060ff8616908110613bef57613bef615578565b61ffff90921660209283029190910182015260015460ff166000908152601d90915260408120600e805491929185908110613c2c57613c2c615578565b60009182526020808320909101546001600160a01b03168352820192909252604001902054855161ffff90911690869060ff8616908110613c6f57613c6f615578565b61ffff9092166020928302919091019091015282613c8c81615de0565b9350505b5080613c9b816155a4565b915050613af9565b5050509091565b606080613cb784846149c0565b909250905060005b8251811015613cf95760105460ff16613ce757613ce783828151811061044957610449615578565b80613cf1816155a4565b915050613cbf565b5050505050565b60015460ff16613d4b5760405162461bcd60e51b815260206004820152601660248201527513d190ce881b9bc81c9bdd5b991cc81cd95d1d1b195960521b6044820152606401610db9565b60215460ff1615613d965760405162461bcd60e51b815260206004820152601560248201527413d190ce88185b1c9958591e4818dbdb5c1d5d1959605a1b6044820152606401610db9565b6000600d5460ff166008811115613daf57613daf615ada565b1415613dfd5760405162461bcd60e51b815260206004820152601760248201527f4f46433a2074656d706c617465206368616c6c656e67650000000000000000006044820152606401610db9565b600d5461010090046001600160a01b0316613e4c5760405162461bcd60e51b815260206004820152600f60248201526e27a3219d1037379036b0b730b3b2b960891b6044820152606401610db9565b600d5461010090046001600160a01b0316600080826001600160a01b0316636f69e7306040518163ffffffff1660e01b815260040160206040518083038186803b158015613e9957600080fd5b505afa158015613ead573d6000803e3d6000fd5b505050506040513d601f19601f82011682018060405250810190613ed19190615e00565b6001811115613ee257613ee2615ada565b600254600e549190921492506000906001600160401b03811115613f0857613f08615dca565b604051908082528060200260200182016040528015613f4157816020015b613f2e615522565b815260200190600190039081613f265790505b50905060005b600e54811015613fb457613f8485600e8381548110613f6857613f68615578565b6000918252602090912001546001600160a01b03168686614d28565b828281518110613f9657613f96615578565b60200260200101819052508080613fac906155a4565b915050613f47565b5060005b815181101561406d576022828281518110613fd557613fd5615578565b602090810291909101810151825460018082018555600094855293839020825160069092020180546001600160a01b0319166001600160a01b03909216919091178155918101519282019290925560408201516002820155606082015160038201556080820151600482015560a0909101516005909101805460ff191691151591909117905580614065816155a4565b915050613fb8565b50506021805460ff19166001179055505050565b614089613d00565b565b600080805b600e5481101561413957600060116000600e84815481106140b3576140b3615578565b60009182526020808320909101546001600160a01b031683528201929092526040019020600481015490915060ff600160b81b90910416801561410257506004810154600160d01b900460ff16155b801561411357506000816003015412155b156141265782614122816155a4565b9350505b5080614131816155a4565b915050614090565b5060015460ff1660009081526017602052604090205481111561415e57600091505090565b600191505090565b6000600254600014156141795750600090565b60005b600e5481101561423357600060116000600e848154811061419f5761419f615578565b60009182526020808320909101546001600160a01b031683528201929092526040019020600481015490915060ff600160b81b9091041680156141ee57506004810154600160d01b900460ff16155b156142205760016002546142029190615cc0565b6004820154600160a81b900460ff1610156142205760009250505090565b508061422b816155a4565b91505061417c565b506001905090565b33600090815260116020526040902060040154600160b81b900460ff1661429a5760405162461bcd60e51b8152602060048201526013602482015272155cd95c881b9bdd081c9959da5cdd195c9959606a1b6044820152606401610db9565b60015460ff166000908152601660209081526040808320338452909152902054156143075760405162461bcd60e51b815260206004820152601760248201527f53636f726520616c7265616479207375626d69747465640000000000000000006044820152606401610db9565b6001805460ff908116600090815260166020908152604080832033845282528083208690558454909316825260179052908120805490919061434a908490615b7e565b909155505060405181815233907f20e6c7c82a3c0a8203efca055fc9a664ca649345957ddc3ba34b2912e9ed83739060200160405180910390a250565b33600090815260116020526040902060040154600160b81b900460ff166143c05760405162461bcd60e51b8152600401610db990615b61565b33600090815260156020908152604080832060015460ff168452909152902054156144135760405162461bcd60e51b815260206004820152600360248201526205341560ec1b6044820152606401610db9565b33600090815260146020908152604080832060015460ff168452909152902055565b6060806000805b600e548110156145a357600060116000600e848154811061445f5761445f615578565b60009182526020808320909101546001600160a01b039081168452838201949094526040928301822060015460ff168352601f825283832060048201549095168352939052908120549192505b8181101561458d5760015460ff166000908152601f6020908152604080832060048701546001600160a01b0316845290915281208054839081106144f2576144f2615578565b9060005260206000209060020201905060005b815481101561457857896001600160a01b031682600001828154811061452d5761452d615578565b6000918252602090912001546001600160a01b0316148015614553575061455385614ceb565b156145665786614562816155a4565b9750505b80614570816155a4565b915050614505565b50508080614585906155a4565b9150506144ac565b505050808061459b906155a4565b91505061443c565b50806001600160401b038111156145bc576145bc615dca565b6040519080825280602002602001820160405280156145e5578160200160208202803683370190505b509250806001600160401b0381111561460057614600615dca565b604051908082528060200260200182016040528015614629578160200160208202803683370190505b5091506000805b600e5481101561383157600060116000600e848154811061465357614653615578565b60009182526020808320909101546001600160a01b039081168452838201949094526040928301822060015460ff168352601f825283832060048201549095168352939052908120549192505b818110156148245760015460ff166000908152601f6020908152604080832060048701546001600160a01b0316845290915281208054839081106146e6576146e6615578565b9060005260206000209060020201905060005b815481101561480f578a6001600160a01b031682600001828154811061472157614721615578565b6000918252602090912001546001600160a01b0316148015614747575061474785614ceb565b156147fd5760048501548a516001600160a01b03909116908b908990811061477157614771615578565b60200260200101906001600160a01b031690816001600160a01b0316815250508160010181815481106147a6576147a6615578565b90600052602060002090601091828204019190066002029054906101000a900461ffff168988815181106147dc576147dc615578565b61ffff90921660209283029190910190910152866147f9816155a4565b9750505b80614807816155a4565b9150506146f9565b5050808061481c906155a4565b9150506146a0565b5050508080614832906155a4565b915050614630565b60005b600e54811015614961576000600e828154811061485c5761485c615578565b60009182526020808320909101546001600160a01b0386811680855260188452604080862092909316808652918452828520549085526019845282852082865290935292205491925090806148b35750505061494f565b6001600160a01b0383166000908152601a6020526040812080548492906148db908490615cc0565b90915550506001600160a01b0383166000908152601b602052604081208054839290614908908490615cc0565b909155505050506001600160a01b03838116600081815260186020908152604080832095909416808352948152838220829055918152601982528281209381529290528120555b80614959816155a4565b91505061483d565b5050565b6004810154600090600160b81b900460ff16801561498e57506004820154600160c81b900460ff165b80156149a657506004820154600160b01b900460ff16155b801561385357505060040154600160d01b900460ff161590565b6060806000808560348604604051955060208102602001860160405280865260005b81811015614a0a57823560601c602082810289010181905294506014909201916001016149e2565b506040519450602081026020018501604052808552600093505b80841015614a4c57813592508260208502602087010152602082019150600184019350614a24565b505050509250929050565b848414614aa65760405162461bcd60e51b815260206004820181905260248201527f494e56414c49445f4c454e475448204f462041434355524143592041525241596044820152606401610db9565b848314614af55760405162461bcd60e51b815260206004820152601c60248201527f494e56414c49445f4c454e475448204f46204c4f5353204152524159000000006044820152606401610db9565b61ffff8281161115614b495760405162461bcd60e51b815260206004820152601e60248201527f50524556494f5553204143435552414359204f5554204f462052414e474500006044820152606401610db9565b61ffff8181161115613cf95760405162461bcd60e51b815260206004820152601a60248201527f50524556494f5553204c4f5353204f5554204f462052414e47450000000000006044820152606401610db9565b60015460ff166000908152601e602090815260408083206001600160a01b038a16845282529182902082516060810184528881528351878402818101850190955287815291939092838101929189918991829185019084908082843760009201919091525050509082525060408051602086810282810182019093528682529283019290918791879182918501908490808284376000920182905250939094525050835460018101855593815260209081902083518051949560030290910193614c6e935084929190910190615419565b506020828101518051614c87926001850192019061547e565b5060408201518051614ca391600284019160209091019061547e565b505050505050505050565b60005b825181101561154d5760105460ff16614cd957614cd983828151811061044957610449615578565b80614ce3816155a4565b915050614cb1565b6004810154600090600160b81b900460ff168015614d1557506004820154600160d01b900460ff16155b8015613853575050600301546000131590565b614d30615522565b6000806000614d40888887614d96565b9250925092506040518060c00160405280886001600160a01b03168152602001848152602001838152602001828152602001614d7d8a8a8a614fc2565b815260200187151581525093505050505b949350505050565b600d546040516358c67d1760e01b81526000918291829182916001600160a01b038916916358c67d1791614dd4918a9160ff90911690600401615e21565b60606040518083038186803b158015614dec57600080fd5b505afa158015614e00573d6000803e3d6000fd5b505050506040513d601f19601f82011682018060405250810190614e249190615e3e565b5050600d54604051631603653960e11b815291925060009182916001600160a01b038b1691632c06ca7291614e61918c9160ff1690600401615e21565b604080518083038186803b158015614e7857600080fd5b505afa158015614e8c573d6000803e3d6000fd5b505050506040513d601f19601f82011682018060405250810190614eb09190615e6c565b600d54604051635a52668960e01b81529294509092506000916001600160a01b038c1691635a52668991614eee918d9160ff90911690600401615e21565b60206040518083038186803b158015614f0657600080fd5b505afa158015614f1a573d6000803e3d6000fd5b505050506040513d601f19601f82011682018060405250810190614f3e9190615e90565b614f49906001615b7e565b90506000614f8b601160008c6001600160a01b03166001600160a01b0316815260200190815260200160002060020154670de0b6b3a76400006007548c615097565b9050614f9981858585615146565b9097509550614fb285614fac8489615278565b83615315565b9750505050505093509350939050565b600d546040516358c67d1760e01b815260009182916001600160a01b038716916358c67d1791614ffc91889160ff90911690600401615e21565b60606040518083038186803b15801561501457600080fd5b505afa158015615028573d6000803e3d6000fd5b505050506040513d601f19601f8201168201806040525081019061504c9190615e3e565b509150508261505c579050615090565b6001600160a01b0384166000908152601a6020908152604080832054601b9092529091205461508c91839161538b565b9150505b9392505050565b60008082156150bb57826150ac856001615dab565b6150b69190615d26565b6150be565b60005b905060006150cc8287615b7e565b9050806150de57600092505050614d8e565b60006150ea8789615c40565b9050600081136151005760009350505050614d8e565b8082811061511c57670de0b6b3a7640000945050505050614d8e565b8261512f670de0b6b3a764000083615dab565b6151399190615d26565b9998505050505050505050565b60008060018311615159578591506151b0565b670de0b6b3a7640000615174876702c68af0bb140000615dab565b8661518f6702c68af0bb140000670de0b6b3a7640000615cc0565b6151999190615dab565b6151a39190615b7e565b6151ad9190615d26565b91505b60008587116151c8576151c38787615cc0565b6151d2565b6151d28688615cc0565b905060008388116151ec576151e78885615cc0565b6151f6565b6151f68489615cc0565b905061520a670de0b6b3a764000080615dab565b8161521d846702c68af0bb140000615dab565b6152279190615dab565b6152319190615d26565b670de0b6b3a76400008761524d6702c68af0bb14000083615cc0565b6152579190615dab565b6152619190615d26565b61526b9190615b7e565b9250505094509492505050565b60008261528757506000613853565b6000615294600285615b7e565b6152a6670de0b6b3a764000086615dab565b6152b09190615d26565b905060006152bf846014615dab565b6152d190670de0b6b3a7640000615b7e565b6152e3670de0b6b3a764000080615dab565b6152ed9190615d26565b9050670de0b6b3a76400006153028284615dab565b61530c9190615d26565b95945050505050565b600080670de0b6b3a764000061532b8486615dab565b6153359190615d26565b9050670de0b6b3a7640000615352826702c68af0bb140000615dab565b8661536d6702c68af0bb140000670de0b6b3a7640000615cc0565b6153779190615dab565b6153819190615b7e565b61508c9190615d26565b6000808261539b575060006153dd565b6000836153b0670de0b6b3a764000087615dab565b6153ba9190615d26565b9050670de0b6b3a76400006153cf8280615dab565b6153d99190615d26565b9150505b670de0b6b3a7640000615352826702c68af0bb140000615dab565b50805460008255906000526020600020908101906154169190615563565b50565b82805482825590600052602060002090810192821561546e579160200282015b8281111561546e57825182546001600160a01b0319166001600160a01b03909116178255602090920191600190910190615439565b5061547a929150615563565b5090565b82805482825590600052602060002090600f0160109004810192821561546e5791602002820160005b838211156154e757835183826101000a81548161ffff021916908361ffff16021790555092602001926002016020816001010492830192600103026154a7565b80156155155782816101000a81549061ffff02191690556002016020816001010492830192600103026154e7565b505061547a929150615563565b6040518060c0016040528060006001600160a01b03168152602001600081526020016000815260200160008152602001600081526020016000151581525090565b5b8082111561547a5760008155600101615564565b634e487b7160e01b600052603260045260246000fd5b634e487b7160e01b600052601160045260246000fd5b60006000198214156155b8576155b861558e565b5060010190565b80356001600160a01b03811681146155d657600080fd5b919050565b600080604083850312156155ee57600080fd5b6155f7836155bf565b9150615605602084016155bf565b90509250929050565b602080825282518282018190526000919060409081850190868401855b8281101561568457815180516001600160a01b0316855286810151878601528581015186860152606080820151908601526080808201519086015260a09081015115159085015260c0909301929085019060010161562b565b5091979650505050505050565b6000602082840312156156a357600080fd5b8135801515811461509057600080fd5b803560ff811681146155d657600080fd5b600080604083850312156156d757600080fd5b6156e0836155bf565b9150615605602084016156b3565b60008083601f84011261570057600080fd5b5081356001600160401b0381111561571757600080fd5b60208301915083602082850101111561572f57600080fd5b9250929050565b60008083601f84011261574857600080fd5b5081356001600160401b0381111561575f57600080fd5b6020830191508360208260051b850101111561572f57600080fd5b803561ffff811681146155d657600080fd5b60008060008060008060008060a0898b0312156157a857600080fd5b88356001600160401b03808211156157bf57600080fd5b6157cb8c838d016156ee565b909a50985060208b01359150808211156157e457600080fd5b6157f08c838d01615736565b909850965060408b013591508082111561580957600080fd5b506158168b828c01615736565b9095509350615829905060608a0161577a565b915061583760808a0161577a565b90509295985092959890939650565b60006020828403121561585857600080fd5b615090826155bf565b60006020828403121561587357600080fd5b5035919050565b60008060008060006060868803121561589257600080fd5b85356001600160401b03808211156158a957600080fd5b6158b589838a016156ee565b909750955060208801359150808211156158ce57600080fd5b506158db88828901615736565b90945092506158ee90506040870161577a565b90509295509295909350565b6000806040838503121561590d57600080fd5b615916836155bf565b946020939093013593505050565b602080825282518282018190526000919060409081850190868401855b8281101561568457815180516001600160a01b0316855286810151878601528581015186860152606080820151908601526080908101519085015260a09093019290850190600101615941565b600081518084526020808501945080840160005b838110156159c75781516001600160a01b0316875295820195908201906001016159a2565b509495945050505050565b600081518084526020808501945080840160005b838110156159c757815161ffff16875295820195908201906001016159e6565b606081526000615a19606083018661598e565b8281036020840152615a2b81866159d2565b90508281036040840152615a3f81856159d2565b9695505050505050565b600060208284031215615a5b57600080fd5b615090826156b3565b604081526000615a77604083018561598e565b828103602084015261508c81856159d2565b60008060408385031215615a9c57600080fd5b50508035926020909101359150565b60008060408385031215615abe57600080fd5b6155f7836156b3565b604081526000615a7760408301856159d2565b634e487b7160e01b600052602160045260246000fd5b60098110615b0e57634e487b7160e01b600052602160045260246000fd5b9052565b602081016138538284615af0565b60008060208385031215615b3357600080fd5b82356001600160401b03811115615b4957600080fd5b615b55858286016156ee565b90969095509350505050565b60208082526003908201526229a72960e91b604082015260600190565b60008219821115615b9157615b9161558e565b500190565b600060ff821660ff84168060ff03821115615bb357615bb361558e565b019392505050565b60006001600160ff1b0381841382841380821686840486111615615be157615be161558e565b600160ff1b6000871282811687830589121615615c0057615c0061558e565b60008712925087820587128484161615615c1c57615c1c61558e565b87850587128184161615615c3257615c3261558e565b505050929093029392505050565b600080821280156001600160ff1b0384900385131615615c6257615c6261558e565b600160ff1b8390038412811615615c7b57615c7b61558e565b50500190565b60008083128015600160ff1b850184121615615c9f57615c9f61558e565b6001600160ff1b0384018313811615615cba57615cba61558e565b50500390565b600082821015615cd257615cd261558e565b500390565b634e487b7160e01b600052603160045260246000fd5b600060ff821660ff841680821015615d0757615d0761558e565b90039392505050565b634e487b7160e01b600052601260045260246000fd5b600082615d3557615d35615d10565b500490565b600082615d4957615d49615d10565b600160ff1b821460001984141615615d6357615d6361558e565b500590565b6001600160a01b0394909416845260208401929092526040830152606082015260800190565b6000600160ff1b821415615da457615da461558e565b5060000390565b6000816000190483118215151615615dc557615dc561558e565b500290565b634e487b7160e01b600052604160045260246000fd5b600060ff821660ff811415615df757615df761558e565b60010192915050565b600060208284031215615e1257600080fd5b81516002811061509057600080fd5b6001600160a01b0383168152604081016150906020830184615af0565b600080600060608486031215615e5357600080fd5b8351925060208401519150604084015190509250925092565b60008060408385031215615e7f57600080fd5b505080516020909101519092909150565b600060208284031215615ea257600080fd5b505191905056fea2646970667358221220224b89d08c2ee6811f36309954685b13fd8bd24966a41434cf23ecbf005a75b664736f6c63430008090033","linkReferences":{}},"methodIdentifiers":{"absUint(int256)":"63fa2823","computeAndRecordTaskReps()":"9c00b9ea","contributionScore(uint8,address)":"fa569fa2","contributionStart()":"a41dacd6","exitModel()":"0899604c","feedback(address,int256)":"3aa8f2ed","finalizeReputations()":"c5f3de5a","freeriderPenalty()":"005c43a5","getAllAccuraciesAbout(address)":"f6020f01","getAllAccuraciesLossesAbout(address)":"4ebf31da","getAllLossesAbout(address)":"5cf1bc1a","getAllPreviousAccuraciesAndLosses()":"701341ed","getTaskRepDeltaAndGRS()":"46834d00","getTaskRepRecords()":"07684181","hasVoted(address,address)":"4d4d2b1c","initTS()":"fd5201be","isContributionRoundDone()":"d6aad1b9","isFeedBackRoundDone()":"dcc1484a","managerAddress()":"cf73a1bc","max_collateral()":"904a9d17","min_collateral()":"508be15e","min_rounds()":"3f4f2d62","modelHash()":"1b2ccc09","nrOfActiveParticipants()":"f25648d2","nrOfContributionScores(uint8)":"59ac0c46","nrOfProvidedHashedWeights()":"b986695b","participants(uint256)":"35c1d349","positiveVotesGivenByTo(address,address)":"02dc06d3","positiveVotesReceived(address)":"93808c02","prev_accs(uint8,address)":"8b2f56fb","prev_losses(uint8,address)":"667ba0f6","provideHashedWeights(bytes32,uint256)":"64a3e221","punishfactor()":"fcbace5d","punishfactorContrib()":"186beae3","registerSlot(bytes32)":"f5b27228","registrationProcess()":"168d0ccb","rewardLeft()":"3eee0426","rewardPerRound()":"33f93bcd","round()":"146ca531","roundStart()":"40365852","secretOf(address,uint8)":"095083af","setTesting(bool)":"08ed8d16","settle()":"11da60b4","submitContributionScore(int256)":"f283865f","submitFeedbackBytes(bytes)":"9699fee6","submitFeedbackBytesAndAccuracies(bytes,uint16[],uint16)":"3717ef09","submitFeedbackBytesAndAccuraciesLosses(bytes,uint16[],uint16[],uint16,uint16)":"28624ce6","submitFeedbackBytesAndLosses(bytes,uint16[],uint16)":"3b1c5aed","taskRepRecordsWritten()":"298a0c88","taskType()":"8cf6f32c","testing()":"8d03b102","totalReward()":"750142e6","totalVotesGivenByTo(address,address)":"299a0c00","totalVotesReceived(address)":"287e0c8e","users(address)":"a87430ba","votedPositiveFor(address,address)":"ca6e0385","votesPerRound()":"cc500ec9","weightsOf(address,uint8)":"45e4c379"},"id":1}