{"abi":[{"type":"constructor","inputs":[{"name":"taskSpecs","type":"tuple","internalType":"struct ChallengeSpecifications","components":[{"name":"modelHash","type":"bytes32","internalType":"bytes32"},{"name":"min_collateral","type":"uint256","internalType":"uint256"},{"name":"max_collateral","type":"uint256","internalType":"uint256"},{"name":"managerAddress","type":"address","internalType":"address"},{"name":"reward","type":"uint256","internalType":"uint256"},{"name":"min_rounds","type":"uint8","internalType":"uint8"},{"name":"punishfactor","type":"uint8","internalType":"uint8"},{"name":"punishfactorContrib","type":"uint8","internalType":"uint8"},{"name":"freeriderPenalty","type":"uint8","internalType":"uint8"},{"name":"taskType","type":"uint8","internalType":"enum TaskType"},{"name":"jobListingAddress","type":"address","internalType":"address"}]}],"stateMutability":"payable"},{"type":"fallback","stateMutability":"nonpayable"},{"type":"function","name":"absUint","inputs":[{"name":"x","type":"int256","internalType":"int256"}],"outputs":[{"name":"","type":"uint256","internalType":"uint256"}],"stateMutability":"pure"},{"type":"function","name":"contributionScore","inputs":[{"name":"","type":"uint8","internalType":"uint8"},{"name":"","type":"address","internalType":"address"}],"outputs":[{"name":"","type":"int256","internalType":"int256"}],"stateMutability":"view"},{"type":"function","name":"contributionStart","inputs":[],"outputs":[{"name":"","type":"uint256","internalType":"uint256"}],"stateMutability":"view"},{"type":"function","name":"exitModel","inputs":[],"outputs":[],"stateMutability":"nonpayable"},{"type":"function","name":"feedback","inputs":[{"name":"target","type":"address","internalType":"address"},{"name":"score","type":"int256","internalType":"int256"}],"outputs":[],"stateMutability":"nonpayable"},{"type":"function","name":"finalizeReputations","inputs":[],"outputs":[],"stateMutability":"nonpayable"},{"type":"function","name":"freeriderPenalty","inputs":[],"outputs":[{"name":"","type":"uint256","internalType":"uint256"}],"stateMutability":"view"},{"type":"function","name":"getAllAccuraciesAbout","inputs":[{"name":"target","type":"address","internalType":"address"}],"outputs":[{"name":"voters","type":"address[]","internalType":"address[]"},{"name":"accuracies","type":"uint16[]","internalType":"uint16[]"}],"stateMutability":"view"},{"type":"function","name":"getAllAccuraciesLossesAbout","inputs":[{"name":"target","type":"address","internalType":"address"}],"outputs":[{"name":"voters","type":"address[]","internalType":"address[]"},{"name":"accuracies","type":"uint16[]","internalType":"uint16[]"},{"name":"losses","type":"uint16[]","internalType":"uint16[]"}],"stateMutability":"view"},{"type":"function","name":"getAllLossesAbout","inputs":[{"name":"target","type":"address","internalType":"address"}],"outputs":[{"name":"voters","type":"address[]","internalType":"address[]"},{"name":"losses","type":"uint16[]","internalType":"uint16[]"}],"stateMutability":"view"},{"type":"function","name":"getAllPreviousAccuraciesAndLosses","inputs":[],"outputs":[{"name":"previous_accuracies","type":"uint16[]","internalType":"uint16[]"},{"name":"previous_losses","type":"uint16[]","internalType":"uint16[]"}],"stateMutability":"view"},{"type":"function","name":"getTaskRepDeltaAndGRS","inputs":[],"outputs":[{"name":"","type":"tuple[]","internalType":"struct OpenFLChallenge.TaskRep[]","components":[{"name":"user","type":"address","internalType":"address"},{"name":"delta","type":"int256","internalType":"int256"},{"name":"globalReputationScore","type":"uint256","internalType":"uint256"},{"name":"positiveVotes","type":"uint256","internalType":"uint256"},{"name":"totalVotes","type":"uint256","internalType":"uint256"}]}],"stateMutability":"view"},{"type":"function","name":"hasVoted","inputs":[{"name":"","type":"address","internalType":"address"},{"name":"","type":"address","internalType":"address"}],"outputs":[{"name":"","type":"bool","internalType":"bool"}],"stateMutability":"view"},{"type":"function","name":"initTS","inputs":[],"outputs":[{"name":"","type":"uint256","internalType":"uint256"}],"stateMutability":"view"},{"type":"function","name":"isContributionRoundDone","inputs":[],"outputs":[{"name":"roundClosed","type":"bool","internalType":"bool"}],"stateMutability":"view"},{"type":"function","name":"isFeedBackRoundDone","inputs":[],"outputs":[{"name":"roundClosed","type":"bool","internalType":"bool"}],"stateMutability":"view"},{"type":"function","name":"managerAddress","inputs":[],"outputs":[{"name":"","type":"address","internalType":"address"}],"stateMutability":"view"},{"type":"function","name":"max_collateral","inputs":[],"outputs":[{"name":"","type":"uint256","internalType":"uint256"}],"stateMutability":"view"},{"type":"function","name":"min_collateral","inputs":[],"outputs":[{"name":"","type":"uint256","internalType":"uint256"}],"stateMutability":"view"},{"type":"function","name":"min_rounds","inputs":[],"outputs":[{"name":"","type":"uint8","internalType":"uint8"}],"stateMutability":"view"},{"type":"function","name":"modelHash","inputs":[],"outputs":[{"name":"","type":"bytes32","internalType":"bytes32"}],"stateMutability":"view"},{"type":"function","name":"nrOfActiveParticipants","inputs":[],"outputs":[{"name":"","type":"uint256","internalType":"uint256"}],"stateMutability":"view"},{"type":"function","name":"nrOfContributionScores","inputs":[{"name":"","type":"uint8","internalType":"uint8"}],"outputs":[{"name":"","type":"uint256","internalType":"uint256"}],"stateMutability":"view"},{"type":"function","name":"nrOfProvidedHashedWeights","inputs":[],"outputs":[{"name":"","type":"uint256","internalType":"uint256"}],"stateMutability":"view"},{"type":"function","name":"participants","inputs":[{"name":"","type":"uint256","internalType":"uint256"}],"outputs":[{"name":"","type":"address","internalType":"address"}],"stateMutability":"view"},{"type":"function","name":"positiveVotesGivenByTo","inputs":[{"name":"","type":"address","internalType":"address"},{"name":"","type":"address","internalType":"address"}],"outputs":[{"name":"","type":"uint256","internalType":"uint256"}],"stateMutability":"view"},{"type":"function","name":"positiveVotesReceived","inputs":[{"name":"","type":"address","internalType":"address"}],"outputs":[{"name":"","type":"uint256","internalType":"uint256"}],"stateMutability":"view"},{"type":"function","name":"prev_accs","inputs":[{"name":"","type":"uint8","internalType":"uint8"},{"name":"","type":"address","internalType":"address"}],"outputs":[{"name":"","type":"uint16","internalType":"uint16"}],"stateMutability":"view"},{"type":"function","name":"prev_losses","inputs":[{"name":"","type":"uint8","internalType":"uint8"},{"name":"","type":"address","internalType":"address"}],"outputs":[{"name":"","type":"uint16","internalType":"uint16"}],"stateMutability":"view"},{"type":"function","name":"provideHashedWeights","inputs":[{"name":"hashedWeights","type":"bytes32","internalType":"bytes32"},{"name":"salt","type":"uint256","internalType":"uint256"}],"outputs":[],"stateMutability":"nonpayable"},{"type":"function","name":"punishfactor","inputs":[],"outputs":[{"name":"","type":"uint8","internalType":"uint8"}],"stateMutability":"view"},{"type":"function","name":"punishfactorContrib","inputs":[],"outputs":[{"name":"","type":"uint8","internalType":"uint8"}],"stateMutability":"view"},{"type":"function","name":"registerSlot","inputs":[{"name":"_secret","type":"bytes32","internalType":"bytes32"}],"outputs":[],"stateMutability":"nonpayable"},{"type":"function","name":"registrationProcess","inputs":[],"outputs":[],"stateMutability":"payable"},{"type":"function","name":"rewardLeft","inputs":[],"outputs":[{"name":"","type":"uint256","internalType":"uint256"}],"stateMutability":"view"},{"type":"function","name":"rewardPerRound","inputs":[],"outputs":[{"name":"","type":"uint256","internalType":"uint256"}],"stateMutability":"view"},{"type":"function","name":"round","inputs":[],"outputs":[{"name":"","type":"uint8","internalType":"uint8"}],"stateMutability":"view"},{"type":"function","name":"roundStart","inputs":[],"outputs":[{"name":"","type":"uint256","internalType":"uint256"}],"stateMutability":"view"},{"type":"function","name":"secretOf","inputs":[{"name":"","type":"address","internalType":"address"},{"name":"","type":"uint8","internalType":"uint8"}],"outputs":[{"name":"","type":"bytes32","internalType":"bytes32"}],"stateMutability":"view"},{"type":"function","name":"setTesting","inputs":[{"name":"_testing","type":"bool","internalType":"bool"}],"outputs":[],"stateMutability":"nonpayable"},{"type":"function","name":"settle","inputs":[],"outputs":[],"stateMutability":"nonpayable"},{"type":"function","name":"submitContributionScore","inputs":[{"name":"score","type":"int256","internalType":"int256"}],"outputs":[],"stateMutability":"nonpayable"},{"type":"function","name":"submitFeedbackBytes","inputs":[{"name":"raw","type":"bytes","internalType":"bytes"}],"outputs":[],"stateMutability":"nonpayable"},{"type":"function","name":"submitFeedbackBytesAndAccuracies","inputs":[{"name":"raw","type":"bytes","internalType":"bytes"},{"name":"accuracies","type":"uint16[]","internalType":"uint16[]"},{"name":"prev_acc","type":"uint16","internalType":"uint16"}],"outputs":[],"stateMutability":"nonpayable"},{"type":"function","name":"submitFeedbackBytesAndAccuraciesLosses","inputs":[{"name":"raw","type":"bytes","internalType":"bytes"},{"name":"accuracies","type":"uint16[]","internalType":"uint16[]"},{"name":"losses","type":"uint16[]","internalType":"uint16[]"},{"name":"prev_acc","type":"uint16","internalType":"uint16"},{"name":"prev_loss","type":"uint16","internalType":"uint16"}],"outputs":[],"stateMutability":"nonpayable"},{"type":"function","name":"submitFeedbackBytesAndLosses","inputs":[{"name":"raw","type":"bytes","internalType":"bytes"},{"name":"losses","type":"uint16[]","internalType":"uint16[]"},{"name":"prev_loss","type":"uint16","internalType":"uint16"}],"outputs":[],"stateMutability":"nonpayable"},{"type":"function","name":"taskType","inputs":[],"outputs":[{"name":"","type":"uint8","internalType":"enum TaskType"}],"stateMutability":"view"},{"type":"function","name":"testing","inputs":[],"outputs":[{"name":"","type":"bool","internalType":"bool"}],"stateMutability":"view"},{"type":"function","name":"totalReward","inputs":[],"outputs":[{"name":"","type":"uint256","internalType":"uint256"}],"stateMutability":"view"},{"type":"function","name":"totalVotesGivenByTo","inputs":[{"name":"","type":"address","internalType":"address"},{"name":"","type":"address","internalType":"address"}],"outputs":[{"name":"","type":"uint256","internalType":"uint256"}],"stateMutability":"view"},{"type":"function","name":"totalVotesReceived","inputs":[{"name":"","type":"address","internalType":"address"}],"outputs":[{"name":"","type":"uint256","internalType":"uint256"}],"stateMutability":"view"},{"type":"function","name":"users","inputs":[{"name":"","type":"address","internalType":"address"}],"outputs":[{"name":"weightedContribScore","type":"int256","internalType":"int256"},{"name":"globalReputationScore","type":"uint256","internalType":"uint256"},{"name":"taskRepDelta","type":"int256","internalType":"int256"},{"name":"roundReputation","type":"int256","internalType":"int256"},{"name":"addr","type":"address","internalType":"address"},{"name":"nrOfRoundsParticipated","type":"uint8","internalType":"uint8"},{"name":"nrOfVotesFromUser","type":"uint8","internalType":"uint8"},{"name":"isPunished","type":"bool","internalType":"bool"},{"name":"isRegistered","type":"bool","internalType":"bool"},{"name":"isSelected","type":"bool","internalType":"bool"},{"name":"whitelistedForRewards","type":"bool","internalType":"bool"},{"name":"isDisqualified","type":"bool","internalType":"bool"}],"stateMutability":"view"},{"type":"function","name":"votedPositiveFor","inputs":[{"name":"","type":"address","internalType":"address"},{"name":"","type":"address","internalType":"address"}],"outputs":[{"name":"","type":"bool","internalType":"bool"}],"stateMutability":"view"},{"type":"function","name":"votesPerRound","inputs":[],"outputs":[{"name":"","type":"uint8","internalType":"uint8"}],"stateMutability":"view"},{"type":"function","name":"weightsOf","inputs":[{"name":"","type":"address","internalType":"address"},{"name":"","type":"uint8","internalType":"uint8"}],"outputs":[{"name":"","type":"bytes32","internalType":"bytes32"}],"stateMutability":"view"},{"type":"event","name":"ContributionScoreSubmitted","inputs":[{"name":"user","type":"address","indexed":true,"internalType":"address"},{"name":"contributionScore","type":"int256","indexed":false,"internalType":"int256"}],"anonymous":false},{"type":"event","name":"Disqualification","inputs":[{"name":"victim","type":"address","indexed":false,"internalType":"address"},{"name":"roundScore","type":"int256","indexed":false,"internalType":"int256"},{"name":"loss","type":"uint256","indexed":false,"internalType":"uint256"},{"name":"newReputation","type":"uint256","indexed":false,"internalType":"uint256"}],"anonymous":false},{"type":"event","name":"EndRound","inputs":[{"name":"round","type":"uint8","indexed":false,"internalType":"uint8"},{"name":"validVotes","type":"uint8","indexed":false,"internalType":"uint8"},{"name":"sumOfWeightedContribScore","type":"uint256","indexed":false,"internalType":"uint256"},{"name":"totalPunishment","type":"uint256","indexed":false,"internalType":"uint256"}],"anonymous":false},{"type":"event","name":"FederatedLearningModelDeployed","inputs":[{"name":"initTS","type":"uint256","indexed":false,"internalType":"uint256"},{"name":"max_collateral","type":"uint256","indexed":false,"internalType":"uint256"},{"name":"min_collateral","type":"uint256","indexed":false,"internalType":"uint256"},{"name":"total_reward","type":"uint256","indexed":false,"internalType":"uint256"},{"name":"min_rounds","type":"uint8","indexed":false,"internalType":"uint8"},{"name":"freerider_fee","type":"uint256","indexed":false,"internalType":"uint256"},{"name":"isTemplate","type":"bool","indexed":false,"internalType":"bool"}],"anonymous":false},{"type":"event","name":"Feedback","inputs":[{"name":"target","type":"address","indexed":false,"internalType":"address"},{"name":"user","type":"address","indexed":false,"internalType":"address"},{"name":"globalReputation","type":"uint256","indexed":false,"internalType":"uint256"},{"name":"newRoundReputation","type":"int256","indexed":false,"internalType":"int256"}],"anonymous":false},{"type":"event","name":"PassivPunishment","inputs":[{"name":"victim","type":"address","indexed":false,"internalType":"address"},{"name":"roundScore","type":"int256","indexed":false,"internalType":"int256"},{"name":"loss","type":"uint256","indexed":false,"internalType":"uint256"},{"name":"newReputation","type":"uint256","indexed":false,"internalType":"uint256"}],"anonymous":false},{"type":"event","name":"Punishment","inputs":[{"name":"victim","type":"address","indexed":false,"internalType":"address"},{"name":"roundScore","type":"int256","indexed":false,"internalType":"int256"},{"name":"loss","type":"uint256","indexed":false,"internalType":"uint256"},{"name":"newReputation","type":"uint256","indexed":false,"internalType":"uint256"}],"anonymous":false},{"type":"event","name":"Registered","inputs":[{"name":"user","type":"address","indexed":false,"internalType":"address"},{"name":"reputationValue","type":"uint256","indexed":false,"internalType":"uint256"},{"name":"totalCollateral","type":"uint256","indexed":false,"internalType":"uint256"},{"name":"numberOfContributers","type":"uint256","indexed":false,"internalType":"uint256"}],"anonymous":false},{"type":"event","name":"Reward","inputs":[{"name":"user","type":"address","indexed":false,"internalType":"address"},{"name":"roundScore","type":"int256","indexed":false,"internalType":"int256"},{"name":"win","type":"uint256","indexed":false,"internalType":"uint256"},{"name":"newReputation","type":"uint256","indexed":false,"internalType":"uint256"},{"name":"is_reward","type":"bool","indexed":false,"internalType":"bool"}],"anonymous":false},{"type":"event","name":"SelectedUsers","inputs":[{"name":"users","type":"address[]","indexed":false,"internalType":"address[]"}],"anonymous":false}],"bytecode":{"object":"0x608060408190526001805460ff19908116909155601080549091169055620059b8388190039081908339810160408190526200003b9162000445565b426004819055600a55805160005560208101516005556040810151600655608081015160075560a08101516001805460c084015160e085015163ffff000019909216630100000060ff9586160262ff000019161762010000918516919091021760ff60201b19166401000000009390911692909202919091178155610120820151600d80549192909160ff191690836008811115620000de57620000de62000514565b02179055508060600151600d60016101000a8154816001600160a01b0302191690836001600160a01b03160217905550606481610100015160ff1660055462000128919062000540565b62000134919062000562565b600c5560015460075462000153916301000000900460ff169062000562565b600855600754600955600080826101200151600881111562000179576200017962000514565b1490508062000313576101408201516001600160a01b0316620001cf5760405162461bcd60e51b815260206004820152600a6024820152692727afa527a120a2222960b11b604482015260640160405180910390fd5b600082610140015190506000816001600160a01b031663bf6aff7f6040518163ffffffff1660e01b815260040160006040518083038186803b1580156200021557600080fd5b505afa1580156200022a573d6000803e3d6000fd5b505050506040513d6000823e601f3d908101601f1916820160405262000254919081019062000585565b90507fe3a485c29a588bf0adc0ff3e96a425340451287060e5b2abeb4146e23f731bd4816040516200028791906200063e565b60405180910390a160005b81518110156200030f57600160116000848481518110620002b757620002b76200068d565b60200260200101516001600160a01b03166001600160a01b0316815260200190815260200160002060040160186101000a81548160ff02191690831515021790555080806200030690620006a3565b91505062000292565b5050505b600454600554600654600754600154600c546040805196875260208701959095529385019290925260608401526301000000900460ff16608083015260a082015281151560c08201527f45efb12b2e98a3aa6d72220bc82942d21fd0ed1dd5f0f23379712ad813e779bc9060e00160405180910390a15050620006c1565b634e487b7160e01b600052604160045260246000fd5b60405161016081016001600160401b0381118282101715620003cd57620003cd62000391565b60405290565b604051601f8201601f191681016001600160401b0381118282101715620003fe57620003fe62000391565b604052919050565b80516001600160a01b03811681146200041e57600080fd5b919050565b805160ff811681146200041e57600080fd5b8051600981106200041e57600080fd5b600061016082840312156200045957600080fd5b62000463620003a7565b825181526020830151602082015260408301516040820152620004896060840162000406565b606082015260808301516080820152620004a660a0840162000423565b60a0820152620004b960c0840162000423565b60c0820152620004cc60e0840162000423565b60e0820152610100620004e181850162000423565b90820152610120620004f584820162000435565b908201526101406200050984820162000406565b908201529392505050565b634e487b7160e01b600052602160045260246000fd5b634e487b7160e01b600052601160045260246000fd5b60008160001904831182151516156200055d576200055d6200052a565b500290565b6000826200058057634e487b7160e01b600052601260045260246000fd5b500490565b600060208083850312156200059957600080fd5b82516001600160401b0380821115620005b157600080fd5b818501915085601f830112620005c657600080fd5b815181811115620005db57620005db62000391565b8060051b9150620005ee848301620003d3565b81815291830184019184810190888411156200060957600080fd5b938501935b838510156200063257620006228562000406565b825293850193908501906200060e565b98975050505050505050565b6020808252825182820181905260009190848201906040850190845b81811015620006815783516001600160a01b0316835292840192918401916001016200065a565b50909695505050505050565b634e487b7160e01b600052603260045260246000fd5b6000600019821415620006ba57620006ba6200052a565b5060010190565b6152e780620006d16000396000f3fe60806040526004361061034f5760003560e01c80635cf1bc1a116101c6578063b986695b116100f7578063f25648d211610095578063f6020f011161006f578063f6020f0114610c70578063fa569fa214610c90578063fcbace5d14610cc8578063fd5201be14610ce85761034f565b8063f25648d214610c1a578063f283865f14610c30578063f5b2722814610c505761034f565b8063cc500ec9116100d1578063cc500ec914610bac578063cf73a1bc14610bcb578063d6aad1b914610bf0578063dcc1484a14610c055761034f565b8063b986695b14610b46578063c5f3de5a14610b5c578063ca6e038514610b715761034f565b80638cf6f32c1161016457806393808c021161013e57806393808c02146109d85780639699fee614610a05578063a41dacd614610a25578063a87430ba14610a3b5761034f565b80638cf6f32c146109815780638d03b102146109a8578063904a9d17146109c25761034f565b8063667ba0f6116101a0578063667ba0f6146108bd578063701341ed1461090c578063750142e61461092f5780638b2f56fb146109455761034f565b80635cf1bc1a1461084f57806363fa28231461087d57806364a3e2211461089d5761034f565b806333f93bcd116102a0578063403658521161023e5780634d4d2b1c116102185780634d4d2b1c146107925780634ebf31da146107dd578063508be15e1461080c57806359ac0c46146108225761034f565b8063403658521461072257806345e4c3791461073857806346834d00146107705761034f565b80633aa8f2ed1161027a5780633aa8f2ed146106ab5780633b1c5aed146106cb5780633eee0426146106eb5780633f4f2d62146107015761034f565b806333f93bcd1461063d57806335c1d349146106535780633717ef091461068b5761034f565b8063146ca5311161030d5780631b2ccc09116102e75780631b2ccc09146105a257806328624ce6146105b8578063287e0c8e146105d8578063299a0c00146106055761034f565b8063146ca5311461054c578063168d0ccb14610578578063186beae3146105805761034f565b80625c43a51461045957806302dc06d3146104825780630899604c146104ba57806308ed8d16146104d1578063095083af146104ff57806311da60b414610537575b34801561035b57600080fd5b50606080600080600060343604604051955060208102602001860160405280865260005b818110156103a757823560601c6020828102890101819052945060149092019160010161037f565b506040519450602081026020018501604052808552600093505b808410156103e9578135925082602085026020870101526020820191506001840193506103c1565b5050505060005b82518110156104545760105460ff166104425761044283828151811061041857610418614a88565b602002602001015183838151811061043257610432614a88565b602002602001015160010b610cfe565b8061044c81614ab4565b9150506103f0565b505050005b34801561046557600080fd5b5061046f600c5481565b6040519081526020015b60405180910390f35b34801561048e57600080fd5b5061046f61049d366004614aeb565b601860209081526000928352604080842090915290825290205481565b3480156104c657600080fd5b506104cf611153565b005b3480156104dd57600080fd5b506104cf6104ec366004614b1e565b6010805460ff1916911515919091179055565b34801561050b57600080fd5b5061046f61051a366004614b58565b601460209081526000928352604080842090915290825290205481565b34801561054357600080fd5b506104cf6113ac565b34801561055857600080fd5b506001546105669060ff1681565b60405160ff9091168152602001610479565b6104cf6126d5565b34801561058c57600080fd5b5060015461056690640100000000900460ff1681565b3480156105ae57600080fd5b5061046f60005481565b3480156105c457600080fd5b506104cf6105d3366004614c20565b612855565b3480156105e457600080fd5b5061046f6105f3366004614cda565b601b6020526000908152604090205481565b34801561061157600080fd5b5061046f610620366004614aeb565b601960209081526000928352604080842090915290825290205481565b34801561064957600080fd5b5061046f60085481565b34801561065f57600080fd5b5061067361066e366004614cf5565b61289a565b6040516001600160a01b039091168152602001610479565b34801561069757600080fd5b506104cf6106a6366004614d0e565b6128c4565b3480156106b757600080fd5b506104cf6106c6366004614d8e565b610cfe565b3480156106d757600080fd5b506104cf6106e6366004614d0e565b612ad3565b3480156106f757600080fd5b5061046f60095481565b34801561070d57600080fd5b50600154610566906301000000900460ff1681565b34801561072e57600080fd5b5061046f600a5481565b34801561074457600080fd5b5061046f610753366004614b58565b601560209081526000928352604080842090915290825290205481565b34801561077c57600080fd5b50610785612cd2565b6040516104799190614db8565b34801561079e57600080fd5b506107cd6107ad366004614aeb565b601260209081526000928352604080842090915290825290205460ff1681565b6040519015158152602001610479565b3480156107e957600080fd5b506107fd6107f8366004614cda565b612e1f565b60405161047993929190614ea7565b34801561081857600080fd5b5061046f60055481565b34801561082e57600080fd5b5061046f61083d366004614eea565b60176020526000908152604090205481565b34801561085b57600080fd5b5061086f61086a366004614cda565b6132d5565b604051610479929190614f05565b34801561088957600080fd5b5061046f610898366004614cf5565b6136dc565b3480156108a957600080fd5b506104cf6108b8366004614f33565b6136fc565b3480156108c957600080fd5b506108f96108d8366004614f55565b601d60209081526000928352604080842090915290825290205461ffff1681565b60405161ffff9091168152602001610479565b34801561091857600080fd5b50610921613859565b604051610479929190614f71565b34801561093b57600080fd5b5061046f60075481565b34801561095157600080fd5b506108f9610960366004614f55565b601c60209081526000928352604080842090915290825290205461ffff1681565b34801561098d57600080fd5b50600d5461099b9060ff1681565b6040516104799190614fbc565b3480156109b457600080fd5b506010546107cd9060ff1681565b3480156109ce57600080fd5b5061046f60065481565b3480156109e457600080fd5b5061046f6109f3366004614cda565b601a6020526000908152604090205481565b348015610a1157600080fd5b506104cf610a20366004614fca565b613b4d565b348015610a3157600080fd5b5061046f600b5481565b348015610a4757600080fd5b50610ad7610a56366004614cda565b60116020526000908152604090208054600182015460028301546003840154600490940154929391929091906001600160a01b0381169060ff600160a01b8204811691600160a81b8104821691600160b01b8204811691600160b81b8104821691600160c01b8204811691600160c81b8104821691600160d01b909104168c565b604080519c8d5260208d019b909b52998b019890985260608a01969096526001600160a01b03909416608089015260ff92831660a0890152911660c0870152151560e0860152151561010085015215156101208401521515610140830152151561016082015261018001610479565b348015610b5257600080fd5b5061046f60035481565b348015610b6857600080fd5b506104cf613ba3565b348015610b7d57600080fd5b506107cd610b8c366004614aeb565b601360209081526000928352604080842090915290825290205460ff1681565b348015610bb857600080fd5b5060015461056690610100900460ff1681565b348015610bd757600080fd5b50600d546106739061010090046001600160a01b031681565b348015610bfc57600080fd5b506107cd613cb0565b348015610c1157600080fd5b506107cd613d8b565b348015610c2657600080fd5b5061046f60025481565b348015610c3c57600080fd5b506104cf610c4b366004614cf5565b613e60565b348015610c5c57600080fd5b506104cf610c6b366004614cf5565b613fac565b348015610c7c57600080fd5b5061086f610c8b366004614cda565b61405a565b348015610c9c57600080fd5b5061046f610cab366004614f55565b601660209081526000928352604080842090915290825290205481565b348015610cd457600080fd5b506001546105669062010000900460ff1681565b348015610cf457600080fd5b5061046f60045481565b33600090815260116020526040902060040154600160b81b900460ff16610d405760405162461bcd60e51b8152600401610d379061500b565b60405180910390fd5b816001600160a01b038116331415610d805760405162461bcd60e51b815260206004820152600360248201526214d15560ea1b6044820152606401610d37565b3360009081526012602090815260408083206001600160a01b038516845290915290205460ff1615610dda5760405162461bcd60e51b815260206004820152600360248201526256414360e81b6044820152606401610d37565b6002546003541480610dfb57504262015180600a54610df99190615028565b105b610e2d5760405162461bcd60e51b815260206004820152600360248201526246524360e81b6044820152606401610d37565b3360008181526012602090815260408083206001600160a01b03881684528252808320805460ff19166001908117909155938352601190915290206004018054601590610e85908490600160a81b900460ff16615040565b92506101000a81548160ff021916908360ff16021790555060018060018282829054906101000a900460ff16610ebb9190615040565b825460ff9182166101009390930a9283029190920219909116179055503360009081526019602090815260408083206001600160a01b03871684529091528120805460019290610f0c908490615028565b90915550506001600160a01b0383166000908152601b60205260408120805460019290610f3a908490615028565b90915550506001821415610fb0573360009081526018602090815260408083206001600160a01b03871684529091528120805460019290610f7c908490615028565b90915550506001600160a01b0383166000908152601a60205260408120805460019290610faa908490615028565b90915550505b8160011415611031573360008181526013602090815260408083206001600160a01b03881684528252808320805460ff191660019081179091559383526011909152902081015461100091615065565b6001600160a01b0384166000908152601160205260408120600301805490919061102b9084906150ea565b90915550505b8160001914156110ae573360008181526013602090815260408083206001600160a01b03881684528252808320805460ff19169055928252601190522060019081015461107d91615065565b6001600160a01b038416600090815260116020526040812060030180549091906110a890849061512b565b90915550505b816110df573360009081526013602090815260408083206001600160a01b03871684529091529020805460ff191690555b336000818152601160209081526040808320600101546001600160a01b038816808552938290206003015482519485529284019490945282810193909352606082015290517fd69fe95841f16237d39b30bbb2ed7633b307fb0addc4bb890b6a3a77e04f5f7f9181900360800190a1505050565b33600090815260116020526040902060040154600160b81b900460ff1661118c5760405162461bcd60e51b8152600401610d379061500b565b600254600354141580156111af57504262015180600a546111ad9190615028565b115b6111e05760405162461bcd60e51b81526020600482015260026024820152614e4160f01b6044820152606401610d37565b33600090815260156020908152604080832060015460ff168452909152902054156112335760405162461bcd60e51b815260206004820152600360248201526257464560e81b6044820152606401610d37565b33600090815260116020526040902060018101548061127a5760405162461bcd60e51b81526020600482015260036024820152622722a360e91b6044820152606401610d37565b60006001830181905560048301805460ff60b81b191690555b600e5481101561131857336001600160a01b0316600e82815481106112ba576112ba614a88565b6000918252602090912001546001600160a01b0316141561130657600e81815481106112e8576112e8614a88565b600091825260209091200180546001600160a01b0319169055611318565b8061131081614ab4565b915050611293565b50604051600090339083908381818185875af1925050503d806000811461135b576040519150601f19603f3d011682016040523d82523d6000602084013e611360565b606091505b50509050806113a75760405162461bcd60e51b8152602060048201526013602482015272115512081d1c985b9cd9995c8819985a5b1959606a1b6044820152606401610d37565b505050565b60008060005b600e5481101561146e57600060116000600e84815481106113d5576113d5614a88565b60009182526020808320909101546001600160a01b031683528201929092526040019020600481015490915060ff600160a01b909104166001141561145b57600c5481600101600082825461142a919061516a565b9091555050600c5460028201805460009061144690849061512b565b9091555050600c546114589084615028565b92505b508061146681614ab4565b9150506113b2565b5060005b600e5481101561187857600060116000600e848154811061149557611495614a88565b60009182526020808320909101546001600160a01b031683528201929092526040019020600481015490915060ff600160b81b9091041680156114e457506004810154600160d01b900460ff16155b156118655760008160030154121561184f5760048101546001805460ff600160a81b909304831692829161151f918591610100900416615181565b92506101000a81548160ff021916908360ff1602179055506000600160029054906101000a900460ff1660ff16826001015461155b91906151ba565b90506000600160029054906101000a900460ff1660ff16670de0b6b3a7640000846002015461158a91906150ea565b61159491906151ce565b905060008082136115a65760006115a8565b815b6001546005549192506115c5916201000090910460ff16906151ba565b846001015411156117085760048401805460ff60b01b1916600160b01b179055600e8054600f9190879081106115fd576115fd614a88565b6000918252602080832090910154835460018181018655948452919092200180546001600160a01b0319166001600160a01b0390921691909117905560048501805460ff60c81b1916905584015461165690849061516a565b846001018190555080846002016000828254611672919061512b565b9091555050600384015461168790849061512b565b60038501556116968388615028565b96507f641368b934d33e657fe49c6af1c0e5b618d4dc123f53fc3f8d5f15fee5f4fb86600e86815481106116cc576116cc614a88565b600091825260209091200154600386015460018701546040516116fb936001600160a01b0316929188916151fc565b60405180910390a1611847565b60048401805461ffff60b01b1916600160b01b179055600e8054600f91908790811061173657611736614a88565b6000918252602080832090910154835460018181018655948452919092200180546001600160a01b0319166001600160a01b0390921691909117905560048501805460ff60c81b1916905584015461178e9088615028565b96506117a1670de0b6b3a7640000615222565b60028501556004840154600385015460018601546040517f6a461179a109ac5a4f65774b04343a475dd7d089ffa5a31552a4d71e0a1e7b4f936117f4936001600160a01b039091169290916000906151fc565b60405180910390a160008460010181905550600160026000828254611819919061516a565b909155505060048401805460ff60d01b198116600160d01b17909155611847906001600160a01b031661445f565b505050611865565b60048101805460ff60c81b1916600160c81b1790555b508061187081614ab4565b915050611472565b5060005b600e54811015611b1a57600060116000600e848154811061189f5761189f614a88565b60009182526020808320909101546001600160a01b031683528201929092526040019020600481015490915060ff600160b81b9091041615806118ed57506004810154600160d01b900460ff165b8061190357506004810154600160b01b900460ff165b1561190e5750611b08565b6000805b600f54811015611aa85760136000600e868154811061193357611933614a88565b60009182526020808320909101546001600160a01b031683528201929092526040018120600f80549192918490811061196e5761196e614a88565b60009182526020808320909101546001600160a01b0316835282019290925260400190205460ff1615611a9657600060136000600e87815481106119b4576119b4614a88565b60009182526020808320909101546001600160a01b031683528201929092526040018120600f8054919291859081106119ef576119ef614a88565b6000918252602080832091909101546001600160a01b031683528201929092526040019020805460ff1916911515919091179055600e8054600193507f1774dd77faaf323cd25b2f963ff975744949b339a6d103b4e3959263f6c2f977919086908110611a5e57611a5e614a88565b600091825260208220015460038601546001870154604051611a8d946001600160a01b039094169391906151fc565b60405180910390a15b80611aa081614ab4565b915050611912565b508015611b055760048201546001805460ff600160a81b9093048316928291611ad8918591610100900416615181565b825460ff9182166101009390930a92830291909202199091161790555060048201805460ff60c81b191690555b50505b80611b1281614ab4565b91505061187c565b5060005b600e54811015611c4b57600060116000600e8481548110611b4157611b41614a88565b60009182526020808320909101546001600160a01b031683528201929092526040019020600481015490915060ff600160b81b90910416611b825750611c39565b6004810154600160d01b900460ff1615611b9c5750611c39565b6004810154600160a01b900460ff16600114611bb85750611c39565b6004810154600160c81b900460ff1615611c1857600c54816001016000828254611be29190615028565b9091555050600c54600282018054600090611bfe9084906150ea565b9091555050600c54611c10908461516a565b925050611c39565b600c54611c259085615028565b9350600c5483611c35919061516a565b9250505b80611c4381614ab4565b915050611b1e565b506001546000908190610100900460ff1615801590611c6e575060085460095410155b156124bb5760085460096000828254611c87919061516a565b9091555050600854600090611c9d908690615028565b905060005b600e54811015611d9857600060116000600e8481548110611cc557611cc5614a88565b60009182526020808320909101546001600160a01b0316835282019290925260400190209050611cf48161458a565b8015611d2a575060015460ff16600090815260166020908152604080832060048501546001600160a01b03168452909152812054135b15611d855760015460ff908116600090815260166020908152604080832060048601546001600160a01b038116855292528220549192611d729291600160a81b900416615065565b8083559050611d8181876150ea565b9550505b5080611d9081614ab4565b915050611ca2565b5060008313611dfe5760405162461bcd60e51b815260206004820152602c60248201527f73756d4f665765696768746564436f6e7472696253636f7265206973203c3d2060448201526b3020696e20736574746c652160a01b6064820152608401610d37565b82915060005b600e5481101561232b57600060116000600e8481548110611e2757611e27614a88565b60009182526020808320909101546001600160a01b0316835282019290925260400190209050611e568161458a565b8015611e8c575060015460ff16600090815260166020908152604080832060048501546001600160a01b03168452909152812054125b1561231857600154640100000000900460ff16611eeb5760405162461bcd60e51b815260206004820152601860248201527f70756e697368666163746f72636f6e74726962203c3d203000000000000000006044820152606401610d37565b6000816001015411611f3f5760405162461bcd60e51b815260206004820152601a60248201527f757365722e676c6f62616c72657075746174696f6e203c3d20300000000000006044820152606401610d37565b60015460ff16600090815260166020908152604080832060048501546001600160a01b0316845290915281205412611fa85760405162461bcd60e51b815260206004820152600c60248201526b0636f6e74726962203e3d20360a41b6044820152606401610d37565b60015460ff16600090815260166020908152604080832060048501546001600160a01b03168452909152812054611fde906136dc565b6001805490840154611ffb91640100000000900460ff16906151ba565b612005919061523f565b60015460ff16600090815260166020908152604080832060048701546001600160a01b0316845290915281205491925090670de0b6b3a764000090612049906136dc565b600154600286015464010000000090910460ff169061207190670de0b6b3a7640000906150ea565b61207b91906151ce565b6120859190615065565b61208f91906151ce565b9050600082116120e15760405162461bcd60e51b815260206004820152601f60248201527f70756e6973686d656e74206973203c3d203020696e20736574746c65212031006044820152606401610d37565b6120f3670de0b6b3a7640000836151ba565b9150600082116121455760405162461bcd60e51b815260206004820152601f60248201527f70756e6973686d656e74206973203c3d203020696e20736574746c65212032006044820152606401610d37565b60015460055461216091640100000000900460ff16906151ba565b8360010154111580612176575081836001015411155b1561225857600183015461218a9086615028565b9450670de0b6b3a763ffff1983600201819055507f6a461179a109ac5a4f65774b04343a475dd7d089ffa5a31552a4d71e0a1e7b4f600e85815481106121d2576121d2614a88565b600091825260208220015460038601546001870154604051612200946001600160a01b0390941693906151fc565b60405180910390a160008360010181905550600160026000828254612225919061516a565b909155505060048301805460ff60d01b198116600160d01b17909155612253906001600160a01b031661445f565b612315565b8183600101600082825461226c919061516a565b9250508190555080836002016000828254612287919061512b565b9091555061229790508286615028565b600484015460038501546001860154604080516001600160a01b03909416845260208401929092529082018590526060820152600060808201529095507f8158d29a03513e7972f6b5bda3569b47e4e874fb6f992b071894b3ea87c3041e9060a00160405180910390a160048301805460ff60c81b19169055600083555b50505b508061232381614ab4565b915050611e04565b5060005b600e548110156124b857600060116000600e848154811061235257612352614a88565b60009182526020808320909101546001600160a01b03168352820192909252604001902090506123818161458a565b80156123b8575060015460ff16600090815260166020908152604080832060048501546001600160a01b0316845290915281205412155b1561249357805460009085906123ce908661523f565b6123d891906151ba565b9050808260010160008282546123ee9190615028565b909155505081546008546000918791612407919061523f565b61241191906151ba565b90508083600201600082825461242791906150ea565b909155505060048301546003840154600180860154604080516001600160a01b039095168552602085019390935283830186905260608401526080830152517f8158d29a03513e7972f6b5bda3569b47e4e874fb6f992b071894b3ea87c3041e9181900360a00190a150505b60048101805460ff60c81b1916905560009055806124b081614ab4565b91505061232f565b50505b6001546040805160ff808416825261010090930490921660208301528101829052606081018590527f0fb9071657a7d7c77d4413e1c8487bb219c39de920f3297977dd60bf0e00d33d9060800160405180910390a160005b600e5481101561267c57600060116000600e848154811061253657612536614a88565b60009182526020808320909101546001600160a01b031683528201929092526040019020600481015490915060ff600160b81b90910416801561258557506004810154600160d01b900460ff16155b156126695760048101805460ff60a81b191680825560006003840155600191906014906125bd908490600160a01b900460ff16615040565b825460ff9182166101009390930a92830291909202199091161790555060048101805460ff60b01b1916905560005b600e548110156126675760048201546001600160a01b03166000908152601260205260408120600e80549192918490811061262957612629614a88565b60009182526020808320909101546001600160a01b031683528201929092526040019020805460ff191690558061265f81614ab4565b9150506125ec565b505b508061267481614ab4565b915050612513565b5060018054819060009061269490839060ff16615040565b825460ff9182166101009390930a9283029190920219909116179055506001805461ff0019169055600060038190556126cf90600f9061494d565b50505050565b33600081815260116020526040902060040154600160b81b900460ff16156127255760405162461bcd60e51b815260206004820152600360248201526229a0a960e91b6044820152606401610d37565b33600081815260116020526040902060040154600160c01b900460ff166127745760405162461bcd60e51b815260206004820152600360248201526253554f60e81b6044820152606401610d37565b600554341015801561278857506006543411155b6127ba5760405162461bcd60e51b8152602060048201526003602482015262272ba960e91b6044820152606401610d37565b33600081815260116020526040812060048101805434600180850191909155600162ff000160a81b0319909116909417630100000160a01b179055600280549193929091612809908490615028565b9091555050600e80546001810182556000919091527fbb7b4a454dc3493923482f07822329ed19e8244eff582cc204f8554c3620c3fd0180546001600160a01b03191633179055505050565b6000806128628a8a6145e5565b81519193509150612876908887878761467c565b61288433838a8a8a8a6147c2565b61288e82826148d3565b50505050505050505050565b600e81815481106128aa57600080fd5b6000918252602090912001546001600160a01b0316905081565b6060806128d187876145e5565b8151919350915084146129265760405162461bcd60e51b815260206004820181905260248201527f494e56414c49445f4c454e475448204f462041434355524143592041525241596044820152606401610d37565b60015460ff166000908152601f6020908152604080832033845282529182902082518084018452858152835188840281810185019095528881529193909283810192918a918a91829185019084908082843760009201829052509390945250508354600181018555938152602090819020835180519495600202909101936129b593508492919091019061496e565b5060208281015180516129ce92600185019201906149d3565b50505061271061ffff84161115612a605760405162461bcd60e51b815260206004820152604a60248201527f50524556494f5553204143435552414359204e4f54204245545745454e20302060448201527f414e44203130303030207375626d6974466565646261636b4279746573416e646064820152694163637572616369657360b01b608482015260a401610d37565b60015460ff166000908152601c602090815260408083203384529091528120805461ffff191661ffff86161790555b8251811015612ac95760105460ff16612ab757612ab783828151811061041857610418614a88565b80612ac181614ab4565b915050612a8f565b5050505050505050565b606080612ae087876145e5565b815191935091508414612b355760405162461bcd60e51b815260206004820152601c60248201527f494e56414c49445f4c454e475448204f46204c4f5353204152524159000000006044820152606401610d37565b60015460ff1660009081526020808052604080832033845282529182902082518084018452858152835188840281810185019095528881529193909283810192918a918a9182918501908490808284376000920182905250939094525050835460018101855593815260209081902083518051949560020290910193612bc293508492919091019061496e565b506020828101518051612bdb92600185019201906149d3565b505060015460ff166000908152601d602090815260408083203384529091529020805461ffff191661ffff861690811790915561271010159050612c955760405162461bcd60e51b815260206004820152604560248201527f50524556494f5553204c4f5353204e4f54204245545745454e203020414e442060448201527f313030303020696e207375626d6974466565646261636b4279746573416e644c6064820152646f7373657360d81b608482015260a401610d37565b60005b8251811015612ac95760105460ff16612cc057612cc083828151811061041857610418614a88565b80612cca81614ab4565b915050612c98565b600e546060906000816001600160401b03811115612cf257612cf261525e565b604051908082528060200260200182016040528015612d5e57816020015b612d4b6040518060a0016040528060006001600160a01b03168152602001600081526020016000815260200160008152602001600081525090565b815260200190600190039081612d105790505b50905060005b82811015612e18576000600e8281548110612d8157612d81614a88565b60009182526020808320909101546001600160a01b0316808352601182526040808420815160a081018352838152600282015481860152600182015481840152838652601a8552828620546060820152838652601b90945293205460808301528551909350859085908110612df857612df8614a88565b602002602001018190525050508080612e1090614ab4565b915050612d64565b5092915050565b60608060606000805b600e54811015612f8f57600060116000600e8481548110612e4b57612e4b614a88565b60009182526020808320909101546001600160a01b039081168452838201949094526040928301822060015460ff168352601e825283832060048201549095168352939052908120549192505b81811015612f795760015460ff166000908152601e6020908152604080832060048701546001600160a01b031684529091528120805483908110612ede57612ede614a88565b9060005260206000209060030201905060005b8154811015612f64578a6001600160a01b0316826000018281548110612f1957612f19614a88565b6000918252602090912001546001600160a01b0316148015612f3f5750612f3f85614910565b15612f525786612f4e81614ab4565b9750505b80612f5c81614ab4565b915050612ef1565b50508080612f7190614ab4565b915050612e98565b5050508080612f8790614ab4565b915050612e28565b50806001600160401b03811115612fa857612fa861525e565b604051908082528060200260200182016040528015612fd1578160200160208202803683370190505b509350806001600160401b03811115612fec57612fec61525e565b604051908082528060200260200182016040528015613015578160200160208202803683370190505b509250806001600160401b038111156130305761303061525e565b604051908082528060200260200182016040528015613059578160200160208202803683370190505b5091506000805b600e548110156132cb57600060116000600e848154811061308357613083614a88565b60009182526020808320909101546001600160a01b039081168452838201949094526040928301822060015460ff168352601e825283832060048201549095168352939052908120549192505b818110156132b55760015460ff166000908152601e6020908152604080832060048701546001600160a01b03168452909152812080548390811061311657613116614a88565b9060005260206000209060030201905060005b81548110156132a0578b6001600160a01b031682600001828154811061315157613151614a88565b6000918252602090912001546001600160a01b0316148015613177575061317785614910565b1561328e5760048501548b516001600160a01b03909116908c90899081106131a1576131a1614a88565b60200260200101906001600160a01b031690816001600160a01b0316815250508160010181815481106131d6576131d6614a88565b90600052602060002090601091828204019190066002029054906101000a900461ffff168a888151811061320c5761320c614a88565b602002602001019061ffff16908161ffff168152505081600201818154811061323757613237614a88565b90600052602060002090601091828204019190066002029054906101000a900461ffff1689888151811061326d5761326d614a88565b61ffff909216602092830291909101909101528661328a81614ab4565b9750505b8061329881614ab4565b915050613129565b505080806132ad90614ab4565b9150506130d0565b50505080806132c390614ab4565b915050613060565b5050509193909250565b6060806000805b600e5481101561344057600060116000600e84815481106132ff576132ff614a88565b60009182526020808320909101546001600160a01b039081168452838201949094526040928301822060015460ff16835281805283832060048201549095168352939052908120549192505b8181101561342a5760015460ff1660009081526020808052604080832060048701546001600160a01b03168452909152812080548390811061338f5761338f614a88565b9060005260206000209060020201905060005b815481101561341557896001600160a01b03168260000182815481106133ca576133ca614a88565b6000918252602090912001546001600160a01b03161480156133f057506133f085614910565b1561340357866133ff81614ab4565b9750505b8061340d81614ab4565b9150506133a2565b5050808061342290614ab4565b91505061334b565b505050808061343890614ab4565b9150506132dc565b50806001600160401b038111156134595761345961525e565b604051908082528060200260200182016040528015613482578160200160208202803683370190505b509250806001600160401b0381111561349d5761349d61525e565b6040519080825280602002602001820160405280156134c6578160200160208202803683370190505b5091506000805b600e548110156136d457600060116000600e84815481106134f0576134f0614a88565b60009182526020808320909101546001600160a01b039081168452838201949094526040928301822060015460ff16835281805283832060048201549095168352939052908120549192505b818110156136be5760015460ff1660009081526020808052604080832060048701546001600160a01b03168452909152812080548390811061358057613580614a88565b9060005260206000209060020201905060005b81548110156136a9578a6001600160a01b03168260000182815481106135bb576135bb614a88565b6000918252602090912001546001600160a01b03161480156135e157506135e185614910565b156136975760048501548a516001600160a01b03909116908b908990811061360b5761360b614a88565b60200260200101906001600160a01b031690816001600160a01b03168152505081600101818154811061364057613640614a88565b90600052602060002090601091828204019190066002029054906101000a900461ffff1689888151811061367657613676614a88565b61ffff909216602092830291909101909101528661369381614ab4565b9750505b806136a181614ab4565b915050613593565b505080806136b690614ab4565b91505061353c565b50505080806136cc90614ab4565b9150506134cd565b505050915091565b6000808212156136f4576136ef82615222565b6136f6565b815b92915050565b33600090815260116020526040902060040154600160b81b900460ff166137355760405162461bcd60e51b8152600401610d379061500b565b33600090815260156020908152604080832060015460ff168452909152902054156137885760405162461bcd60e51b815260206004820152600360248201526205341560ec1b6044820152606401610d37565b604080516020810184905290810182905233606090811b6bffffffffffffffffffffffff19169082015260740160408051601f1981840301815291815281516020928301203360009081526014845282812060015460ff1682529093529120541461381b5760405162461bcd60e51b81526020600482015260036024820152624e4b5360e81b6044820152606401610d37565b3360009081526015602090815260408083206001805460ff168552925282208490556003805491929091613850908490615028565b90915550505050565b6060806000805b600e5481101561390957600060116000600e848154811061388357613883614a88565b60009182526020808320909101546001600160a01b031683528201929092526040019020600481015490915060ff600160b81b9091041680156138d257506004810154600160d01b900460ff16155b80156138e357506000816003015412155b156138f6576138f3600184615040565b92505b508061390181614ab4565b915050613860565b508060ff166001600160401b038111156139255761392561525e565b60405190808252806020026020018201604052801561394e578160200160208202803683370190505b5092508060ff166001600160401b0381111561396c5761396c61525e565b604051908082528060200260200182016040528015613995578160200160208202803683370190505b5091506000805b600e54811015613b4657600060116000600e84815481106139bf576139bf614a88565b60009182526020808320909101546001600160a01b031683528201929092526040019020600481015490915060ff600160b81b909104168015613a0e57506004810154600160d01b900460ff16155b8015613a1f57506000816003015412155b15613b335760015460ff166000908152601c60205260408120600e805491929185908110613a4f57613a4f614a88565b60009182526020808320909101546001600160a01b03168352820192909252604001902054865161ffff90911690879060ff8616908110613a9257613a92614a88565b61ffff90921660209283029190910182015260015460ff166000908152601d90915260408120600e805491929185908110613acf57613acf614a88565b60009182526020808320909101546001600160a01b03168352820192909252604001902054855161ffff90911690869060ff8616908110613b1257613b12614a88565b61ffff9092166020928302919091019091015282613b2f81615274565b9350505b5080613b3e81614ab4565b91505061399c565b5050509091565b606080613b5a84846145e5565b909250905060005b8251811015613b9c5760105460ff16613b8a57613b8a83828151811061041857610418614a88565b80613b9481614ab4565b915050613b62565b5050505050565b6000600d5460ff166008811115613bbc57613bbc614f84565b1415613bff5760405162461bcd60e51b815260206004820152601260248201527154656d706c617465206368616c6c656e676560701b6044820152606401610d37565b600d5461010090046001600160a01b0316613c495760405162461bcd60e51b815260206004820152600a60248201526927379036b0b730b3b2b960b11b6044820152606401610d37565b600d546040516305597ed760e21b81526001600160a01b0361010083041691631565fb5c91613c8291309160ff90911690600401615294565b600060405180830381600087803b158015613c9c57600080fd5b505af11580156126cf573d6000803e3d6000fd5b600080805b600e54811015613d5e57600060116000600e8481548110613cd857613cd8614a88565b60009182526020808320909101546001600160a01b031683528201929092526040019020600481015490915060ff600160b81b909104168015613d2757506004810154600160d01b900460ff16155b8015613d3857506000816003015412155b15613d4b5782613d4781614ab4565b9350505b5080613d5681614ab4565b915050613cb5565b5060015460ff16600090815260176020526040902054811115613d8357600091505090565b600191505090565b600060025460001415613d9e5750600090565b60005b600e54811015613e5857600060116000600e8481548110613dc457613dc4614a88565b60009182526020808320909101546001600160a01b031683528201929092526040019020600481015490915060ff600160b81b909104168015613e1357506004810154600160d01b900460ff16155b15613e45576001600254613e27919061516a565b6004820154600160a81b900460ff161015613e455760009250505090565b5080613e5081614ab4565b915050613da1565b506001905090565b33600090815260116020526040902060040154600160b81b900460ff16613ebf5760405162461bcd60e51b8152602060048201526013602482015272155cd95c881b9bdd081c9959da5cdd195c9959606a1b6044820152606401610d37565b60015460ff16600090815260166020908152604080832033845290915290205415613f2c5760405162461bcd60e51b815260206004820152601760248201527f53636f726520616c7265616479207375626d69747465640000000000000000006044820152606401610d37565b6001805460ff9081166000908152601660209081526040808320338452825280832086905584549093168252601790529081208054909190613f6f908490615028565b909155505060405181815233907f20e6c7c82a3c0a8203efca055fc9a664ca649345957ddc3ba34b2912e9ed83739060200160405180910390a250565b33600090815260116020526040902060040154600160b81b900460ff16613fe55760405162461bcd60e51b8152600401610d379061500b565b33600090815260156020908152604080832060015460ff168452909152902054156140385760405162461bcd60e51b815260206004820152600360248201526205341560ec1b6044820152606401610d37565b33600090815260146020908152604080832060015460ff168452909152902055565b6060806000805b600e548110156141c857600060116000600e848154811061408457614084614a88565b60009182526020808320909101546001600160a01b039081168452838201949094526040928301822060015460ff168352601f825283832060048201549095168352939052908120549192505b818110156141b25760015460ff166000908152601f6020908152604080832060048701546001600160a01b03168452909152812080548390811061411757614117614a88565b9060005260206000209060020201905060005b815481101561419d57896001600160a01b031682600001828154811061415257614152614a88565b6000918252602090912001546001600160a01b0316148015614178575061417885614910565b1561418b578661418781614ab4565b9750505b8061419581614ab4565b91505061412a565b505080806141aa90614ab4565b9150506140d1565b50505080806141c090614ab4565b915050614061565b50806001600160401b038111156141e1576141e161525e565b60405190808252806020026020018201604052801561420a578160200160208202803683370190505b509250806001600160401b038111156142255761422561525e565b60405190808252806020026020018201604052801561424e578160200160208202803683370190505b5091506000805b600e548110156136d457600060116000600e848154811061427857614278614a88565b60009182526020808320909101546001600160a01b039081168452838201949094526040928301822060015460ff168352601f825283832060048201549095168352939052908120549192505b818110156144495760015460ff166000908152601f6020908152604080832060048701546001600160a01b03168452909152812080548390811061430b5761430b614a88565b9060005260206000209060020201905060005b8154811015614434578a6001600160a01b031682600001828154811061434657614346614a88565b6000918252602090912001546001600160a01b031614801561436c575061436c85614910565b156144225760048501548a516001600160a01b03909116908b908990811061439657614396614a88565b60200260200101906001600160a01b031690816001600160a01b0316815250508160010181815481106143cb576143cb614a88565b90600052602060002090601091828204019190066002029054906101000a900461ffff1689888151811061440157614401614a88565b61ffff909216602092830291909101909101528661441e81614ab4565b9750505b8061442c81614ab4565b91505061431e565b5050808061444190614ab4565b9150506142c5565b505050808061445790614ab4565b915050614255565b60005b600e54811015614586576000600e828154811061448157614481614a88565b60009182526020808320909101546001600160a01b0386811680855260188452604080862092909316808652918452828520549085526019845282852082865290935292205491925090806144d857505050614574565b6001600160a01b0383166000908152601a60205260408120805484929061450090849061516a565b90915550506001600160a01b0383166000908152601b60205260408120805483929061452d90849061516a565b909155505050506001600160a01b03838116600081815260186020908152604080832095909416808352948152838220829055918152601982528281209381529290528120555b8061457e81614ab4565b915050614462565b5050565b6004810154600090600160b81b900460ff1680156145b357506004820154600160c81b900460ff165b80156145cb57506004820154600160b01b900460ff16155b80156136f657505060040154600160d01b900460ff161590565b6060806000808560348604604051955060208102602001860160405280865260005b8181101561462f57823560601c60208281028901018190529450601490920191600101614607565b506040519450602081026020018501604052808552600093505b8084101561467157813592508260208502602087010152602082019150600184019350614649565b505050509250929050565b8484146146cb5760405162461bcd60e51b815260206004820181905260248201527f494e56414c49445f4c454e475448204f462041434355524143592041525241596044820152606401610d37565b84831461471a5760405162461bcd60e51b815260206004820152601c60248201527f494e56414c49445f4c454e475448204f46204c4f5353204152524159000000006044820152606401610d37565b61ffff828116111561476e5760405162461bcd60e51b815260206004820152601e60248201527f50524556494f5553204143435552414359204f5554204f462052414e474500006044820152606401610d37565b61ffff8181161115613b9c5760405162461bcd60e51b815260206004820152601a60248201527f50524556494f5553204c4f5353204f5554204f462052414e47450000000000006044820152606401610d37565b60015460ff166000908152601e602090815260408083206001600160a01b038a1684528252918290208251606081018452888152835187840281810185019095528781529193909283810192918991899182918501908490808284376000920191909152505050908252506040805160208681028281018201909352868252928301929091879187918291850190849080828437600092018290525093909452505083546001810185559381526020908190208351805194956003029091019361489393508492919091019061496e565b5060208281015180516148ac92600185019201906149d3565b50604082015180516148c89160028401916020909101906149d3565b505050505050505050565b60005b82518110156113a75760105460ff166148fe576148fe83828151811061041857610418614a88565b8061490881614ab4565b9150506148d6565b6004810154600090600160b81b900460ff16801561493a57506004820154600160d01b900460ff16155b80156136f6575050600301546000131590565b508054600082559060005260206000209081019061496b9190614a73565b50565b8280548282559060005260206000209081019282156149c3579160200282015b828111156149c357825182546001600160a01b0319166001600160a01b0390911617825560209092019160019091019061498e565b506149cf929150614a73565b5090565b82805482825590600052602060002090600f016010900481019282156149c35791602002820160005b83821115614a3c57835183826101000a81548161ffff021916908361ffff16021790555092602001926002016020816001010492830192600103026149fc565b8015614a6a5782816101000a81549061ffff0219169055600201602081600101049283019260010302614a3c565b50506149cf9291505b5b808211156149cf5760008155600101614a74565b634e487b7160e01b600052603260045260246000fd5b634e487b7160e01b600052601160045260246000fd5b6000600019821415614ac857614ac8614a9e565b5060010190565b80356001600160a01b0381168114614ae657600080fd5b919050565b60008060408385031215614afe57600080fd5b614b0783614acf565b9150614b1560208401614acf565b90509250929050565b600060208284031215614b3057600080fd5b81358015158114614b4057600080fd5b9392505050565b803560ff81168114614ae657600080fd5b60008060408385031215614b6b57600080fd5b614b7483614acf565b9150614b1560208401614b47565b60008083601f840112614b9457600080fd5b5081356001600160401b03811115614bab57600080fd5b602083019150836020828501011115614bc357600080fd5b9250929050565b60008083601f840112614bdc57600080fd5b5081356001600160401b03811115614bf357600080fd5b6020830191508360208260051b8501011115614bc357600080fd5b803561ffff81168114614ae657600080fd5b60008060008060008060008060a0898b031215614c3c57600080fd5b88356001600160401b0380821115614c5357600080fd5b614c5f8c838d01614b82565b909a50985060208b0135915080821115614c7857600080fd5b614c848c838d01614bca565b909850965060408b0135915080821115614c9d57600080fd5b50614caa8b828c01614bca565b9095509350614cbd905060608a01614c0e565b9150614ccb60808a01614c0e565b90509295985092959890939650565b600060208284031215614cec57600080fd5b614b4082614acf565b600060208284031215614d0757600080fd5b5035919050565b600080600080600060608688031215614d2657600080fd5b85356001600160401b0380821115614d3d57600080fd5b614d4989838a01614b82565b90975095506020880135915080821115614d6257600080fd5b50614d6f88828901614bca565b9094509250614d82905060408701614c0e565b90509295509295909350565b60008060408385031215614da157600080fd5b614daa83614acf565b946020939093013593505050565b602080825282518282018190526000919060409081850190868401855b82811015614e2257815180516001600160a01b0316855286810151878601528581015186860152606080820151908601526080908101519085015260a09093019290850190600101614dd5565b5091979650505050505050565b600081518084526020808501945080840160005b83811015614e685781516001600160a01b031687529582019590820190600101614e43565b509495945050505050565b600081518084526020808501945080840160005b83811015614e6857815161ffff1687529582019590820190600101614e87565b606081526000614eba6060830186614e2f565b8281036020840152614ecc8186614e73565b90508281036040840152614ee08185614e73565b9695505050505050565b600060208284031215614efc57600080fd5b614b4082614b47565b604081526000614f186040830185614e2f565b8281036020840152614f2a8185614e73565b95945050505050565b60008060408385031215614f4657600080fd5b50508035926020909101359150565b60008060408385031215614f6857600080fd5b614b0783614b47565b604081526000614f186040830185614e73565b634e487b7160e01b600052602160045260246000fd5b60098110614fb857634e487b7160e01b600052602160045260246000fd5b9052565b602081016136f68284614f9a565b60008060208385031215614fdd57600080fd5b82356001600160401b03811115614ff357600080fd5b614fff85828601614b82565b90969095509350505050565b60208082526003908201526229a72960e91b604082015260600190565b6000821982111561503b5761503b614a9e565b500190565b600060ff821660ff84168060ff0382111561505d5761505d614a9e565b019392505050565b60006001600160ff1b038184138284138082168684048611161561508b5761508b614a9e565b600160ff1b60008712828116878305891216156150aa576150aa614a9e565b600087129250878205871284841616156150c6576150c6614a9e565b878505871281841616156150dc576150dc614a9e565b505050929093029392505050565b600080821280156001600160ff1b038490038513161561510c5761510c614a9e565b600160ff1b839003841281161561512557615125614a9e565b50500190565b60008083128015600160ff1b85018412161561514957615149614a9e565b6001600160ff1b038401831381161561516457615164614a9e565b50500390565b60008282101561517c5761517c614a9e565b500390565b600060ff821660ff84168082101561519b5761519b614a9e565b90039392505050565b634e487b7160e01b600052601260045260246000fd5b6000826151c9576151c96151a4565b500490565b6000826151dd576151dd6151a4565b600160ff1b8214600019841416156151f7576151f7614a9e565b500590565b6001600160a01b0394909416845260208401929092526040830152606082015260800190565b6000600160ff1b82141561523857615238614a9e565b5060000390565b600081600019048311821515161561525957615259614a9e565b500290565b634e487b7160e01b600052604160045260246000fd5b600060ff821660ff81141561528b5761528b614a9e565b60010192915050565b6001600160a01b038316815260408101614b406020830184614f9a56fea26469706673582212208563dad5cf831c95183fddbff39e40ade50a837e2d77b05c1e07cd234888204a64736f6c63430008090033","linkReferences":{}},"methodIdentifiers":{"absUint(int256)":"63fa2823","contributionScore(uint8,address)":"fa569fa2","contributionStart()":"a41dacd6","exitModel()":"0899604c","feedback(address,int256)":"3aa8f2ed","finalizeReputations()":"c5f3de5a","freeriderPenalty()":"005c43a5","getAllAccuraciesAbout(address)":"f6020f01","getAllAccuraciesLossesAbout(address)":"4ebf31da","getAllLossesAbout(address)":"5cf1bc1a","getAllPreviousAccuraciesAndLosses()":"701341ed","getTaskRepDeltaAndGRS()":"46834d00","hasVoted(address,address)":"4d4d2b1c","initTS()":"fd5201be","isContributionRoundDone()":"d6aad1b9","isFeedBackRoundDone()":"dcc1484a","managerAddress()":"cf73a1bc","max_collateral()":"904a9d17","min_collateral()":"508be15e","min_rounds()":"3f4f2d62","modelHash()":"1b2ccc09","nrOfActiveParticipants()":"f25648d2","nrOfContributionScores(uint8)":"59ac0c46","nrOfProvidedHashedWeights()":"b986695b","participants(uint256)":"35c1d349","positiveVotesGivenByTo(address,address)":"02dc06d3","positiveVotesReceived(address)":"93808c02","prev_accs(uint8,address)":"8b2f56fb","prev_losses(uint8,address)":"667ba0f6","provideHashedWeights(bytes32,uint256)":"64a3e221","punishfactor()":"fcbace5d","punishfactorContrib()":"186beae3","registerSlot(bytes32)":"f5b27228","registrationProcess()":"168d0ccb","rewardLeft()":"3eee0426","rewardPerRound()":"33f93bcd","round()":"146ca531","roundStart()":"40365852","secretOf(address,uint8)":"095083af","setTesting(bool)":"08ed8d16","settle()":"11da60b4","submitContributionScore(int256)":"f283865f","submitFeedbackBytes(bytes)":"9699fee6","submitFeedbackBytesAndAccuracies(bytes,uint16[],uint16)":"3717ef09","submitFeedbackBytesAndAccuraciesLosses(bytes,uint16[],uint16[],uint16,uint16)":"28624ce6","submitFeedbackBytesAndLosses(bytes,uint16[],uint16)":"3b1c5aed","taskType()":"8cf6f32c","testing()":"8d03b102","totalReward()":"750142e6","totalVotesGivenByTo(address,address)":"299a0c00","totalVotesReceived(address)":"287e0c8e","users(address)":"a87430ba","votedPositiveFor(address,address)":"ca6e0385","votesPerRound()":"cc500ec9","weightsOf(address,uint8)":"45e4c379"},"id":2}