{"abi":[{"type":"constructor","inputs":[{"name":"taskSpecs","type":"tuple","internalType":"struct ChallengeSpecifications","components":[{"name":"modelHash","type":"bytes32","internalType":"bytes32"},{"name":"min_collateral","type":"uint256","internalType":"uint256"},{"name":"max_collateral","type":"uint256","internalType":"uint256"},{"name":"managerAddress","type":"address","internalType":"address"},{"name":"reward","type":"uint256","internalType":"uint256"},{"name":"min_rounds","type":"uint8","internalType":"uint8"},{"name":"punishfactor","type":"uint8","internalType":"uint8"},{"name":"punishfactorContrib","type":"uint8","internalType":"uint8"},{"name":"freeriderPenalty","type":"uint8","internalType":"uint8"},{"name":"taskType","type":"uint8","internalType":"enum TaskType"},{"name":"jobListingAddress","type":"address","internalType":"address"}]}],"stateMutability":"payable"},{"type":"fallback","stateMutability":"nonpayable"},{"type":"function","name":"absUint","inputs":[{"name":"x","type":"int256","internalType":"int256"}],"outputs":[{"name":"","type":"uint256","internalType":"uint256"}],"stateMutability":"pure"},{"type":"function","name":"contributionScore","inputs":[{"name":"","type":"uint8","internalType":"uint8"},{"name":"","type":"address","internalType":"address"}],"outputs":[{"name":"","type":"int256","internalType":"int256"}],"stateMutability":"view"},{"type":"function","name":"contributionStart","inputs":[],"outputs":[{"name":"","type":"uint256","internalType":"uint256"}],"stateMutability":"view"},{"type":"function","name":"exitModel","inputs":[],"outputs":[],"stateMutability":"nonpayable"},{"type":"function","name":"feedback","inputs":[{"name":"target","type":"address","internalType":"address"},{"name":"score","type":"int256","internalType":"int256"}],"outputs":[],"stateMutability":"nonpayable"},{"type":"function","name":"finalizeReputations","inputs":[],"outputs":[],"stateMutability":"nonpayable"},{"type":"function","name":"freeriderPenalty","inputs":[],"outputs":[{"name":"","type":"uint256","internalType":"uint256"}],"stateMutability":"view"},{"type":"function","name":"getAllAccuraciesAbout","inputs":[{"name":"target","type":"address","internalType":"address"}],"outputs":[{"name":"voters","type":"address[]","internalType":"address[]"},{"name":"accuracies","type":"uint16[]","internalType":"uint16[]"}],"stateMutability":"view"},{"type":"function","name":"getAllAccuraciesLossesAbout","inputs":[{"name":"target","type":"address","internalType":"address"}],"outputs":[{"name":"voters","type":"address[]","internalType":"address[]"},{"name":"accuracies","type":"uint16[]","internalType":"uint16[]"},{"name":"losses","type":"uint16[]","internalType":"uint16[]"}],"stateMutability":"view"},{"type":"function","name":"getAllLossesAbout","inputs":[{"name":"target","type":"address","internalType":"address"}],"outputs":[{"name":"voters","type":"address[]","internalType":"address[]"},{"name":"losses","type":"uint16[]","internalType":"uint16[]"}],"stateMutability":"view"},{"type":"function","name":"getAllPreviousAccuraciesAndLosses","inputs":[],"outputs":[{"name":"previous_accuracies","type":"uint16[]","internalType":"uint16[]"},{"name":"previous_losses","type":"uint16[]","internalType":"uint16[]"}],"stateMutability":"view"},{"type":"function","name":"getTaskRepDeltaAndGRS","inputs":[],"outputs":[{"name":"","type":"tuple[]","internalType":"struct OpenFLChallenge.TaskRep[]","components":[{"name":"user","type":"address","internalType":"address"},{"name":"delta","type":"int256","internalType":"int256"},{"name":"globalReputationScore","type":"uint256","internalType":"uint256"},{"name":"positiveVotes","type":"uint256","internalType":"uint256"},{"name":"totalVotes","type":"uint256","internalType":"uint256"}]}],"stateMutability":"view"},{"type":"function","name":"hasVoted","inputs":[{"name":"","type":"address","internalType":"address"},{"name":"","type":"address","internalType":"address"}],"outputs":[{"name":"","type":"bool","internalType":"bool"}],"stateMutability":"view"},{"type":"function","name":"initTS","inputs":[],"outputs":[{"name":"","type":"uint256","internalType":"uint256"}],"stateMutability":"view"},{"type":"function","name":"isContributionRoundDone","inputs":[],"outputs":[{"name":"roundClosed","type":"bool","internalType":"bool"}],"stateMutability":"view"},{"type":"function","name":"isFeedBackRoundDone","inputs":[],"outputs":[{"name":"roundClosed","type":"bool","internalType":"bool"}],"stateMutability":"view"},{"type":"function","name":"managerAddress","inputs":[],"outputs":[{"name":"","type":"address","internalType":"address"}],"stateMutability":"view"},{"type":"function","name":"max_collateral","inputs":[],"outputs":[{"name":"","type":"uint256","internalType":"uint256"}],"stateMutability":"view"},{"type":"function","name":"min_collateral","inputs":[],"outputs":[{"name":"","type":"uint256","internalType":"uint256"}],"stateMutability":"view"},{"type":"function","name":"min_rounds","inputs":[],"outputs":[{"name":"","type":"uint8","internalType":"uint8"}],"stateMutability":"view"},{"type":"function","name":"modelHash","inputs":[],"outputs":[{"name":"","type":"bytes32","internalType":"bytes32"}],"stateMutability":"view"},{"type":"function","name":"nrOfActiveParticipants","inputs":[],"outputs":[{"name":"","type":"uint256","internalType":"uint256"}],"stateMutability":"view"},{"type":"function","name":"nrOfContributionScores","inputs":[{"name":"","type":"uint8","internalType":"uint8"}],"outputs":[{"name":"","type":"uint256","internalType":"uint256"}],"stateMutability":"view"},{"type":"function","name":"nrOfProvidedHashedWeights","inputs":[],"outputs":[{"name":"","type":"uint256","internalType":"uint256"}],"stateMutability":"view"},{"type":"function","name":"participants","inputs":[{"name":"","type":"uint256","internalType":"uint256"}],"outputs":[{"name":"","type":"address","internalType":"address"}],"stateMutability":"view"},{"type":"function","name":"positiveVotesGivenByTo","inputs":[{"name":"","type":"address","internalType":"address"},{"name":"","type":"address","internalType":"address"}],"outputs":[{"name":"","type":"uint256","internalType":"uint256"}],"stateMutability":"view"},{"type":"function","name":"positiveVotesReceived","inputs":[{"name":"","type":"address","internalType":"address"}],"outputs":[{"name":"","type":"uint256","internalType":"uint256"}],"stateMutability":"view"},{"type":"function","name":"prev_accs","inputs":[{"name":"","type":"uint8","internalType":"uint8"},{"name":"","type":"address","internalType":"address"}],"outputs":[{"name":"","type":"uint16","internalType":"uint16"}],"stateMutability":"view"},{"type":"function","name":"prev_losses","inputs":[{"name":"","type":"uint8","internalType":"uint8"},{"name":"","type":"address","internalType":"address"}],"outputs":[{"name":"","type":"uint16","internalType":"uint16"}],"stateMutability":"view"},{"type":"function","name":"provideHashedWeights","inputs":[{"name":"hashedWeights","type":"bytes32","internalType":"bytes32"},{"name":"salt","type":"uint256","internalType":"uint256"}],"outputs":[],"stateMutability":"nonpayable"},{"type":"function","name":"punishfactor","inputs":[],"outputs":[{"name":"","type":"uint8","internalType":"uint8"}],"stateMutability":"view"},{"type":"function","name":"punishfactorContrib","inputs":[],"outputs":[{"name":"","type":"uint8","internalType":"uint8"}],"stateMutability":"view"},{"type":"function","name":"registerSlot","inputs":[{"name":"_secret","type":"bytes32","internalType":"bytes32"}],"outputs":[],"stateMutability":"nonpayable"},{"type":"function","name":"registrationProcess","inputs":[],"outputs":[],"stateMutability":"payable"},{"type":"function","name":"rewardLeft","inputs":[],"outputs":[{"name":"","type":"uint256","internalType":"uint256"}],"stateMutability":"view"},{"type":"function","name":"rewardPerRound","inputs":[],"outputs":[{"name":"","type":"uint256","internalType":"uint256"}],"stateMutability":"view"},{"type":"function","name":"round","inputs":[],"outputs":[{"name":"","type":"uint8","internalType":"uint8"}],"stateMutability":"view"},{"type":"function","name":"roundStart","inputs":[],"outputs":[{"name":"","type":"uint256","internalType":"uint256"}],"stateMutability":"view"},{"type":"function","name":"secretOf","inputs":[{"name":"","type":"address","internalType":"address"},{"name":"","type":"uint8","internalType":"uint8"}],"outputs":[{"name":"","type":"bytes32","internalType":"bytes32"}],"stateMutability":"view"},{"type":"function","name":"setTesting","inputs":[{"name":"_testing","type":"bool","internalType":"bool"}],"outputs":[],"stateMutability":"nonpayable"},{"type":"function","name":"settle","inputs":[],"outputs":[],"stateMutability":"nonpayable"},{"type":"function","name":"submitContributionScore","inputs":[{"name":"score","type":"int256","internalType":"int256"}],"outputs":[],"stateMutability":"nonpayable"},{"type":"function","name":"submitFeedbackBytes","inputs":[{"name":"raw","type":"bytes","internalType":"bytes"}],"outputs":[],"stateMutability":"nonpayable"},{"type":"function","name":"submitFeedbackBytesAndAccuracies","inputs":[{"name":"raw","type":"bytes","internalType":"bytes"},{"name":"accuracies","type":"uint16[]","internalType":"uint16[]"},{"name":"prev_acc","type":"uint16","internalType":"uint16"}],"outputs":[],"stateMutability":"nonpayable"},{"type":"function","name":"submitFeedbackBytesAndAccuraciesLosses","inputs":[{"name":"raw","type":"bytes","internalType":"bytes"},{"name":"accuracies","type":"uint16[]","internalType":"uint16[]"},{"name":"losses","type":"uint16[]","internalType":"uint16[]"},{"name":"prev_acc","type":"uint16","internalType":"uint16"},{"name":"prev_loss","type":"uint16","internalType":"uint16"}],"outputs":[],"stateMutability":"nonpayable"},{"type":"function","name":"submitFeedbackBytesAndLosses","inputs":[{"name":"raw","type":"bytes","internalType":"bytes"},{"name":"losses","type":"uint16[]","internalType":"uint16[]"},{"name":"prev_loss","type":"uint16","internalType":"uint16"}],"outputs":[],"stateMutability":"nonpayable"},{"type":"function","name":"taskType","inputs":[],"outputs":[{"name":"","type":"uint8","internalType":"enum TaskType"}],"stateMutability":"view"},{"type":"function","name":"testing","inputs":[],"outputs":[{"name":"","type":"bool","internalType":"bool"}],"stateMutability":"view"},{"type":"function","name":"totalReward","inputs":[],"outputs":[{"name":"","type":"uint256","internalType":"uint256"}],"stateMutability":"view"},{"type":"function","name":"totalVotesGivenByTo","inputs":[{"name":"","type":"address","internalType":"address"},{"name":"","type":"address","internalType":"address"}],"outputs":[{"name":"","type":"uint256","internalType":"uint256"}],"stateMutability":"view"},{"type":"function","name":"totalVotesReceived","inputs":[{"name":"","type":"address","internalType":"address"}],"outputs":[{"name":"","type":"uint256","internalType":"uint256"}],"stateMutability":"view"},{"type":"function","name":"users","inputs":[{"name":"","type":"address","internalType":"address"}],"outputs":[{"name":"weightedContribScore","type":"int256","internalType":"int256"},{"name":"globalReputationScore","type":"uint256","internalType":"uint256"},{"name":"taskRepDelta","type":"int256","internalType":"int256"},{"name":"roundReputation","type":"int256","internalType":"int256"},{"name":"addr","type":"address","internalType":"address"},{"name":"nrOfRoundsParticipated","type":"uint8","internalType":"uint8"},{"name":"nrOfVotesFromUser","type":"uint8","internalType":"uint8"},{"name":"isPunished","type":"bool","internalType":"bool"},{"name":"isRegistered","type":"bool","internalType":"bool"},{"name":"isSelected","type":"bool","internalType":"bool"},{"name":"whitelistedForRewards","type":"bool","internalType":"bool"},{"name":"isDisqualified","type":"bool","internalType":"bool"}],"stateMutability":"view"},{"type":"function","name":"votedPositiveFor","inputs":[{"name":"","type":"address","internalType":"address"},{"name":"","type":"address","internalType":"address"}],"outputs":[{"name":"","type":"bool","internalType":"bool"}],"stateMutability":"view"},{"type":"function","name":"votesPerRound","inputs":[],"outputs":[{"name":"","type":"uint8","internalType":"uint8"}],"stateMutability":"view"},{"type":"function","name":"weightsOf","inputs":[{"name":"","type":"address","internalType":"address"},{"name":"","type":"uint8","internalType":"uint8"}],"outputs":[{"name":"","type":"bytes32","internalType":"bytes32"}],"stateMutability":"view"},{"type":"event","name":"ContributionScoreSubmitted","inputs":[{"name":"user","type":"address","indexed":true,"internalType":"address"},{"name":"contributionScore","type":"int256","indexed":false,"internalType":"int256"}],"anonymous":false},{"type":"event","name":"Disqualification","inputs":[{"name":"victim","type":"address","indexed":false,"internalType":"address"},{"name":"roundScore","type":"int256","indexed":false,"internalType":"int256"},{"name":"loss","type":"uint256","indexed":false,"internalType":"uint256"},{"name":"newReputation","type":"uint256","indexed":false,"internalType":"uint256"}],"anonymous":false},{"type":"event","name":"EndRound","inputs":[{"name":"round","type":"uint8","indexed":false,"internalType":"uint8"},{"name":"validVotes","type":"uint8","indexed":false,"internalType":"uint8"},{"name":"sumOfWeightedContribScore","type":"uint256","indexed":false,"internalType":"uint256"},{"name":"totalPunishment","type":"uint256","indexed":false,"internalType":"uint256"}],"anonymous":false},{"type":"event","name":"FederatedLearningModelDeployed","inputs":[{"name":"initTS","type":"uint256","indexed":false,"internalType":"uint256"},{"name":"max_collateral","type":"uint256","indexed":false,"internalType":"uint256"},{"name":"min_collateral","type":"uint256","indexed":false,"internalType":"uint256"},{"name":"total_reward","type":"uint256","indexed":false,"internalType":"uint256"},{"name":"min_rounds","type":"uint8","indexed":false,"internalType":"uint8"},{"name":"freerider_fee","type":"uint256","indexed":false,"internalType":"uint256"},{"name":"isTemplate","type":"bool","indexed":false,"internalType":"bool"}],"anonymous":false},{"type":"event","name":"Feedback","inputs":[{"name":"target","type":"address","indexed":false,"internalType":"address"},{"name":"user","type":"address","indexed":false,"internalType":"address"},{"name":"globalReputation","type":"uint256","indexed":false,"internalType":"uint256"},{"name":"newRoundReputation","type":"int256","indexed":false,"internalType":"int256"}],"anonymous":false},{"type":"event","name":"PassivPunishment","inputs":[{"name":"victim","type":"address","indexed":false,"internalType":"address"},{"name":"roundScore","type":"int256","indexed":false,"internalType":"int256"},{"name":"loss","type":"uint256","indexed":false,"internalType":"uint256"},{"name":"newReputation","type":"uint256","indexed":false,"internalType":"uint256"}],"anonymous":false},{"type":"event","name":"Punishment","inputs":[{"name":"victim","type":"address","indexed":false,"internalType":"address"},{"name":"roundScore","type":"int256","indexed":false,"internalType":"int256"},{"name":"loss","type":"uint256","indexed":false,"internalType":"uint256"},{"name":"newReputation","type":"uint256","indexed":false,"internalType":"uint256"}],"anonymous":false},{"type":"event","name":"Registered","inputs":[{"name":"user","type":"address","indexed":false,"internalType":"address"},{"name":"reputationValue","type":"uint256","indexed":false,"internalType":"uint256"},{"name":"totalCollateral","type":"uint256","indexed":false,"internalType":"uint256"},{"name":"numberOfContributers","type":"uint256","indexed":false,"internalType":"uint256"}],"anonymous":false},{"type":"event","name":"Reward","inputs":[{"name":"user","type":"address","indexed":false,"internalType":"address"},{"name":"roundScore","type":"int256","indexed":false,"internalType":"int256"},{"name":"win","type":"uint256","indexed":false,"internalType":"uint256"},{"name":"newReputation","type":"uint256","indexed":false,"internalType":"uint256"},{"name":"is_reward","type":"bool","indexed":false,"internalType":"bool"}],"anonymous":false},{"type":"event","name":"SelectedUsers","inputs":[{"name":"users","type":"address[]","indexed":false,"internalType":"address[]"}],"anonymous":false}],"bytecode":{"object":"0x608060408190526001805460ff1990811690915560108054909116905562005a43388190039081908339810160408190526200003b9162000445565b426004819055600a55805160005560208101516005556040810151600655608081015160075560a08101516001805460c084015160e085015163ffff000019909216630100000060ff9586160262ff000019161762010000918516919091021760ff60201b19166401000000009390911692909202919091178155610120820151600d80549192909160ff191690836008811115620000de57620000de62000514565b02179055508060600151600d60016101000a8154816001600160a01b0302191690836001600160a01b03160217905550606481610100015160ff1660055462000128919062000540565b62000134919062000562565b600c5560015460075462000153916301000000900460ff169062000562565b600855600754600955600080826101200151600881111562000179576200017962000514565b1490508062000313576101408201516001600160a01b0316620001cf5760405162461bcd60e51b815260206004820152600a6024820152692727afa527a120a2222960b11b604482015260640160405180910390fd5b600082610140015190506000816001600160a01b031663bf6aff7f6040518163ffffffff1660e01b815260040160006040518083038186803b1580156200021557600080fd5b505afa1580156200022a573d6000803e3d6000fd5b505050506040513d6000823e601f3d908101601f1916820160405262000254919081019062000585565b90507fe3a485c29a588bf0adc0ff3e96a425340451287060e5b2abeb4146e23f731bd4816040516200028791906200063e565b60405180910390a160005b81518110156200030f57600160116000848481518110620002b757620002b76200068d565b60200260200101516001600160a01b03166001600160a01b0316815260200190815260200160002060040160186101000a81548160ff02191690831515021790555080806200030690620006a3565b91505062000292565b5050505b600454600554600654600754600154600c546040805196875260208701959095529385019290925260608401526301000000900460ff16608083015260a082015281151560c08201527f45efb12b2e98a3aa6d72220bc82942d21fd0ed1dd5f0f23379712ad813e779bc9060e00160405180910390a15050620006c1565b634e487b7160e01b600052604160045260246000fd5b60405161016081016001600160401b0381118282101715620003cd57620003cd62000391565b60405290565b604051601f8201601f191681016001600160401b0381118282101715620003fe57620003fe62000391565b604052919050565b80516001600160a01b03811681146200041e57600080fd5b919050565b805160ff811681146200041e57600080fd5b8051600981106200041e57600080fd5b600061016082840312156200045957600080fd5b62000463620003a7565b825181526020830151602082015260408301516040820152620004896060840162000406565b606082015260808301516080820152620004a660a0840162000423565b60a0820152620004b960c0840162000423565b60c0820152620004cc60e0840162000423565b60e0820152610100620004e181850162000423565b90820152610120620004f584820162000435565b908201526101406200050984820162000406565b908201529392505050565b634e487b7160e01b600052602160045260246000fd5b634e487b7160e01b600052601160045260246000fd5b60008160001904831182151516156200055d576200055d6200052a565b500290565b6000826200058057634e487b7160e01b600052601260045260246000fd5b500490565b600060208083850312156200059957600080fd5b82516001600160401b0380821115620005b157600080fd5b818501915085601f830112620005c657600080fd5b815181811115620005db57620005db62000391565b8060051b9150620005ee848301620003d3565b81815291830184019184810190888411156200060957600080fd5b938501935b838510156200063257620006228562000406565b825293850193908501906200060e565b98975050505050505050565b6020808252825182820181905260009190848201906040850190845b81811015620006815783516001600160a01b0316835292840192918401916001016200065a565b50909695505050505050565b634e487b7160e01b600052603260045260246000fd5b6000600019821415620006ba57620006ba6200052a565b5060010190565b61537280620006d16000396000f3fe60806040526004361061034f5760003560e01c80635cf1bc1a116101c6578063b986695b116100f7578063f25648d211610095578063f6020f011161006f578063f6020f0114610c70578063fa569fa214610c90578063fcbace5d14610cc8578063fd5201be14610ce85761034f565b8063f25648d214610c1a578063f283865f14610c30578063f5b2722814610c505761034f565b8063cc500ec9116100d1578063cc500ec914610bac578063cf73a1bc14610bcb578063d6aad1b914610bf0578063dcc1484a14610c055761034f565b8063b986695b14610b46578063c5f3de5a14610b5c578063ca6e038514610b715761034f565b80638cf6f32c1161016457806393808c021161013e57806393808c02146109d85780639699fee614610a05578063a41dacd614610a25578063a87430ba14610a3b5761034f565b80638cf6f32c146109815780638d03b102146109a8578063904a9d17146109c25761034f565b8063667ba0f6116101a0578063667ba0f6146108bd578063701341ed1461090c578063750142e61461092f5780638b2f56fb146109455761034f565b80635cf1bc1a1461084f57806363fa28231461087d57806364a3e2211461089d5761034f565b806333f93bcd116102a0578063403658521161023e5780634d4d2b1c116102185780634d4d2b1c146107925780634ebf31da146107dd578063508be15e1461080c57806359ac0c46146108225761034f565b8063403658521461072257806345e4c3791461073857806346834d00146107705761034f565b80633aa8f2ed1161027a5780633aa8f2ed146106ab5780633b1c5aed146106cb5780633eee0426146106eb5780633f4f2d62146107015761034f565b806333f93bcd1461063d57806335c1d349146106535780633717ef091461068b5761034f565b8063146ca5311161030d5780631b2ccc09116102e75780631b2ccc09146105a257806328624ce6146105b8578063287e0c8e146105d8578063299a0c00146106055761034f565b8063146ca5311461054c578063168d0ccb14610578578063186beae3146105805761034f565b80625c43a51461045957806302dc06d3146104825780630899604c146104ba57806308ed8d16146104d1578063095083af146104ff57806311da60b414610537575b34801561035b57600080fd5b50606080600080600060343604604051955060208102602001860160405280865260005b818110156103a757823560601c6020828102890101819052945060149092019160010161037f565b506040519450602081026020018501604052808552600093505b808410156103e9578135925082602085026020870101526020820191506001840193506103c1565b5050505060005b82518110156104545760105460ff166104425761044283828151811061041857610418614afd565b602002602001015183838151811061043257610432614afd565b602002602001015160010b610cfe565b8061044c81614b29565b9150506103f0565b505050005b34801561046557600080fd5b5061046f600c5481565b6040519081526020015b60405180910390f35b34801561048e57600080fd5b5061046f61049d366004614b60565b601860209081526000928352604080842090915290825290205481565b3480156104c657600080fd5b506104cf611153565b005b3480156104dd57600080fd5b506104cf6104ec366004614b93565b6010805460ff1916911515919091179055565b34801561050b57600080fd5b5061046f61051a366004614bcd565b601460209081526000928352604080842090915290825290205481565b34801561054357600080fd5b506104cf61142d565b34801561055857600080fd5b506001546105669060ff1681565b60405160ff9091168152602001610479565b6104cf61274a565b34801561058c57600080fd5b5060015461056690640100000000900460ff1681565b3480156105ae57600080fd5b5061046f60005481565b3480156105c457600080fd5b506104cf6105d3366004614c95565b6128ca565b3480156105e457600080fd5b5061046f6105f3366004614d4f565b601b6020526000908152604090205481565b34801561061157600080fd5b5061046f610620366004614b60565b601960209081526000928352604080842090915290825290205481565b34801561064957600080fd5b5061046f60085481565b34801561065f57600080fd5b5061067361066e366004614d6a565b61290f565b6040516001600160a01b039091168152602001610479565b34801561069757600080fd5b506104cf6106a6366004614d83565b612939565b3480156106b757600080fd5b506104cf6106c6366004614e03565b610cfe565b3480156106d757600080fd5b506104cf6106e6366004614d83565b612b48565b3480156106f757600080fd5b5061046f60095481565b34801561070d57600080fd5b50600154610566906301000000900460ff1681565b34801561072e57600080fd5b5061046f600a5481565b34801561074457600080fd5b5061046f610753366004614bcd565b601560209081526000928352604080842090915290825290205481565b34801561077c57600080fd5b50610785612d47565b6040516104799190614e2d565b34801561079e57600080fd5b506107cd6107ad366004614b60565b601260209081526000928352604080842090915290825290205460ff1681565b6040519015158152602001610479565b3480156107e957600080fd5b506107fd6107f8366004614d4f565b612e94565b60405161047993929190614f1c565b34801561081857600080fd5b5061046f60055481565b34801561082e57600080fd5b5061046f61083d366004614f5f565b60176020526000908152604090205481565b34801561085b57600080fd5b5061086f61086a366004614d4f565b61334a565b604051610479929190614f7a565b34801561088957600080fd5b5061046f610898366004614d6a565b613751565b3480156108a957600080fd5b506104cf6108b8366004614fa8565b613771565b3480156108c957600080fd5b506108f96108d8366004614fca565b601d60209081526000928352604080842090915290825290205461ffff1681565b60405161ffff9091168152602001610479565b34801561091857600080fd5b506109216138ce565b604051610479929190614fe6565b34801561093b57600080fd5b5061046f60075481565b34801561095157600080fd5b506108f9610960366004614fca565b601c60209081526000928352604080842090915290825290205461ffff1681565b34801561098d57600080fd5b50600d5461099b9060ff1681565b6040516104799190615031565b3480156109b457600080fd5b506010546107cd9060ff1681565b3480156109ce57600080fd5b5061046f60065481565b3480156109e457600080fd5b5061046f6109f3366004614d4f565b601a6020526000908152604090205481565b348015610a1157600080fd5b506104cf610a2036600461503f565b613bc2565b348015610a3157600080fd5b5061046f600b5481565b348015610a4757600080fd5b50610ad7610a56366004614d4f565b60116020526000908152604090208054600182015460028301546003840154600490940154929391929091906001600160a01b0381169060ff600160a01b8204811691600160a81b8104821691600160b01b8204811691600160b81b8104821691600160c01b8204811691600160c81b8104821691600160d01b909104168c565b604080519c8d5260208d019b909b52998b019890985260608a01969096526001600160a01b03909416608089015260ff92831660a0890152911660c0870152151560e0860152151561010085015215156101208401521515610140830152151561016082015261018001610479565b348015610b5257600080fd5b5061046f60035481565b348015610b6857600080fd5b506104cf613c18565b348015610b7d57600080fd5b506107cd610b8c366004614b60565b601360209081526000928352604080842090915290825290205460ff1681565b348015610bb857600080fd5b5060015461056690610100900460ff1681565b348015610bd757600080fd5b50600d546106739061010090046001600160a01b031681565b348015610bfc57600080fd5b506107cd613d25565b348015610c1157600080fd5b506107cd613e00565b348015610c2657600080fd5b5061046f60025481565b348015610c3c57600080fd5b506104cf610c4b366004614d6a565b613ed5565b348015610c5c57600080fd5b506104cf610c6b366004614d6a565b614021565b348015610c7c57600080fd5b5061086f610c8b366004614d4f565b6140cf565b348015610c9c57600080fd5b5061046f610cab366004614fca565b601660209081526000928352604080842090915290825290205481565b348015610cd457600080fd5b506001546105669062010000900460ff1681565b348015610cf457600080fd5b5061046f60045481565b33600090815260116020526040902060040154600160b81b900460ff16610d405760405162461bcd60e51b8152600401610d3790615080565b60405180910390fd5b816001600160a01b038116331415610d805760405162461bcd60e51b815260206004820152600360248201526214d15560ea1b6044820152606401610d37565b3360009081526012602090815260408083206001600160a01b038516845290915290205460ff1615610dda5760405162461bcd60e51b815260206004820152600360248201526256414360e81b6044820152606401610d37565b6002546003541480610dfb57504262015180600a54610df9919061509d565b105b610e2d5760405162461bcd60e51b815260206004820152600360248201526246524360e81b6044820152606401610d37565b3360008181526012602090815260408083206001600160a01b03881684528252808320805460ff19166001908117909155938352601190915290206004018054601590610e85908490600160a81b900460ff166150b5565b92506101000a81548160ff021916908360ff16021790555060018060018282829054906101000a900460ff16610ebb91906150b5565b825460ff9182166101009390930a9283029190920219909116179055503360009081526019602090815260408083206001600160a01b03871684529091528120805460019290610f0c90849061509d565b90915550506001600160a01b0383166000908152601b60205260408120805460019290610f3a90849061509d565b90915550506001821415610fb0573360009081526018602090815260408083206001600160a01b03871684529091528120805460019290610f7c90849061509d565b90915550506001600160a01b0383166000908152601a60205260408120805460019290610faa90849061509d565b90915550505b8160011415611031573360008181526013602090815260408083206001600160a01b03881684528252808320805460ff1916600190811790915593835260119091529020810154611000916150da565b6001600160a01b0384166000908152601160205260408120600301805490919061102b90849061515f565b90915550505b8160001914156110ae573360008181526013602090815260408083206001600160a01b03881684528252808320805460ff19169055928252601190522060019081015461107d916150da565b6001600160a01b038416600090815260116020526040812060030180549091906110a89084906151a0565b90915550505b816110df573360009081526013602090815260408083206001600160a01b03871684529091529020805460ff191690555b336000818152601160209081526040808320600101546001600160a01b038816808552938290206003015482519485529284019490945282810193909352606082015290517fd69fe95841f16237d39b30bbb2ed7633b307fb0addc4bb890b6a3a77e04f5f7f9181900360800190a1505050565b33600090815260116020526040902060040154600160b81b900460ff1661118c5760405162461bcd60e51b8152600401610d3790615080565b600254600354141580156111af57504262015180600a546111ad919061509d565b115b6111e05760405162461bcd60e51b81526020600482015260026024820152614e4160f01b6044820152606401610d37565b33600090815260156020908152604080832060015460ff168452909152902054156112335760405162461bcd60e51b815260206004820152600360248201526257464560e81b6044820152606401610d37565b33600090815260116020526040902060018101548061127a5760405162461bcd60e51b81526020600482015260036024820152622722a360e91b6044820152606401610d37565b60006001830181905560048301805460ff60b81b191690555b600e5481101561139957336001600160a01b0316600e82815481106112ba576112ba614afd565b6000918252602090912001546001600160a01b0316141561138757600e80546112e5906001906151df565b815481106112f5576112f5614afd565b600091825260209091200154600e80546001600160a01b03909216918390811061132157611321614afd565b9060005260206000200160006101000a8154816001600160a01b0302191690836001600160a01b03160217905550600e805480611360576113606151f6565b600082815260209020810160001990810180546001600160a01b0319169055019055611399565b8061139181614b29565b915050611293565b50604051600090339083908381818185875af1925050503d80600081146113dc576040519150601f19603f3d011682016040523d82523d6000602084013e6113e1565b606091505b50509050806114285760405162461bcd60e51b8152602060048201526013602482015272115512081d1c985b9cd9995c8819985a5b1959606a1b6044820152606401610d37565b505050565b60008060005b600e548110156114ef57600060116000600e848154811061145657611456614afd565b60009182526020808320909101546001600160a01b031683528201929092526040019020600481015490915060ff600160a01b90910416600114156114dc57600c548160010160008282546114ab91906151df565b9091555050600c546002820180546000906114c79084906151a0565b9091555050600c546114d9908461509d565b92505b50806114e781614b29565b915050611433565b5060005b600e548110156118f357600060116000600e848154811061151657611516614afd565b60009182526020808320909101546001600160a01b031683528201929092526040019020600481015490915060ff600160b81b90910416801561156557506004810154600160d01b900460ff16155b156118e0576000816003015412156118ca5760048101546001805460ff600160a81b90930483169282916115a091859161010090041661520c565b92506101000a81548160ff021916908360ff1602179055506000600160029054906101000a900460ff1660ff1682600101546115dc9190615245565b90506000600160029054906101000a900460ff1660ff166005548460020154611605919061515f565b61160f9190615259565b90506000808213611621576000611623565b815b600154600554919250611640916201000090910460ff1690615245565b846001015411156117835760048401805460ff60b01b1916600160b01b179055600e8054600f91908790811061167857611678614afd565b6000918252602080832090910154835460018181018655948452919092200180546001600160a01b0319166001600160a01b0390921691909117905560048501805460ff60c81b191690558401546116d19084906151df565b8460010181905550808460020160008282546116ed91906151a0565b909155505060038401546117029084906151a0565b6003850155611711838861509d565b96507f641368b934d33e657fe49c6af1c0e5b618d4dc123f53fc3f8d5f15fee5f4fb86600e868154811061174757611747614afd565b60009182526020909120015460038601546001870154604051611776936001600160a01b031692918891615287565b60405180910390a16118c2565b60048401805461ffff60b01b1916600160b01b179055600e8054600f9190879081106117b1576117b1614afd565b6000918252602080832090910154835460018181018655948452919092200180546001600160a01b0319166001600160a01b0390921691909117905560048501805460ff60c81b19169055840154611809908861509d565b965061181c670de0b6b3a76400006152ad565b60028501556004840154600385015460018601546040517f6a461179a109ac5a4f65774b04343a475dd7d089ffa5a31552a4d71e0a1e7b4f9361186f936001600160a01b03909116929091600090615287565b60405180910390a16000846001018190555060016002600082825461189491906151df565b909155505060048401805460ff60d01b198116600160d01b179091556118c2906001600160a01b03166144d4565b5050506118e0565b60048101805460ff60c81b1916600160c81b1790555b50806118eb81614b29565b9150506114f3565b5060005b600e54811015611b9557600060116000600e848154811061191a5761191a614afd565b60009182526020808320909101546001600160a01b031683528201929092526040019020600481015490915060ff600160b81b90910416158061196857506004810154600160d01b900460ff165b8061197e57506004810154600160b01b900460ff165b156119895750611b83565b6000805b600f54811015611b235760136000600e86815481106119ae576119ae614afd565b60009182526020808320909101546001600160a01b031683528201929092526040018120600f8054919291849081106119e9576119e9614afd565b60009182526020808320909101546001600160a01b0316835282019290925260400190205460ff1615611b1157600060136000600e8781548110611a2f57611a2f614afd565b60009182526020808320909101546001600160a01b031683528201929092526040018120600f805491929185908110611a6a57611a6a614afd565b6000918252602080832091909101546001600160a01b031683528201929092526040019020805460ff1916911515919091179055600e8054600193507f1774dd77faaf323cd25b2f963ff975744949b339a6d103b4e3959263f6c2f977919086908110611ad957611ad9614afd565b600091825260208220015460038601546001870154604051611b08946001600160a01b03909416939190615287565b60405180910390a15b80611b1b81614b29565b91505061198d565b508015611b805760048201546001805460ff600160a81b9093048316928291611b5391859161010090041661520c565b825460ff9182166101009390930a92830291909202199091161790555060048201805460ff60c81b191690555b50505b80611b8d81614b29565b9150506118f7565b5060005b600e54811015611cc657600060116000600e8481548110611bbc57611bbc614afd565b60009182526020808320909101546001600160a01b031683528201929092526040019020600481015490915060ff600160b81b90910416611bfd5750611cb4565b6004810154600160d01b900460ff1615611c175750611cb4565b6004810154600160a01b900460ff16600114611c335750611cb4565b6004810154600160c81b900460ff1615611c9357600c54816001016000828254611c5d919061509d565b9091555050600c54600282018054600090611c7990849061515f565b9091555050600c54611c8b90846151df565b925050611cb4565b600c54611ca0908561509d565b9350600c5483611cb091906151df565b9250505b80611cbe81614b29565b915050611b99565b506001546000908190610100900460ff1615801590611ce9575060085460095410155b156125305760085460096000828254611d0291906151df565b9091555050600854600090611d1890869061509d565b905060005b600e54811015611e1357600060116000600e8481548110611d4057611d40614afd565b60009182526020808320909101546001600160a01b0316835282019290925260400190209050611d6f816145ff565b8015611da5575060015460ff16600090815260166020908152604080832060048501546001600160a01b03168452909152812054135b15611e005760015460ff908116600090815260166020908152604080832060048601546001600160a01b038116855292528220549192611ded9291600160a81b9004166150da565b8083559050611dfc818761515f565b9550505b5080611e0b81614b29565b915050611d1d565b5060008313611e795760405162461bcd60e51b815260206004820152602c60248201527f73756d4f665765696768746564436f6e7472696253636f7265206973203c3d2060448201526b3020696e20736574746c652160a01b6064820152608401610d37565b82915060005b600e548110156123a057600060116000600e8481548110611ea257611ea2614afd565b60009182526020808320909101546001600160a01b0316835282019290925260400190209050611ed1816145ff565b8015611f07575060015460ff16600090815260166020908152604080832060048501546001600160a01b03168452909152812054125b1561238d57600154640100000000900460ff16611f665760405162461bcd60e51b815260206004820152601860248201527f70756e697368666163746f72636f6e74726962203c3d203000000000000000006044820152606401610d37565b6000816001015411611fba5760405162461bcd60e51b815260206004820152601a60248201527f757365722e676c6f62616c72657075746174696f6e203c3d20300000000000006044820152606401610d37565b60015460ff16600090815260166020908152604080832060048501546001600160a01b03168452909152812054126120235760405162461bcd60e51b815260206004820152600c60248201526b0636f6e74726962203e3d20360a41b6044820152606401610d37565b60015460ff16600090815260166020908152604080832060048501546001600160a01b0316845290915281205461205990613751565b600180549084015461207691640100000000900460ff1690615245565b61208091906152ca565b60015460ff16600090815260166020908152604080832060048701546001600160a01b0316845290915281205491925090670de0b6b3a7640000906120c490613751565b600154600554600287015464010000000090920460ff16916120e6919061515f565b6120f09190615259565b6120fa91906150da565b6121049190615259565b9050600082116121565760405162461bcd60e51b815260206004820152601f60248201527f70756e6973686d656e74206973203c3d203020696e20736574746c65212031006044820152606401610d37565b612168670de0b6b3a764000083615245565b9150600082116121ba5760405162461bcd60e51b815260206004820152601f60248201527f70756e6973686d656e74206973203c3d203020696e20736574746c65212032006044820152606401610d37565b6001546005546121d591640100000000900460ff1690615245565b83600101541115806121eb575081836001015411155b156122cd5760018301546121ff908661509d565b9450670de0b6b3a763ffff1983600201819055507f6a461179a109ac5a4f65774b04343a475dd7d089ffa5a31552a4d71e0a1e7b4f600e858154811061224757612247614afd565b600091825260208220015460038601546001870154604051612275946001600160a01b039094169390615287565b60405180910390a16000836001018190555060016002600082825461229a91906151df565b909155505060048301805460ff60d01b198116600160d01b179091556122c8906001600160a01b03166144d4565b61238a565b818360010160008282546122e191906151df565b92505081905550808360020160008282546122fc91906151a0565b9091555061230c9050828661509d565b600484015460038501546001860154604080516001600160a01b03909416845260208401929092529082018590526060820152600060808201529095507f8158d29a03513e7972f6b5bda3569b47e4e874fb6f992b071894b3ea87c3041e9060a00160405180910390a160048301805460ff60c81b19169055600083555b50505b508061239881614b29565b915050611e7f565b5060005b600e5481101561252d57600060116000600e84815481106123c7576123c7614afd565b60009182526020808320909101546001600160a01b03168352820192909252604001902090506123f6816145ff565b801561242d575060015460ff16600090815260166020908152604080832060048501546001600160a01b0316845290915281205412155b15612508578054600090859061244390866152ca565b61244d9190615245565b905080826001016000828254612463919061509d565b90915550508154600854600091879161247c91906152ca565b6124869190615245565b90508083600201600082825461249c919061515f565b909155505060048301546003840154600180860154604080516001600160a01b039095168552602085019390935283830186905260608401526080830152517f8158d29a03513e7972f6b5bda3569b47e4e874fb6f992b071894b3ea87c3041e9181900360a00190a150505b60048101805460ff60c81b19169055600090558061252581614b29565b9150506123a4565b50505b6001546040805160ff808416825261010090930490921660208301528101829052606081018590527f0fb9071657a7d7c77d4413e1c8487bb219c39de920f3297977dd60bf0e00d33d9060800160405180910390a160005b600e548110156126f157600060116000600e84815481106125ab576125ab614afd565b60009182526020808320909101546001600160a01b031683528201929092526040019020600481015490915060ff600160b81b9091041680156125fa57506004810154600160d01b900460ff16155b156126de5760048101805460ff60a81b19168082556000600384015560019190601490612632908490600160a01b900460ff166150b5565b825460ff9182166101009390930a92830291909202199091161790555060048101805460ff60b01b1916905560005b600e548110156126dc5760048201546001600160a01b03166000908152601260205260408120600e80549192918490811061269e5761269e614afd565b60009182526020808320909101546001600160a01b031683528201929092526040019020805460ff19169055806126d481614b29565b915050612661565b505b50806126e981614b29565b915050612588565b5060018054819060009061270990839060ff166150b5565b825460ff9182166101009390930a9283029190920219909116179055506001805461ff00191690556000600381905561274490600f906149c2565b50505050565b33600081815260116020526040902060040154600160b81b900460ff161561279a5760405162461bcd60e51b815260206004820152600360248201526229a0a960e91b6044820152606401610d37565b33600081815260116020526040902060040154600160c01b900460ff166127e95760405162461bcd60e51b815260206004820152600360248201526253554f60e81b6044820152606401610d37565b60055434101580156127fd57506006543411155b61282f5760405162461bcd60e51b8152602060048201526003602482015262272ba960e91b6044820152606401610d37565b33600081815260116020526040812060048101805434600180850191909155600162ff000160a81b0319909116909417630100000160a01b17905560028054919392909161287e90849061509d565b9091555050600e80546001810182556000919091527fbb7b4a454dc3493923482f07822329ed19e8244eff582cc204f8554c3620c3fd0180546001600160a01b03191633179055505050565b6000806128d78a8a61465a565b815191935091506128eb90888787876146f1565b6128f933838a8a8a8a614837565b6129038282614948565b50505050505050505050565b600e818154811061291f57600080fd5b6000918252602090912001546001600160a01b0316905081565b606080612946878761465a565b81519193509150841461299b5760405162461bcd60e51b815260206004820181905260248201527f494e56414c49445f4c454e475448204f462041434355524143592041525241596044820152606401610d37565b60015460ff166000908152601f6020908152604080832033845282529182902082518084018452858152835188840281810185019095528881529193909283810192918a918a9182918501908490808284376000920182905250939094525050835460018101855593815260209081902083518051949560020290910193612a2a9350849291909101906149e3565b506020828101518051612a439260018501920190614a48565b50505061271061ffff84161115612ad55760405162461bcd60e51b815260206004820152604a60248201527f50524556494f5553204143435552414359204e4f54204245545745454e20302060448201527f414e44203130303030207375626d6974466565646261636b4279746573416e646064820152694163637572616369657360b01b608482015260a401610d37565b60015460ff166000908152601c602090815260408083203384529091528120805461ffff191661ffff86161790555b8251811015612b3e5760105460ff16612b2c57612b2c83828151811061041857610418614afd565b80612b3681614b29565b915050612b04565b5050505050505050565b606080612b55878761465a565b815191935091508414612baa5760405162461bcd60e51b815260206004820152601c60248201527f494e56414c49445f4c454e475448204f46204c4f5353204152524159000000006044820152606401610d37565b60015460ff1660009081526020808052604080832033845282529182902082518084018452858152835188840281810185019095528881529193909283810192918a918a9182918501908490808284376000920182905250939094525050835460018101855593815260209081902083518051949560020290910193612c379350849291909101906149e3565b506020828101518051612c509260018501920190614a48565b505060015460ff166000908152601d602090815260408083203384529091529020805461ffff191661ffff861690811790915561271010159050612d0a5760405162461bcd60e51b815260206004820152604560248201527f50524556494f5553204c4f5353204e4f54204245545745454e203020414e442060448201527f313030303020696e207375626d6974466565646261636b4279746573416e644c6064820152646f7373657360d81b608482015260a401610d37565b60005b8251811015612b3e5760105460ff16612d3557612d3583828151811061041857610418614afd565b80612d3f81614b29565b915050612d0d565b600e546060906000816001600160401b03811115612d6757612d676152e9565b604051908082528060200260200182016040528015612dd357816020015b612dc06040518060a0016040528060006001600160a01b03168152602001600081526020016000815260200160008152602001600081525090565b815260200190600190039081612d855790505b50905060005b82811015612e8d576000600e8281548110612df657612df6614afd565b60009182526020808320909101546001600160a01b0316808352601182526040808420815160a081018352838152600282015481860152600182015481840152838652601a8552828620546060820152838652601b90945293205460808301528551909350859085908110612e6d57612e6d614afd565b602002602001018190525050508080612e8590614b29565b915050612dd9565b5092915050565b60608060606000805b600e5481101561300457600060116000600e8481548110612ec057612ec0614afd565b60009182526020808320909101546001600160a01b039081168452838201949094526040928301822060015460ff168352601e825283832060048201549095168352939052908120549192505b81811015612fee5760015460ff166000908152601e6020908152604080832060048701546001600160a01b031684529091528120805483908110612f5357612f53614afd565b9060005260206000209060030201905060005b8154811015612fd9578a6001600160a01b0316826000018281548110612f8e57612f8e614afd565b6000918252602090912001546001600160a01b0316148015612fb45750612fb485614985565b15612fc75786612fc381614b29565b9750505b80612fd181614b29565b915050612f66565b50508080612fe690614b29565b915050612f0d565b5050508080612ffc90614b29565b915050612e9d565b50806001600160401b0381111561301d5761301d6152e9565b604051908082528060200260200182016040528015613046578160200160208202803683370190505b509350806001600160401b03811115613061576130616152e9565b60405190808252806020026020018201604052801561308a578160200160208202803683370190505b509250806001600160401b038111156130a5576130a56152e9565b6040519080825280602002602001820160405280156130ce578160200160208202803683370190505b5091506000805b600e5481101561334057600060116000600e84815481106130f8576130f8614afd565b60009182526020808320909101546001600160a01b039081168452838201949094526040928301822060015460ff168352601e825283832060048201549095168352939052908120549192505b8181101561332a5760015460ff166000908152601e6020908152604080832060048701546001600160a01b03168452909152812080548390811061318b5761318b614afd565b9060005260206000209060030201905060005b8154811015613315578b6001600160a01b03168260000182815481106131c6576131c6614afd565b6000918252602090912001546001600160a01b03161480156131ec57506131ec85614985565b156133035760048501548b516001600160a01b03909116908c908990811061321657613216614afd565b60200260200101906001600160a01b031690816001600160a01b03168152505081600101818154811061324b5761324b614afd565b90600052602060002090601091828204019190066002029054906101000a900461ffff168a888151811061328157613281614afd565b602002602001019061ffff16908161ffff16815250508160020181815481106132ac576132ac614afd565b90600052602060002090601091828204019190066002029054906101000a900461ffff168988815181106132e2576132e2614afd565b61ffff90921660209283029190910190910152866132ff81614b29565b9750505b8061330d81614b29565b91505061319e565b5050808061332290614b29565b915050613145565b505050808061333890614b29565b9150506130d5565b5050509193909250565b6060806000805b600e548110156134b557600060116000600e848154811061337457613374614afd565b60009182526020808320909101546001600160a01b039081168452838201949094526040928301822060015460ff16835281805283832060048201549095168352939052908120549192505b8181101561349f5760015460ff1660009081526020808052604080832060048701546001600160a01b03168452909152812080548390811061340457613404614afd565b9060005260206000209060020201905060005b815481101561348a57896001600160a01b031682600001828154811061343f5761343f614afd565b6000918252602090912001546001600160a01b0316148015613465575061346585614985565b15613478578661347481614b29565b9750505b8061348281614b29565b915050613417565b5050808061349790614b29565b9150506133c0565b50505080806134ad90614b29565b915050613351565b50806001600160401b038111156134ce576134ce6152e9565b6040519080825280602002602001820160405280156134f7578160200160208202803683370190505b509250806001600160401b03811115613512576135126152e9565b60405190808252806020026020018201604052801561353b578160200160208202803683370190505b5091506000805b600e5481101561374957600060116000600e848154811061356557613565614afd565b60009182526020808320909101546001600160a01b039081168452838201949094526040928301822060015460ff16835281805283832060048201549095168352939052908120549192505b818110156137335760015460ff1660009081526020808052604080832060048701546001600160a01b0316845290915281208054839081106135f5576135f5614afd565b9060005260206000209060020201905060005b815481101561371e578a6001600160a01b031682600001828154811061363057613630614afd565b6000918252602090912001546001600160a01b0316148015613656575061365685614985565b1561370c5760048501548a516001600160a01b03909116908b908990811061368057613680614afd565b60200260200101906001600160a01b031690816001600160a01b0316815250508160010181815481106136b5576136b5614afd565b90600052602060002090601091828204019190066002029054906101000a900461ffff168988815181106136eb576136eb614afd565b61ffff909216602092830291909101909101528661370881614b29565b9750505b8061371681614b29565b915050613608565b5050808061372b90614b29565b9150506135b1565b505050808061374190614b29565b915050613542565b505050915091565b60008082121561376957613764826152ad565b61376b565b815b92915050565b33600090815260116020526040902060040154600160b81b900460ff166137aa5760405162461bcd60e51b8152600401610d3790615080565b33600090815260156020908152604080832060015460ff168452909152902054156137fd5760405162461bcd60e51b815260206004820152600360248201526205341560ec1b6044820152606401610d37565b604080516020810184905290810182905233606090811b6bffffffffffffffffffffffff19169082015260740160408051601f1981840301815291815281516020928301203360009081526014845282812060015460ff168252909352912054146138905760405162461bcd60e51b81526020600482015260036024820152624e4b5360e81b6044820152606401610d37565b3360009081526015602090815260408083206001805460ff1685529252822084905560038054919290916138c590849061509d565b90915550505050565b6060806000805b600e5481101561397e57600060116000600e84815481106138f8576138f8614afd565b60009182526020808320909101546001600160a01b031683528201929092526040019020600481015490915060ff600160b81b90910416801561394757506004810154600160d01b900460ff16155b801561395857506000816003015412155b1561396b576139686001846150b5565b92505b508061397681614b29565b9150506138d5565b508060ff166001600160401b0381111561399a5761399a6152e9565b6040519080825280602002602001820160405280156139c3578160200160208202803683370190505b5092508060ff166001600160401b038111156139e1576139e16152e9565b604051908082528060200260200182016040528015613a0a578160200160208202803683370190505b5091506000805b600e54811015613bbb57600060116000600e8481548110613a3457613a34614afd565b60009182526020808320909101546001600160a01b031683528201929092526040019020600481015490915060ff600160b81b909104168015613a8357506004810154600160d01b900460ff16155b8015613a9457506000816003015412155b15613ba85760015460ff166000908152601c60205260408120600e805491929185908110613ac457613ac4614afd565b60009182526020808320909101546001600160a01b03168352820192909252604001902054865161ffff90911690879060ff8616908110613b0757613b07614afd565b61ffff90921660209283029190910182015260015460ff166000908152601d90915260408120600e805491929185908110613b4457613b44614afd565b60009182526020808320909101546001600160a01b03168352820192909252604001902054855161ffff90911690869060ff8616908110613b8757613b87614afd565b61ffff9092166020928302919091019091015282613ba4816152ff565b9350505b5080613bb381614b29565b915050613a11565b5050509091565b606080613bcf848461465a565b909250905060005b8251811015613c115760105460ff16613bff57613bff83828151811061041857610418614afd565b80613c0981614b29565b915050613bd7565b5050505050565b6000600d5460ff166008811115613c3157613c31614ff9565b1415613c745760405162461bcd60e51b815260206004820152601260248201527154656d706c617465206368616c6c656e676560701b6044820152606401610d37565b600d5461010090046001600160a01b0316613cbe5760405162461bcd60e51b815260206004820152600a60248201526927379036b0b730b3b2b960b11b6044820152606401610d37565b600d546040516305597ed760e21b81526001600160a01b0361010083041691631565fb5c91613cf791309160ff9091169060040161531f565b600060405180830381600087803b158015613d1157600080fd5b505af1158015612744573d6000803e3d6000fd5b600080805b600e54811015613dd357600060116000600e8481548110613d4d57613d4d614afd565b60009182526020808320909101546001600160a01b031683528201929092526040019020600481015490915060ff600160b81b909104168015613d9c57506004810154600160d01b900460ff16155b8015613dad57506000816003015412155b15613dc05782613dbc81614b29565b9350505b5080613dcb81614b29565b915050613d2a565b5060015460ff16600090815260176020526040902054811115613df857600091505090565b600191505090565b600060025460001415613e135750600090565b60005b600e54811015613ecd57600060116000600e8481548110613e3957613e39614afd565b60009182526020808320909101546001600160a01b031683528201929092526040019020600481015490915060ff600160b81b909104168015613e8857506004810154600160d01b900460ff16155b15613eba576001600254613e9c91906151df565b6004820154600160a81b900460ff161015613eba5760009250505090565b5080613ec581614b29565b915050613e16565b506001905090565b33600090815260116020526040902060040154600160b81b900460ff16613f345760405162461bcd60e51b8152602060048201526013602482015272155cd95c881b9bdd081c9959da5cdd195c9959606a1b6044820152606401610d37565b60015460ff16600090815260166020908152604080832033845290915290205415613fa15760405162461bcd60e51b815260206004820152601760248201527f53636f726520616c7265616479207375626d69747465640000000000000000006044820152606401610d37565b6001805460ff9081166000908152601660209081526040808320338452825280832086905584549093168252601790529081208054909190613fe490849061509d565b909155505060405181815233907f20e6c7c82a3c0a8203efca055fc9a664ca649345957ddc3ba34b2912e9ed83739060200160405180910390a250565b33600090815260116020526040902060040154600160b81b900460ff1661405a5760405162461bcd60e51b8152600401610d3790615080565b33600090815260156020908152604080832060015460ff168452909152902054156140ad5760405162461bcd60e51b815260206004820152600360248201526205341560ec1b6044820152606401610d37565b33600090815260146020908152604080832060015460ff168452909152902055565b6060806000805b600e5481101561423d57600060116000600e84815481106140f9576140f9614afd565b60009182526020808320909101546001600160a01b039081168452838201949094526040928301822060015460ff168352601f825283832060048201549095168352939052908120549192505b818110156142275760015460ff166000908152601f6020908152604080832060048701546001600160a01b03168452909152812080548390811061418c5761418c614afd565b9060005260206000209060020201905060005b815481101561421257896001600160a01b03168260000182815481106141c7576141c7614afd565b6000918252602090912001546001600160a01b03161480156141ed57506141ed85614985565b1561420057866141fc81614b29565b9750505b8061420a81614b29565b91505061419f565b5050808061421f90614b29565b915050614146565b505050808061423590614b29565b9150506140d6565b50806001600160401b03811115614256576142566152e9565b60405190808252806020026020018201604052801561427f578160200160208202803683370190505b509250806001600160401b0381111561429a5761429a6152e9565b6040519080825280602002602001820160405280156142c3578160200160208202803683370190505b5091506000805b600e5481101561374957600060116000600e84815481106142ed576142ed614afd565b60009182526020808320909101546001600160a01b039081168452838201949094526040928301822060015460ff168352601f825283832060048201549095168352939052908120549192505b818110156144be5760015460ff166000908152601f6020908152604080832060048701546001600160a01b03168452909152812080548390811061438057614380614afd565b9060005260206000209060020201905060005b81548110156144a9578a6001600160a01b03168260000182815481106143bb576143bb614afd565b6000918252602090912001546001600160a01b03161480156143e157506143e185614985565b156144975760048501548a516001600160a01b03909116908b908990811061440b5761440b614afd565b60200260200101906001600160a01b031690816001600160a01b03168152505081600101818154811061444057614440614afd565b90600052602060002090601091828204019190066002029054906101000a900461ffff1689888151811061447657614476614afd565b61ffff909216602092830291909101909101528661449381614b29565b9750505b806144a181614b29565b915050614393565b505080806144b690614b29565b91505061433a565b50505080806144cc90614b29565b9150506142ca565b60005b600e548110156145fb576000600e82815481106144f6576144f6614afd565b60009182526020808320909101546001600160a01b03868116808552601884526040808620929093168086529184528285205490855260198452828520828652909352922054919250908061454d575050506145e9565b6001600160a01b0383166000908152601a6020526040812080548492906145759084906151df565b90915550506001600160a01b0383166000908152601b6020526040812080548392906145a29084906151df565b909155505050506001600160a01b03838116600081815260186020908152604080832095909416808352948152838220829055918152601982528281209381529290528120555b806145f381614b29565b9150506144d7565b5050565b6004810154600090600160b81b900460ff16801561462857506004820154600160c81b900460ff165b801561464057506004820154600160b01b900460ff16155b801561376b57505060040154600160d01b900460ff161590565b6060806000808560348604604051955060208102602001860160405280865260005b818110156146a457823560601c6020828102890101819052945060149092019160010161467c565b506040519450602081026020018501604052808552600093505b808410156146e6578135925082602085026020870101526020820191506001840193506146be565b505050509250929050565b8484146147405760405162461bcd60e51b815260206004820181905260248201527f494e56414c49445f4c454e475448204f462041434355524143592041525241596044820152606401610d37565b84831461478f5760405162461bcd60e51b815260206004820152601c60248201527f494e56414c49445f4c454e475448204f46204c4f5353204152524159000000006044820152606401610d37565b61ffff82811611156147e35760405162461bcd60e51b815260206004820152601e60248201527f50524556494f5553204143435552414359204f5554204f462052414e474500006044820152606401610d37565b61ffff8181161115613c115760405162461bcd60e51b815260206004820152601a60248201527f50524556494f5553204c4f5353204f5554204f462052414e47450000000000006044820152606401610d37565b60015460ff166000908152601e602090815260408083206001600160a01b038a168452825291829020825160608101845288815283518784028181018501909552878152919390928381019291899189918291850190849080828437600092019190915250505090825250604080516020868102828101820190935286825292830192909187918791829185019084908082843760009201829052509390945250508354600181018555938152602090819020835180519495600302909101936149089350849291909101906149e3565b5060208281015180516149219260018501920190614a48565b506040820151805161493d916002840191602090910190614a48565b505050505050505050565b60005b82518110156114285760105460ff166149735761497383828151811061041857610418614afd565b8061497d81614b29565b91505061494b565b6004810154600090600160b81b900460ff1680156149af57506004820154600160d01b900460ff16155b801561376b575050600301546000131590565b50805460008255906000526020600020908101906149e09190614ae8565b50565b828054828255906000526020600020908101928215614a38579160200282015b82811115614a3857825182546001600160a01b0319166001600160a01b03909116178255602090920191600190910190614a03565b50614a44929150614ae8565b5090565b82805482825590600052602060002090600f01601090048101928215614a385791602002820160005b83821115614ab157835183826101000a81548161ffff021916908361ffff1602179055509260200192600201602081600101049283019260010302614a71565b8015614adf5782816101000a81549061ffff0219169055600201602081600101049283019260010302614ab1565b5050614a449291505b5b80821115614a445760008155600101614ae9565b634e487b7160e01b600052603260045260246000fd5b634e487b7160e01b600052601160045260246000fd5b6000600019821415614b3d57614b3d614b13565b5060010190565b80356001600160a01b0381168114614b5b57600080fd5b919050565b60008060408385031215614b7357600080fd5b614b7c83614b44565b9150614b8a60208401614b44565b90509250929050565b600060208284031215614ba557600080fd5b81358015158114614bb557600080fd5b9392505050565b803560ff81168114614b5b57600080fd5b60008060408385031215614be057600080fd5b614be983614b44565b9150614b8a60208401614bbc565b60008083601f840112614c0957600080fd5b5081356001600160401b03811115614c2057600080fd5b602083019150836020828501011115614c3857600080fd5b9250929050565b60008083601f840112614c5157600080fd5b5081356001600160401b03811115614c6857600080fd5b6020830191508360208260051b8501011115614c3857600080fd5b803561ffff81168114614b5b57600080fd5b60008060008060008060008060a0898b031215614cb157600080fd5b88356001600160401b0380821115614cc857600080fd5b614cd48c838d01614bf7565b909a50985060208b0135915080821115614ced57600080fd5b614cf98c838d01614c3f565b909850965060408b0135915080821115614d1257600080fd5b50614d1f8b828c01614c3f565b9095509350614d32905060608a01614c83565b9150614d4060808a01614c83565b90509295985092959890939650565b600060208284031215614d6157600080fd5b614bb582614b44565b600060208284031215614d7c57600080fd5b5035919050565b600080600080600060608688031215614d9b57600080fd5b85356001600160401b0380821115614db257600080fd5b614dbe89838a01614bf7565b90975095506020880135915080821115614dd757600080fd5b50614de488828901614c3f565b9094509250614df7905060408701614c83565b90509295509295909350565b60008060408385031215614e1657600080fd5b614e1f83614b44565b946020939093013593505050565b602080825282518282018190526000919060409081850190868401855b82811015614e9757815180516001600160a01b0316855286810151878601528581015186860152606080820151908601526080908101519085015260a09093019290850190600101614e4a565b5091979650505050505050565b600081518084526020808501945080840160005b83811015614edd5781516001600160a01b031687529582019590820190600101614eb8565b509495945050505050565b600081518084526020808501945080840160005b83811015614edd57815161ffff1687529582019590820190600101614efc565b606081526000614f2f6060830186614ea4565b8281036020840152614f418186614ee8565b90508281036040840152614f558185614ee8565b9695505050505050565b600060208284031215614f7157600080fd5b614bb582614bbc565b604081526000614f8d6040830185614ea4565b8281036020840152614f9f8185614ee8565b95945050505050565b60008060408385031215614fbb57600080fd5b50508035926020909101359150565b60008060408385031215614fdd57600080fd5b614b7c83614bbc565b604081526000614f8d6040830185614ee8565b634e487b7160e01b600052602160045260246000fd5b6009811061502d57634e487b7160e01b600052602160045260246000fd5b9052565b6020810161376b828461500f565b6000806020838503121561505257600080fd5b82356001600160401b0381111561506857600080fd5b61507485828601614bf7565b90969095509350505050565b60208082526003908201526229a72960e91b604082015260600190565b600082198211156150b0576150b0614b13565b500190565b600060ff821660ff84168060ff038211156150d2576150d2614b13565b019392505050565b60006001600160ff1b038184138284138082168684048611161561510057615100614b13565b600160ff1b600087128281168783058912161561511f5761511f614b13565b6000871292508782058712848416161561513b5761513b614b13565b8785058712818416161561515157615151614b13565b505050929093029392505050565b600080821280156001600160ff1b038490038513161561518157615181614b13565b600160ff1b839003841281161561519a5761519a614b13565b50500190565b60008083128015600160ff1b8501841216156151be576151be614b13565b6001600160ff1b03840183138116156151d9576151d9614b13565b50500390565b6000828210156151f1576151f1614b13565b500390565b634e487b7160e01b600052603160045260246000fd5b600060ff821660ff84168082101561522657615226614b13565b90039392505050565b634e487b7160e01b600052601260045260246000fd5b6000826152545761525461522f565b500490565b6000826152685761526861522f565b600160ff1b82146000198414161561528257615282614b13565b500590565b6001600160a01b0394909416845260208401929092526040830152606082015260800190565b6000600160ff1b8214156152c3576152c3614b13565b5060000390565b60008160001904831182151516156152e4576152e4614b13565b500290565b634e487b7160e01b600052604160045260246000fd5b600060ff821660ff81141561531657615316614b13565b60010192915050565b6001600160a01b038316815260408101614bb5602083018461500f56fea2646970667358221220d4ecae8ef541d5ba83d44ded4177af0b446e3a3198721160c0add1f80dddddad64736f6c63430008090033","linkReferences":{}},"methodIdentifiers":{"absUint(int256)":"63fa2823","contributionScore(uint8,address)":"fa569fa2","contributionStart()":"a41dacd6","exitModel()":"0899604c","feedback(address,int256)":"3aa8f2ed","finalizeReputations()":"c5f3de5a","freeriderPenalty()":"005c43a5","getAllAccuraciesAbout(address)":"f6020f01","getAllAccuraciesLossesAbout(address)":"4ebf31da","getAllLossesAbout(address)":"5cf1bc1a","getAllPreviousAccuraciesAndLosses()":"701341ed","getTaskRepDeltaAndGRS()":"46834d00","hasVoted(address,address)":"4d4d2b1c","initTS()":"fd5201be","isContributionRoundDone()":"d6aad1b9","isFeedBackRoundDone()":"dcc1484a","managerAddress()":"cf73a1bc","max_collateral()":"904a9d17","min_collateral()":"508be15e","min_rounds()":"3f4f2d62","modelHash()":"1b2ccc09","nrOfActiveParticipants()":"f25648d2","nrOfContributionScores(uint8)":"59ac0c46","nrOfProvidedHashedWeights()":"b986695b","participants(uint256)":"35c1d349","positiveVotesGivenByTo(address,address)":"02dc06d3","positiveVotesReceived(address)":"93808c02","prev_accs(uint8,address)":"8b2f56fb","prev_losses(uint8,address)":"667ba0f6","provideHashedWeights(bytes32,uint256)":"64a3e221","punishfactor()":"fcbace5d","punishfactorContrib()":"186beae3","registerSlot(bytes32)":"f5b27228","registrationProcess()":"168d0ccb","rewardLeft()":"3eee0426","rewardPerRound()":"33f93bcd","round()":"146ca531","roundStart()":"40365852","secretOf(address,uint8)":"095083af","setTesting(bool)":"08ed8d16","settle()":"11da60b4","submitContributionScore(int256)":"f283865f","submitFeedbackBytes(bytes)":"9699fee6","submitFeedbackBytesAndAccuracies(bytes,uint16[],uint16)":"3717ef09","submitFeedbackBytesAndAccuraciesLosses(bytes,uint16[],uint16[],uint16,uint16)":"28624ce6","submitFeedbackBytesAndLosses(bytes,uint16[],uint16)":"3b1c5aed","taskType()":"8cf6f32c","testing()":"8d03b102","totalReward()":"750142e6","totalVotesGivenByTo(address,address)":"299a0c00","totalVotesReceived(address)":"287e0c8e","users(address)":"a87430ba","votedPositiveFor(address,address)":"ca6e0385","votesPerRound()":"cc500ec9","weightsOf(address,uint8)":"45e4c379"},"id":2}